{
  "address": "0x5bb638A30858BB232D0fe6bcF65fF856d54C2369",
  "abi": [
    {
      "inputs": [
        {
          "internalType": "address",
          "name": "_basketToken",
          "type": "address"
        },
        {
          "internalType": "address",
          "name": "_oracle",
          "type": "address"
        },
        {
          "internalType": "uint256",
          "name": "_basketId",
          "type": "uint256"
        },
        {
          "internalType": "uint256",
          "name": "_swapFeeBps",
          "type": "uint256"
        }
      ],
      "stateMutability": "nonpayable",
      "type": "constructor"
    },
    {
      "inputs": [
        {
          "internalType": "address",
          "name": "target",
          "type": "address"
        }
      ],
      "name": "AddressEmptyCode",
      "type": "error"
    },
    {
      "inputs": [
        {
          "internalType": "address",
          "name": "account",
          "type": "address"
        }
      ],
      "name": "AddressInsufficientBalance",
      "type": "error"
    },
    {
      "inputs": [],
      "name": "FailedInnerCall",
      "type": "error"
    },
    {
      "inputs": [],
      "name": "FeeTooHigh",
      "type": "error"
    },
    {
      "inputs": [],
      "name": "InsufficientLiquidity",
      "type": "error"
    },
    {
      "inputs": [],
      "name": "InsufficientPoolBasket",
      "type": "error"
    },
    {
      "inputs": [],
      "name": "InsufficientPoolMnt",
      "type": "error"
    },
    {
      "inputs": [],
      "name": "InvalidAmount",
      "type": "error"
    },
    {
      "inputs": [],
      "name": "InvalidShares",
      "type": "error"
    },
    {
      "inputs": [
        {
          "internalType": "address",
          "name": "owner",
          "type": "address"
        }
      ],
      "name": "OwnableInvalidOwner",
      "type": "error"
    },
    {
      "inputs": [
        {
          "internalType": "address",
          "name": "account",
          "type": "address"
        }
      ],
      "name": "OwnableUnauthorizedAccount",
      "type": "error"
    },
    {
      "inputs": [],
      "name": "ReentrancyGuardReentrantCall",
      "type": "error"
    },
    {
      "inputs": [
        {
          "internalType": "address",
          "name": "token",
          "type": "address"
        }
      ],
      "name": "SafeERC20FailedOperation",
      "type": "error"
    },
    {
      "inputs": [],
      "name": "TransferFailed",
      "type": "error"
    },
    {
      "inputs": [],
      "name": "ZeroAddress",
      "type": "error"
    },
    {
      "anonymous": false,
      "inputs": [
        {
          "indexed": false,
          "internalType": "uint256",
          "name": "mntFees",
          "type": "uint256"
        },
        {
          "indexed": false,
          "internalType": "uint256",
          "name": "basketFees",
          "type": "uint256"
        }
      ],
      "name": "FeesCollected",
      "type": "event"
    },
    {
      "anonymous": false,
      "inputs": [
        {
          "indexed": true,
          "internalType": "address",
          "name": "provider",
          "type": "address"
        },
        {
          "indexed": false,
          "internalType": "uint256",
          "name": "mntAmount",
          "type": "uint256"
        },
        {
          "indexed": false,
          "internalType": "uint256",
          "name": "basketAmount",
          "type": "uint256"
        },
        {
          "indexed": false,
          "internalType": "uint256",
          "name": "sharesReceived",
          "type": "uint256"
        }
      ],
      "name": "LiquidityAdded",
      "type": "event"
    },
    {
      "anonymous": false,
      "inputs": [
        {
          "indexed": true,
          "internalType": "address",
          "name": "provider",
          "type": "address"
        },
        {
          "indexed": false,
          "internalType": "uint256",
          "name": "mntAmount",
          "type": "uint256"
        },
        {
          "indexed": false,
          "internalType": "uint256",
          "name": "basketAmount",
          "type": "uint256"
        },
        {
          "indexed": false,
          "internalType": "uint256",
          "name": "sharesBurned",
          "type": "uint256"
        }
      ],
      "name": "LiquidityRemoved",
      "type": "event"
    },
    {
      "anonymous": false,
      "inputs": [
        {
          "indexed": true,
          "internalType": "address",
          "name": "previousOwner",
          "type": "address"
        },
        {
          "indexed": true,
          "internalType": "address",
          "name": "newOwner",
          "type": "address"
        }
      ],
      "name": "OwnershipTransferred",
      "type": "event"
    },
    {
      "anonymous": false,
      "inputs": [
        {
          "indexed": true,
          "internalType": "address",
          "name": "user",
          "type": "address"
        },
        {
          "indexed": false,
          "internalType": "bool",
          "name": "mntToBasket",
          "type": "bool"
        },
        {
          "indexed": false,
          "internalType": "uint256",
          "name": "amountIn",
          "type": "uint256"
        },
        {
          "indexed": false,
          "internalType": "uint256",
          "name": "amountOut",
          "type": "uint256"
        },
        {
          "indexed": false,
          "internalType": "uint256",
          "name": "fee",
          "type": "uint256"
        }
      ],
      "name": "Swap",
      "type": "event"
    },
    {
      "inputs": [],
      "name": "accumulatedFeesBasket",
      "outputs": [
        {
          "internalType": "uint256",
          "name": "",
          "type": "uint256"
        }
      ],
      "stateMutability": "view",
      "type": "function"
    },
    {
      "inputs": [],
      "name": "accumulatedFeesMnt",
      "outputs": [
        {
          "internalType": "uint256",
          "name": "",
          "type": "uint256"
        }
      ],
      "stateMutability": "view",
      "type": "function"
    },
    {
      "inputs": [
        {
          "internalType": "uint256",
          "name": "amountBasket",
          "type": "uint256"
        }
      ],
      "name": "addLiquidity",
      "outputs": [
        {
          "internalType": "uint256",
          "name": "shares",
          "type": "uint256"
        }
      ],
      "stateMutability": "payable",
      "type": "function"
    },
    {
      "inputs": [],
      "name": "basketId",
      "outputs": [
        {
          "internalType": "uint256",
          "name": "",
          "type": "uint256"
        }
      ],
      "stateMutability": "view",
      "type": "function"
    },
    {
      "inputs": [],
      "name": "basketToken",
      "outputs": [
        {
          "internalType": "contract EquiBasketToken",
          "name": "",
          "type": "address"
        }
      ],
      "stateMutability": "view",
      "type": "function"
    },
    {
      "inputs": [],
      "name": "basketTokenBalance",
      "outputs": [
        {
          "internalType": "uint256",
          "name": "",
          "type": "uint256"
        }
      ],
      "stateMutability": "view",
      "type": "function"
    },
    {
      "inputs": [],
      "name": "collectFees",
      "outputs": [],
      "stateMutability": "nonpayable",
      "type": "function"
    },
    {
      "inputs": [],
      "name": "getOracleBasketPrice",
      "outputs": [
        {
          "internalType": "uint256",
          "name": "",
          "type": "uint256"
        }
      ],
      "stateMutability": "view",
      "type": "function"
    },
    {
      "inputs": [],
      "name": "getOracleMntPrice",
      "outputs": [
        {
          "internalType": "uint256",
          "name": "",
          "type": "uint256"
        }
      ],
      "stateMutability": "view",
      "type": "function"
    },
    {
      "inputs": [],
      "name": "getReserves",
      "outputs": [
        {
          "internalType": "uint256",
          "name": "mntReserve",
          "type": "uint256"
        },
        {
          "internalType": "uint256",
          "name": "basketReserve",
          "type": "uint256"
        }
      ],
      "stateMutability": "view",
      "type": "function"
    },
    {
      "inputs": [
        {
          "internalType": "address",
          "name": "account",
          "type": "address"
        }
      ],
      "name": "getShares",
      "outputs": [
        {
          "internalType": "uint256",
          "name": "",
          "type": "uint256"
        }
      ],
      "stateMutability": "view",
      "type": "function"
    },
    {
      "inputs": [
        {
          "internalType": "address",
          "name": "",
          "type": "address"
        }
      ],
      "name": "lpShares",
      "outputs": [
        {
          "internalType": "uint256",
          "name": "",
          "type": "uint256"
        }
      ],
      "stateMutability": "view",
      "type": "function"
    },
    {
      "inputs": [],
      "name": "mntBalance",
      "outputs": [
        {
          "internalType": "uint256",
          "name": "",
          "type": "uint256"
        }
      ],
      "stateMutability": "view",
      "type": "function"
    },
    {
      "inputs": [],
      "name": "oracle",
      "outputs": [
        {
          "internalType": "contract BasketOracle",
          "name": "",
          "type": "address"
        }
      ],
      "stateMutability": "view",
      "type": "function"
    },
    {
      "inputs": [],
      "name": "owner",
      "outputs": [
        {
          "internalType": "address",
          "name": "",
          "type": "address"
        }
      ],
      "stateMutability": "view",
      "type": "function"
    },
    {
      "inputs": [
        {
          "internalType": "uint256",
          "name": "amountBasketIn",
          "type": "uint256"
        }
      ],
      "name": "previewSwapBasketForMnt",
      "outputs": [
        {
          "internalType": "uint256",
          "name": "amountMntOut",
          "type": "uint256"
        },
        {
          "internalType": "uint256",
          "name": "fee",
          "type": "uint256"
        }
      ],
      "stateMutability": "view",
      "type": "function"
    },
    {
      "inputs": [
        {
          "internalType": "uint256",
          "name": "amountMntIn",
          "type": "uint256"
        }
      ],
      "name": "previewSwapMntForBasket",
      "outputs": [
        {
          "internalType": "uint256",
          "name": "amountBasketOut",
          "type": "uint256"
        },
        {
          "internalType": "uint256",
          "name": "fee",
          "type": "uint256"
        }
      ],
      "stateMutability": "view",
      "type": "function"
    },
    {
      "inputs": [
        {
          "internalType": "uint256",
          "name": "sharesToBurn",
          "type": "uint256"
        }
      ],
      "name": "removeLiquidity",
      "outputs": [
        {
          "internalType": "uint256",
          "name": "mntOut",
          "type": "uint256"
        },
        {
          "internalType": "uint256",
          "name": "basketOut",
          "type": "uint256"
        }
      ],
      "stateMutability": "nonpayable",
      "type": "function"
    },
    {
      "inputs": [],
      "name": "renounceOwnership",
      "outputs": [],
      "stateMutability": "nonpayable",
      "type": "function"
    },
    {
      "inputs": [
        {
          "internalType": "uint256",
          "name": "_newFeeBps",
          "type": "uint256"
        }
      ],
      "name": "setSwapFee",
      "outputs": [],
      "stateMutability": "nonpayable",
      "type": "function"
    },
    {
      "inputs": [
        {
          "internalType": "uint256",
          "name": "amountBasketIn",
          "type": "uint256"
        }
      ],
      "name": "swapBasketForMnt",
      "outputs": [
        {
          "internalType": "uint256",
          "name": "amountMntOut",
          "type": "uint256"
        }
      ],
      "stateMutability": "nonpayable",
      "type": "function"
    },
    {
      "inputs": [],
      "name": "swapFeeBps",
      "outputs": [
        {
          "internalType": "uint256",
          "name": "",
          "type": "uint256"
        }
      ],
      "stateMutability": "view",
      "type": "function"
    },
    {
      "inputs": [],
      "name": "swapMntForBasket",
      "outputs": [
        {
          "internalType": "uint256",
          "name": "amountBasketOut",
          "type": "uint256"
        }
      ],
      "stateMutability": "payable",
      "type": "function"
    },
    {
      "inputs": [],
      "name": "totalShares",
      "outputs": [
        {
          "internalType": "uint256",
          "name": "",
          "type": "uint256"
        }
      ],
      "stateMutability": "view",
      "type": "function"
    },
    {
      "inputs": [
        {
          "internalType": "address",
          "name": "newOwner",
          "type": "address"
        }
      ],
      "name": "transferOwnership",
      "outputs": [],
      "stateMutability": "nonpayable",
      "type": "function"
    },
    {
      "stateMutability": "payable",
      "type": "receive"
    }
  ],
  "transactionHash": "0x2cfb9513046f0c048ec5283bca11a51dd89127441e873103022ba11bd5ac6687",
  "args": [
    "0x43504F9a6f2c37DFc822365ce139b053A058D7d4",
    "0xc0c575bD5D58f9f19C84a2EEB911FcAbd38654c8",
    "9",
    30
  ],
  "numDeployments": 2,
  "solcInputHash": "8783c983add982d47e5df5217d795d9f",
  "bytecode": "0x60e06040523480156200001157600080fd5b5060405162001d0938038062001d09833981016040819052620000349162000170565b33806200005b57604051631e4fbdf760e01b81526000600482015260240160405180910390fd5b620000668162000103565b50600180556001600160a01b038416620000935760405163d92e233d60e01b815260040160405180910390fd5b6001600160a01b038316620000bb5760405163d92e233d60e01b815260040160405180910390fd5b6103e8811115620000df5760405163cd4e616760e01b815260040160405180910390fd5b6001600160a01b039384166080529190921660a05260c091909152600455620001b8565b600080546001600160a01b038381166001600160a01b0319831681178455604051919092169283917f8be0079c531659141344cd1fd0a4f28419497f9722a3daafe3b4186f6b6457e09190a35050565b80516001600160a01b03811681146200016b57600080fd5b919050565b600080600080608085870312156200018757600080fd5b620001928562000153565b9350620001a26020860162000153565b6040860151606090960151949790965092505050565b60805160a05160c051611a796200029060003960008181610242015281816104ab015281816105b80152818161098801528181610c7a0152818161103a015261145b0152600081816102c0015281816104d4015281816105e10152818161067801528181610906015281816109bc01528181610a5c01528181610c0f01528181610caf01528181610d3e01528181611063015281816110dc015281816114900152611501015260008181610464015281816107920152818161087401528181610f88015281816111fb01526113e80152611a796000f3fe60806040526004361061016a5760003560e01c80638da5cb5b116100d1578063c87965721161008a578063f04da65b11610064578063f04da65b146103fc578063f2fde38b14610432578063f51ebfe214610452578063f9b722501461048657600080fd5b8063c8796572146103b1578063cd2228e0146103c6578063d4ce1c6a146103e657600080fd5b80638da5cb5b146102fa5780639c8f9f23146103185780639df742f914610338578063c109a6dc1461034e578063c2ee66d91461037b578063c672e4251461039157600080fd5b806351c6590a1161012357806351c6590a1461021d57806362afa77214610230578063715018a614610264578063787190201461027957806379f3057d1461028e5780637dc0d1d0146102ae57600080fd5b80630902f1ac1461017657806313fb7471146101a45780632ffdaf89146101c757806334e19907146101dd5780633a98ef39146101ff578063413ad7521461021557600080fd5b3661017157005b600080fd5b34801561018257600080fd5b506002546003545b604080519283526020830191909152015b60405180910390f35b3480156101b057600080fd5b506101b961049c565b60405190815260200161019b565b3480156101d357600080fd5b506101b960045481565b3480156101e957600080fd5b506101fd6101f8366004611922565b61054c565b005b34801561020b57600080fd5b506101b960085481565b6101b961057c565b6101b961022b366004611922565b61082c565b34801561023c57600080fd5b506101b97f000000000000000000000000000000000000000000000000000000000000000081565b34801561027057600080fd5b506101fd610bf7565b34801561028557600080fd5b506101b9610c0b565b34801561029a57600080fd5b5061018a6102a9366004611922565b610c6b565b3480156102ba57600080fd5b506102e27f000000000000000000000000000000000000000000000000000000000000000081565b6040516001600160a01b03909116815260200161019b565b34801561030657600080fd5b506000546001600160a01b03166102e2565b34801561032457600080fd5b5061018a610333366004611922565b610dfd565b34801561034457600080fd5b506101b960065481565b34801561035a57600080fd5b506101b961036936600461193b565b60076020526000908152604090205481565b34801561038757600080fd5b506101b960035481565b34801561039d57600080fd5b506101b96103ac366004611922565b611000565b3480156103bd57600080fd5b506101fd61132d565b3480156103d257600080fd5b5061018a6103e1366004611922565b61144c565b3480156103f257600080fd5b506101b960025481565b34801561040857600080fd5b506101b961041736600461193b565b6001600160a01b031660009081526007602052604090205490565b34801561043e57600080fd5b506101fd61044d36600461193b565b6115f7565b34801561045e57600080fd5b506102e27f000000000000000000000000000000000000000000000000000000000000000081565b34801561049257600080fd5b506101b960055481565b60405163d8435ec360e01b81527f000000000000000000000000000000000000000000000000000000000000000060048201526000907f00000000000000000000000000000000000000000000000000000000000000006001600160a01b03169063d8435ec390602401602060405180830381865afa158015610523573d6000803e3d6000fd5b505050506040513d601f19601f820116820180604052508101906105479190611964565b905090565b61055461163a565b6103e88111156105775760405163cd4e616760e01b815260040160405180910390fd5b600455565b6000610586611667565b3460008190036105a95760405163162908e360e11b815260040160405180910390fd5b60405163d8435ec360e01b81527f000000000000000000000000000000000000000000000000000000000000000060048201526000907f00000000000000000000000000000000000000000000000000000000000000006001600160a01b03169063d8435ec390602401602060405180830381865afa158015610630573d6000803e3d6000fd5b505050506040513d601f19601f820116820180604052508101906106549190611964565b60405163136e035160e01b8152600481018490529091506000906001600160a01b037f0000000000000000000000000000000000000000000000000000000000000000169063136e035190602401602060405180830381865afa1580156106bf573d6000803e3d6000fd5b505050506040513d601f19601f820116820180604052508101906106e39190611964565b90506000826106fa83670de0b6b3a7640000611993565b61070491906119aa565b90506000612710600454836107199190611993565b61072391906119aa565b905061072f81836119cc565b95506003548611156107545760405163103d09cb60e01b815260040160405180910390fd5b846002600082825461076691906119df565b92505081905550856003600082825461077f91906119cc565b909155506107b990506001600160a01b037f0000000000000000000000000000000000000000000000000000000000000000163388611691565b80600660008282546107cb91906119df565b90915550506040805160018152602081018790529081018790526060810182905233907f176648f1f11cda284c124490086be42a926ddf0ae887ebe7b1d6b337d89427569060800160405180910390a2505050505061082960018055565b90565b6000610836611667565b3480158015610843575082155b156108615760405163162908e360e11b815260040160405180910390fd5b82156108b45761089c6001600160a01b037f0000000000000000000000000000000000000000000000000000000000000000163330866116f5565b82600360008282546108ae91906119df565b90915550505b80156108d25780600260008282546108cc91906119df565b90915550505b6008546000036108ed576108e683826119df565b9150610b68565b60405163136e035160e01b8152600481018290526000907f00000000000000000000000000000000000000000000000000000000000000006001600160a01b03169063136e035190602401602060405180830381865afa158015610955573d6000803e3d6000fd5b505050506040513d601f19601f820116820180604052508101906109799190611964565b60405163d8435ec360e01b81527f000000000000000000000000000000000000000000000000000000000000000060048201529091506000906001600160a01b037f0000000000000000000000000000000000000000000000000000000000000000169063d8435ec390602401602060405180830381865afa158015610a03573d6000803e3d6000fd5b505050506040513d601f19601f82011682018060405250810190610a279190611964565b90506000670de0b6b3a7640000610a3e8388611993565b610a4891906119aa565b90506000610a5682856119df565b905060007f00000000000000000000000000000000000000000000000000000000000000006001600160a01b031663136e035187600254610a9791906119cc565b6040518263ffffffff1660e01b8152600401610ab591815260200190565b602060405180830381865afa158015610ad2573d6000803e3d6000fd5b505050506040513d601f19601f82011682018060405250810190610af69190611964565b90506000670de0b6b3a7640000858a600354610b1291906119cc565b610b1c9190611993565b610b2691906119aa565b90506000610b3482846119df565b90508015610b5c578060085485610b4b9190611993565b610b5591906119aa565b9850610b60565b8398505b505050505050505b3360009081526007602052604081208054849290610b879084906119df565b925050819055508160086000828254610ba091906119df565b9091555050604080518281526020810185905290810183905233907f64b83944e79c3ce8d4c297411de637c3e102d064677aac0c163976ebdcd6f50e9060600160405180910390a250610bf260018055565b919050565b610bff61163a565b610c096000611734565b565b60007f00000000000000000000000000000000000000000000000000000000000000006001600160a01b031663a79ed0656040518163ffffffff1660e01b8152600401602060405180830381865afa158015610523573d6000803e3d6000fd5b60405163d8435ec360e01b81527f00000000000000000000000000000000000000000000000000000000000000006004820152600090819081906001600160a01b037f0000000000000000000000000000000000000000000000000000000000000000169063d8435ec390602401602060405180830381865afa158015610cf6573d6000803e3d6000fd5b505050506040513d601f19601f82011682018060405250810190610d1a9190611964565b60405163136e035160e01b8152600481018690529091506000906001600160a01b037f0000000000000000000000000000000000000000000000000000000000000000169063136e035190602401602060405180830381865afa158015610d85573d6000803e3d6000fd5b505050506040513d601f19601f82011682018060405250810190610da99190611964565b9050600082610dc083670de0b6b3a7640000611993565b610dca91906119aa565b905061271060045482610ddd9190611993565b610de791906119aa565b9350610df384826119cc565b9450505050915091565b600080610e08611667565b82600003610e295760405163162908e360e11b815260040160405180910390fd5b33600090815260076020526040902054831115610e5957604051636edcc52360e01b815260040160405180910390fd5b600854600254610e699085611993565b610e7391906119aa565b915060085460035484610e869190611993565b610e9091906119aa565b33600090815260076020526040812080549293508592909190610eb49084906119cc565b925050819055508260086000828254610ecd91906119cc565b925050819055508160026000828254610ee691906119cc565b925050819055508060036000828254610eff91906119cc565b90915550508115610f7557604051600090339084908381818185875af1925050503d8060008114610f4c576040519150601f19603f3d011682016040523d82523d6000602084013e610f51565b606091505b5050905080610f73576040516312171d8360e31b815260040160405180910390fd5b505b8015610faf57610faf6001600160a01b037f0000000000000000000000000000000000000000000000000000000000000000163383611691565b604080518381526020810183905290810184905233907f1dc8bb69df2b8e91fbdcbfcf93d951b3f0000f085a95fe3f7946d6161439245d9060600160405180910390a2610ffb60018055565b915091565b600061100a611667565b8160000361102b5760405163162908e360e11b815260040160405180910390fd5b60405163d8435ec360e01b81527f000000000000000000000000000000000000000000000000000000000000000060048201526000907f00000000000000000000000000000000000000000000000000000000000000006001600160a01b03169063d8435ec390602401602060405180830381865afa1580156110b2573d6000803e3d6000fd5b505050506040513d601f19601f820116820180604052508101906110d69190611964565b905060007f00000000000000000000000000000000000000000000000000000000000000006001600160a01b031663a79ed0656040518163ffffffff1660e01b8152600401602060405180830381865afa158015611138573d6000803e3d6000fd5b505050506040513d601f19601f8201168201806040525081019061115c9190611964565b90506000670de0b6b3a76400006111738487611993565b61117d91906119aa565b905060008261119483670de0b6b3a7640000611993565b61119e91906119aa565b90506000612710600454836111b39190611993565b6111bd91906119aa565b90506111c981836119cc565b95506002548611156111ee57604051634a807f4360e01b815260040160405180910390fd5b6112236001600160a01b037f00000000000000000000000000000000000000000000000000000000000000001633308a6116f5565b866003600082825461123591906119df565b92505081905550856002600082825461124e91906119cc565b9091555050604051600090339088908381818185875af1925050503d8060008114611295576040519150601f19603f3d011682016040523d82523d6000602084013e61129a565b606091505b50509050806112bc576040516312171d8360e31b815260040160405180910390fd5b81600560008282546112ce91906119df565b90915550506040805160008152602081018a90529081018890526060810183905233907f176648f1f11cda284c124490086be42a926ddf0ae887ebe7b1d6b337d89427569060800160405180910390a2505050505050610bf260018055565b61133561163a565b60058054600680546000938490559290559081156113c357600080546040516001600160a01b039091169084908381818185875af1925050503d806000811461139a576040519150601f19603f3d011682016040523d82523d6000602084013e61139f565b606091505b50509050806113c1576040516312171d8360e31b815260040160405180910390fd5b505b801561140f5761140f6113de6000546001600160a01b031690565b6001600160a01b037f0000000000000000000000000000000000000000000000000000000000000000169083611691565b60408051838152602081018390527f49d512bf9cb224241c05691e73eb9fab078cf350c7dbcbcf66788f1fc0cc8b0b910160405180910390a15050565b60405163d8435ec360e01b81527f00000000000000000000000000000000000000000000000000000000000000006004820152600090819081906001600160a01b037f0000000000000000000000000000000000000000000000000000000000000000169063d8435ec390602401602060405180830381865afa1580156114d7573d6000803e3d6000fd5b505050506040513d601f19601f820116820180604052508101906114fb9190611964565b905060007f00000000000000000000000000000000000000000000000000000000000000006001600160a01b031663a79ed0656040518163ffffffff1660e01b8152600401602060405180830381865afa15801561155d573d6000803e3d6000fd5b505050506040513d601f19601f820116820180604052508101906115819190611964565b90506000670de0b6b3a76400006115988488611993565b6115a291906119aa565b90506000826115b983670de0b6b3a7640000611993565b6115c391906119aa565b9050612710600454826115d69190611993565b6115e091906119aa565b94506115ec85826119cc565b955050505050915091565b6115ff61163a565b6001600160a01b03811661162e57604051631e4fbdf760e01b8152600060048201526024015b60405180910390fd5b61163781611734565b50565b6000546001600160a01b03163314610c095760405163118cdaa760e01b8152336004820152602401611625565b60026001540361168a57604051633ee5aeb560e01b815260040160405180910390fd5b6002600155565b6040516001600160a01b038381166024830152604482018390526116f091859182169063a9059cbb906064015b604051602081830303815290604052915060e01b6020820180516001600160e01b038381831617835250505050611784565b505050565b6040516001600160a01b03848116602483015283811660448301526064820183905261172e9186918216906323b872dd906084016116be565b50505050565b600080546001600160a01b038381166001600160a01b0319831681178455604051919092169283917f8be0079c531659141344cd1fd0a4f28419497f9722a3daafe3b4186f6b6457e09190a35050565b60006117996001600160a01b038416836117e7565b905080516000141580156117be5750808060200190518101906117bc91906119f2565b155b156116f057604051635274afe760e01b81526001600160a01b0384166004820152602401611625565b60606117f5838360006117fe565b90505b92915050565b6060814710156118235760405163cd78605960e01b8152306004820152602401611625565b600080856001600160a01b0316848660405161183f9190611a14565b60006040518083038185875af1925050503d806000811461187c576040519150601f19603f3d011682016040523d82523d6000602084013e611881565b606091505b509150915061189186838361189d565b925050505b9392505050565b6060826118b2576118ad826118f9565b611896565b81511580156118c957506001600160a01b0384163b155b156118f257604051639996b31560e01b81526001600160a01b0385166004820152602401611625565b5080611896565b8051156119095780518082602001fd5b604051630a12f52160e11b815260040160405180910390fd5b60006020828403121561193457600080fd5b5035919050565b60006020828403121561194d57600080fd5b81356001600160a01b038116811461189657600080fd5b60006020828403121561197657600080fd5b5051919050565b634e487b7160e01b600052601160045260246000fd5b80820281158282048414176117f8576117f861197d565b6000826119c757634e487b7160e01b600052601260045260246000fd5b500490565b818103818111156117f8576117f861197d565b808201808211156117f8576117f861197d565b600060208284031215611a0457600080fd5b8151801515811461189657600080fd5b6000825160005b81811015611a355760208186018101518583015201611a1b565b50600092019182525091905056fea2646970667358221220be1278db6cd93454720d2b31dd446985f6815ba78039e6a1a8350df46c21c11464736f6c63430008140033",
  "devdoc": {
    "details": "This pool uses oracle-based pricing instead of AMM math.      Uses NATIVE MNT (msg.value) instead of ERC20 MNT for simplicity.      Key characteristics:      - Each pool handles one basket token paired with native MNT      - Swaps are priced using BasketOracle.getBasketPrice()      - No slippage from pool ratio changes (oracle-priced)      - Liquidity providers deposit both native MNT and basket tokens",
    "errors": {
      "AddressEmptyCode(address)": [
        {
          "details": "There's no code at `target` (it is not a contract)."
        }
      ],
      "AddressInsufficientBalance(address)": [
        {
          "details": "The ETH balance of the account is not enough to perform the operation."
        }
      ],
      "FailedInnerCall()": [
        {
          "details": "A call to an address target failed. The target may have reverted."
        }
      ],
      "OwnableInvalidOwner(address)": [
        {
          "details": "The owner is not a valid owner account. (eg. `address(0)`)"
        }
      ],
      "OwnableUnauthorizedAccount(address)": [
        {
          "details": "The caller account is not authorized to perform an operation."
        }
      ],
      "ReentrancyGuardReentrantCall()": [
        {
          "details": "Unauthorized reentrant call."
        }
      ],
      "SafeERC20FailedOperation(address)": [
        {
          "details": "An operation with an ERC20 token failed."
        }
      ]
    },
    "kind": "dev",
    "methods": {
      "addLiquidity(uint256)": {
        "details": "Send native MNT via msg.value, basket tokens via approval",
        "params": {
          "amountBasket": "Amount of basket tokens to deposit"
        },
        "returns": {
          "shares": "LP shares received"
        }
      },
      "constructor": {
        "params": {
          "_basketId": "The basket ID this pool trades",
          "_basketToken": "Address of the basket token",
          "_oracle": "Address of the basket oracle",
          "_swapFeeBps": "Swap fee in basis points (e.g., 30 = 0.30%)"
        }
      },
      "getOracleBasketPrice()": {
        "returns": {
          "_0": "Basket price in USD (1e18 format)"
        }
      },
      "getOracleMntPrice()": {
        "returns": {
          "_0": "MNT/USD price in 1e18 format"
        }
      },
      "getReserves()": {
        "returns": {
          "basketReserve": "Basket token balance",
          "mntReserve": "MNT balance"
        }
      },
      "getShares(address)": {
        "params": {
          "account": "Address to query"
        },
        "returns": {
          "_0": "Share balance"
        }
      },
      "owner()": {
        "details": "Returns the address of the current owner."
      },
      "previewSwapBasketForMnt(uint256)": {
        "params": {
          "amountBasketIn": "Amount of basket tokens to sell"
        },
        "returns": {
          "amountMntOut": "Expected MNT",
          "fee": "Fee in MNT"
        }
      },
      "previewSwapMntForBasket(uint256)": {
        "params": {
          "amountMntIn": "Amount of MNT to sell"
        },
        "returns": {
          "amountBasketOut": "Expected basket tokens",
          "fee": "Fee in basket tokens"
        }
      },
      "removeLiquidity(uint256)": {
        "params": {
          "sharesToBurn": "Amount of LP shares to burn"
        },
        "returns": {
          "basketOut": "Basket tokens received",
          "mntOut": "MNT received"
        }
      },
      "renounceOwnership()": {
        "details": "Leaves the contract without owner. It will not be possible to call `onlyOwner` functions. Can only be called by the current owner. NOTE: Renouncing ownership will leave the contract without an owner, thereby disabling any functionality that is only available to the owner."
      },
      "setSwapFee(uint256)": {
        "params": {
          "_newFeeBps": "New fee in basis points"
        }
      },
      "swapBasketForMnt(uint256)": {
        "params": {
          "amountBasketIn": "Amount of basket tokens to sell"
        },
        "returns": {
          "amountMntOut": "MNT received"
        }
      },
      "swapMntForBasket()": {
        "details": "Send MNT via msg.value",
        "returns": {
          "amountBasketOut": "Basket tokens received"
        }
      },
      "transferOwnership(address)": {
        "details": "Transfers ownership of the contract to a new account (`newOwner`). Can only be called by the current owner."
      }
    },
    "title": "BasketLiquidityPool",
    "version": 1
  },
  "userdoc": {
    "events": {
      "FeesCollected(uint256,uint256)": {
        "notice": "Emitted when fees are collected by owner"
      },
      "LiquidityAdded(address,uint256,uint256,uint256)": {
        "notice": "Emitted when liquidity is added"
      },
      "LiquidityRemoved(address,uint256,uint256,uint256)": {
        "notice": "Emitted when liquidity is removed"
      },
      "Swap(address,bool,uint256,uint256,uint256)": {
        "notice": "Emitted when a swap occurs"
      }
    },
    "kind": "user",
    "methods": {
      "accumulatedFeesBasket()": {
        "notice": "Accumulated fees in basket tokens"
      },
      "accumulatedFeesMnt()": {
        "notice": "Accumulated fees in MNT"
      },
      "addLiquidity(uint256)": {
        "notice": "Add liquidity to the pool"
      },
      "basketId()": {
        "notice": "Basket ID this pool trades"
      },
      "basketToken()": {
        "notice": "Basket token for this pool"
      },
      "basketTokenBalance()": {
        "notice": "Basket token balance in the pool"
      },
      "collectFees()": {
        "notice": "Collect accumulated fees"
      },
      "constructor": {
        "notice": "Initialize the liquidity pool"
      },
      "getOracleBasketPrice()": {
        "notice": "Get the current basket price from oracle"
      },
      "getOracleMntPrice()": {
        "notice": "Get the current MNT price from oracle"
      },
      "getReserves()": {
        "notice": "Get pool reserves"
      },
      "getShares(address)": {
        "notice": "Get LP share balance"
      },
      "lpShares(address)": {
        "notice": "Liquidity provider shares: address => share amount"
      },
      "mntBalance()": {
        "notice": "MNT balance in the pool (native MNT)"
      },
      "oracle()": {
        "notice": "Oracle for pricing"
      },
      "previewSwapBasketForMnt(uint256)": {
        "notice": "Preview swap basket tokens for MNT"
      },
      "previewSwapMntForBasket(uint256)": {
        "notice": "Preview swap MNT for basket tokens"
      },
      "removeLiquidity(uint256)": {
        "notice": "Remove liquidity from the pool"
      },
      "setSwapFee(uint256)": {
        "notice": "Set the swap fee"
      },
      "swapBasketForMnt(uint256)": {
        "notice": "Swap basket tokens for native MNT using oracle price"
      },
      "swapFeeBps()": {
        "notice": "Swap fee in basis points (e.g., 30 = 0.30%)"
      },
      "swapMntForBasket()": {
        "notice": "Swap native MNT for basket tokens using oracle price"
      },
      "totalShares()": {
        "notice": "Total LP shares"
      }
    },
    "notice": "Liquidity pool for trading NATIVE MNT  BasketToken pairs",
    "version": 1
  },
  "storageLayout": {
    "storage": [
      {
        "astId": 8,
        "contract": "contracts/BasketLiquidityPool.sol:BasketLiquidityPool",
        "label": "_owner",
        "offset": 0,
        "slot": "0",
        "type": "t_address"
      },
      {
        "astId": 1523,
        "contract": "contracts/BasketLiquidityPool.sol:BasketLiquidityPool",
        "label": "_status",
        "offset": 0,
        "slot": "1",
        "type": "t_uint256"
      },
      {
        "astId": 1612,
        "contract": "contracts/BasketLiquidityPool.sol:BasketLiquidityPool",
        "label": "mntBalance",
        "offset": 0,
        "slot": "2",
        "type": "t_uint256"
      },
      {
        "astId": 1615,
        "contract": "contracts/BasketLiquidityPool.sol:BasketLiquidityPool",
        "label": "basketTokenBalance",
        "offset": 0,
        "slot": "3",
        "type": "t_uint256"
      },
      {
        "astId": 1618,
        "contract": "contracts/BasketLiquidityPool.sol:BasketLiquidityPool",
        "label": "swapFeeBps",
        "offset": 0,
        "slot": "4",
        "type": "t_uint256"
      },
      {
        "astId": 1621,
        "contract": "contracts/BasketLiquidityPool.sol:BasketLiquidityPool",
        "label": "accumulatedFeesMnt",
        "offset": 0,
        "slot": "5",
        "type": "t_uint256"
      },
      {
        "astId": 1624,
        "contract": "contracts/BasketLiquidityPool.sol:BasketLiquidityPool",
        "label": "accumulatedFeesBasket",
        "offset": 0,
        "slot": "6",
        "type": "t_uint256"
      },
      {
        "astId": 1629,
        "contract": "contracts/BasketLiquidityPool.sol:BasketLiquidityPool",
        "label": "lpShares",
        "offset": 0,
        "slot": "7",
        "type": "t_mapping(t_address,t_uint256)"
      },
      {
        "astId": 1632,
        "contract": "contracts/BasketLiquidityPool.sol:BasketLiquidityPool",
        "label": "totalShares",
        "offset": 0,
        "slot": "8",
        "type": "t_uint256"
      }
    ],
    "types": {
      "t_address": {
        "encoding": "inplace",
        "label": "address",
        "numberOfBytes": "20"
      },
      "t_mapping(t_address,t_uint256)": {
        "encoding": "mapping",
        "key": "t_address",
        "label": "mapping(address => uint256)",
        "numberOfBytes": "32",
        "value": "t_uint256"
      },
      "t_uint256": {
        "encoding": "inplace",
        "label": "uint256",
        "numberOfBytes": "32"
      }
    }
  }
}