{
  "address": "0xF43Ac9b9b768c3080559e52D0d33FA0234D9C686",
  "abi": [
    {
      "inputs": [
        {
          "internalType": "address",
          "name": "_basketRegistry",
          "type": "address"
        },
        {
          "internalType": "address",
          "name": "_basketOracle",
          "type": "address"
        }
      ],
      "stateMutability": "nonpayable",
      "type": "constructor"
    },
    {
      "inputs": [],
      "name": "BasketDoesNotExist",
      "type": "error"
    },
    {
      "inputs": [],
      "name": "BasketNotActive",
      "type": "error"
    },
    {
      "inputs": [],
      "name": "BasketTokenAlreadyRegistered",
      "type": "error"
    },
    {
      "inputs": [],
      "name": "BasketTokenNotRegistered",
      "type": "error"
    },
    {
      "inputs": [],
      "name": "CollateralRatioTooLow",
      "type": "error"
    },
    {
      "inputs": [],
      "name": "InsufficientCollateral",
      "type": "error"
    },
    {
      "inputs": [],
      "name": "InsufficientDebt",
      "type": "error"
    },
    {
      "inputs": [],
      "name": "InvalidAmount",
      "type": "error"
    },
    {
      "inputs": [],
      "name": "NoDebtToLiquidate",
      "type": "error"
    },
    {
      "inputs": [],
      "name": "NotAuthorizedLiquidator",
      "type": "error"
    },
    {
      "inputs": [
        {
          "internalType": "address",
          "name": "owner",
          "type": "address"
        }
      ],
      "name": "OwnableInvalidOwner",
      "type": "error"
    },
    {
      "inputs": [
        {
          "internalType": "address",
          "name": "account",
          "type": "address"
        }
      ],
      "name": "OwnableUnauthorizedAccount",
      "type": "error"
    },
    {
      "inputs": [],
      "name": "PositionNotLiquidatable",
      "type": "error"
    },
    {
      "inputs": [],
      "name": "ReentrancyGuardReentrantCall",
      "type": "error"
    },
    {
      "inputs": [],
      "name": "TransferFailed",
      "type": "error"
    },
    {
      "inputs": [],
      "name": "ZeroAddress",
      "type": "error"
    },
    {
      "anonymous": false,
      "inputs": [
        {
          "indexed": true,
          "internalType": "address",
          "name": "user",
          "type": "address"
        },
        {
          "indexed": true,
          "internalType": "uint256",
          "name": "basketId",
          "type": "uint256"
        },
        {
          "indexed": false,
          "internalType": "uint256",
          "name": "amount",
          "type": "uint256"
        },
        {
          "indexed": false,
          "internalType": "uint256",
          "name": "newTotalDebt",
          "type": "uint256"
        }
      ],
      "name": "BasketBurned",
      "type": "event"
    },
    {
      "anonymous": false,
      "inputs": [
        {
          "indexed": true,
          "internalType": "address",
          "name": "user",
          "type": "address"
        },
        {
          "indexed": true,
          "internalType": "uint256",
          "name": "basketId",
          "type": "uint256"
        },
        {
          "indexed": false,
          "internalType": "uint256",
          "name": "amount",
          "type": "uint256"
        },
        {
          "indexed": false,
          "internalType": "uint256",
          "name": "newTotalDebt",
          "type": "uint256"
        }
      ],
      "name": "BasketMinted",
      "type": "event"
    },
    {
      "anonymous": false,
      "inputs": [
        {
          "indexed": true,
          "internalType": "uint256",
          "name": "basketId",
          "type": "uint256"
        },
        {
          "indexed": false,
          "internalType": "address",
          "name": "tokenAddress",
          "type": "address"
        }
      ],
      "name": "BasketTokenRegistered",
      "type": "event"
    },
    {
      "anonymous": false,
      "inputs": [
        {
          "indexed": true,
          "internalType": "address",
          "name": "user",
          "type": "address"
        },
        {
          "indexed": true,
          "internalType": "uint256",
          "name": "basketId",
          "type": "uint256"
        },
        {
          "indexed": false,
          "internalType": "uint256",
          "name": "amount",
          "type": "uint256"
        },
        {
          "indexed": false,
          "internalType": "uint256",
          "name": "newTotalCollateral",
          "type": "uint256"
        }
      ],
      "name": "CollateralDeposited",
      "type": "event"
    },
    {
      "anonymous": false,
      "inputs": [
        {
          "indexed": true,
          "internalType": "address",
          "name": "user",
          "type": "address"
        },
        {
          "indexed": true,
          "internalType": "uint256",
          "name": "basketId",
          "type": "uint256"
        },
        {
          "indexed": false,
          "internalType": "uint256",
          "name": "amount",
          "type": "uint256"
        },
        {
          "indexed": false,
          "internalType": "uint256",
          "name": "newTotalCollateral",
          "type": "uint256"
        }
      ],
      "name": "CollateralWithdrawn",
      "type": "event"
    },
    {
      "anonymous": false,
      "inputs": [
        {
          "indexed": false,
          "internalType": "address",
          "name": "factory",
          "type": "address"
        }
      ],
      "name": "FactoryUpdated",
      "type": "event"
    },
    {
      "anonymous": false,
      "inputs": [
        {
          "indexed": true,
          "internalType": "address",
          "name": "user",
          "type": "address"
        },
        {
          "indexed": true,
          "internalType": "uint256",
          "name": "basketId",
          "type": "uint256"
        },
        {
          "indexed": true,
          "internalType": "address",
          "name": "liquidator",
          "type": "address"
        },
        {
          "indexed": false,
          "internalType": "uint256",
          "name": "debtRepaid",
          "type": "uint256"
        },
        {
          "indexed": false,
          "internalType": "uint256",
          "name": "collateralSeized",
          "type": "uint256"
        }
      ],
      "name": "Liquidated",
      "type": "event"
    },
    {
      "anonymous": false,
      "inputs": [
        {
          "indexed": false,
          "internalType": "address",
          "name": "oldLiquidator",
          "type": "address"
        },
        {
          "indexed": false,
          "internalType": "address",
          "name": "newLiquidator",
          "type": "address"
        }
      ],
      "name": "LiquidatorUpdated",
      "type": "event"
    },
    {
      "anonymous": false,
      "inputs": [
        {
          "indexed": false,
          "internalType": "address",
          "name": "oldOracle",
          "type": "address"
        },
        {
          "indexed": false,
          "internalType": "address",
          "name": "newOracle",
          "type": "address"
        }
      ],
      "name": "OracleUpdated",
      "type": "event"
    },
    {
      "anonymous": false,
      "inputs": [
        {
          "indexed": true,
          "internalType": "address",
          "name": "previousOwner",
          "type": "address"
        },
        {
          "indexed": true,
          "internalType": "address",
          "name": "newOwner",
          "type": "address"
        }
      ],
      "name": "OwnershipTransferred",
      "type": "event"
    },
    {
      "inputs": [],
      "name": "COLLATERAL_RATIO",
      "outputs": [
        {
          "internalType": "uint256",
          "name": "",
          "type": "uint256"
        }
      ],
      "stateMutability": "view",
      "type": "function"
    },
    {
      "inputs": [],
      "name": "LIQUIDATION_PENALTY",
      "outputs": [
        {
          "internalType": "uint256",
          "name": "",
          "type": "uint256"
        }
      ],
      "stateMutability": "view",
      "type": "function"
    },
    {
      "inputs": [],
      "name": "LIQUIDATION_THRESHOLD",
      "outputs": [
        {
          "internalType": "uint256",
          "name": "",
          "type": "uint256"
        }
      ],
      "stateMutability": "view",
      "type": "function"
    },
    {
      "inputs": [],
      "name": "PRECISION",
      "outputs": [
        {
          "internalType": "uint256",
          "name": "",
          "type": "uint256"
        }
      ],
      "stateMutability": "view",
      "type": "function"
    },
    {
      "inputs": [],
      "name": "authorizedFactory",
      "outputs": [
        {
          "internalType": "address",
          "name": "",
          "type": "address"
        }
      ],
      "stateMutability": "view",
      "type": "function"
    },
    {
      "inputs": [],
      "name": "basketOracle",
      "outputs": [
        {
          "internalType": "contract BasketOracle",
          "name": "",
          "type": "address"
        }
      ],
      "stateMutability": "view",
      "type": "function"
    },
    {
      "inputs": [],
      "name": "basketRegistry",
      "outputs": [
        {
          "internalType": "contract BasketRegistry",
          "name": "",
          "type": "address"
        }
      ],
      "stateMutability": "view",
      "type": "function"
    },
    {
      "inputs": [
        {
          "internalType": "uint256",
          "name": "",
          "type": "uint256"
        }
      ],
      "name": "basketTokens",
      "outputs": [
        {
          "internalType": "contract EquiBasketToken",
          "name": "",
          "type": "address"
        }
      ],
      "stateMutability": "view",
      "type": "function"
    },
    {
      "inputs": [
        {
          "internalType": "uint256",
          "name": "basketId",
          "type": "uint256"
        },
        {
          "internalType": "uint256",
          "name": "amount",
          "type": "uint256"
        }
      ],
      "name": "burnBasket",
      "outputs": [],
      "stateMutability": "nonpayable",
      "type": "function"
    },
    {
      "inputs": [
        {
          "internalType": "uint256",
          "name": "basketId",
          "type": "uint256"
        }
      ],
      "name": "depositCollateral",
      "outputs": [],
      "stateMutability": "payable",
      "type": "function"
    },
    {
      "inputs": [
        {
          "internalType": "address",
          "name": "user",
          "type": "address"
        },
        {
          "internalType": "uint256",
          "name": "basketId",
          "type": "uint256"
        }
      ],
      "name": "getCollateralRatio",
      "outputs": [
        {
          "internalType": "uint256",
          "name": "",
          "type": "uint256"
        }
      ],
      "stateMutability": "view",
      "type": "function"
    },
    {
      "inputs": [
        {
          "internalType": "address",
          "name": "user",
          "type": "address"
        },
        {
          "internalType": "uint256",
          "name": "basketId",
          "type": "uint256"
        }
      ],
      "name": "getMaxMintable",
      "outputs": [
        {
          "internalType": "uint256",
          "name": "",
          "type": "uint256"
        }
      ],
      "stateMutability": "view",
      "type": "function"
    },
    {
      "inputs": [
        {
          "internalType": "address",
          "name": "user",
          "type": "address"
        },
        {
          "internalType": "uint256",
          "name": "basketId",
          "type": "uint256"
        }
      ],
      "name": "getUserPosition",
      "outputs": [
        {
          "components": [
            {
              "internalType": "uint256",
              "name": "collateral",
              "type": "uint256"
            },
            {
              "internalType": "uint256",
              "name": "debt",
              "type": "uint256"
            },
            {
              "internalType": "uint256",
              "name": "collateralRatio",
              "type": "uint256"
            },
            {
              "internalType": "bool",
              "name": "liquidatable",
              "type": "bool"
            }
          ],
          "internalType": "struct BasketVault.UserPositionView",
          "name": "",
          "type": "tuple"
        }
      ],
      "stateMutability": "view",
      "type": "function"
    },
    {
      "inputs": [
        {
          "internalType": "address",
          "name": "user",
          "type": "address"
        },
        {
          "internalType": "uint256",
          "name": "basketId",
          "type": "uint256"
        }
      ],
      "name": "isLiquidatable",
      "outputs": [
        {
          "internalType": "bool",
          "name": "",
          "type": "bool"
        }
      ],
      "stateMutability": "view",
      "type": "function"
    },
    {
      "inputs": [
        {
          "internalType": "address",
          "name": "user",
          "type": "address"
        },
        {
          "internalType": "uint256",
          "name": "basketId",
          "type": "uint256"
        }
      ],
      "name": "liquidate",
      "outputs": [],
      "stateMutability": "payable",
      "type": "function"
    },
    {
      "inputs": [],
      "name": "liquidator",
      "outputs": [
        {
          "internalType": "address",
          "name": "",
          "type": "address"
        }
      ],
      "stateMutability": "view",
      "type": "function"
    },
    {
      "inputs": [
        {
          "internalType": "uint256",
          "name": "basketId",
          "type": "uint256"
        },
        {
          "internalType": "uint256",
          "name": "amount",
          "type": "uint256"
        }
      ],
      "name": "mintBasket",
      "outputs": [],
      "stateMutability": "nonpayable",
      "type": "function"
    },
    {
      "inputs": [],
      "name": "owner",
      "outputs": [
        {
          "internalType": "address",
          "name": "",
          "type": "address"
        }
      ],
      "stateMutability": "view",
      "type": "function"
    },
    {
      "inputs": [
        {
          "internalType": "uint256",
          "name": "basketId",
          "type": "uint256"
        },
        {
          "internalType": "address",
          "name": "tokenAddress",
          "type": "address"
        }
      ],
      "name": "registerBasketToken",
      "outputs": [],
      "stateMutability": "nonpayable",
      "type": "function"
    },
    {
      "inputs": [],
      "name": "renounceOwnership",
      "outputs": [],
      "stateMutability": "nonpayable",
      "type": "function"
    },
    {
      "inputs": [
        {
          "internalType": "address",
          "name": "_factory",
          "type": "address"
        }
      ],
      "name": "setAuthorizedFactory",
      "outputs": [],
      "stateMutability": "nonpayable",
      "type": "function"
    },
    {
      "inputs": [
        {
          "internalType": "address",
          "name": "_liquidator",
          "type": "address"
        }
      ],
      "name": "setLiquidator",
      "outputs": [],
      "stateMutability": "nonpayable",
      "type": "function"
    },
    {
      "inputs": [
        {
          "internalType": "address",
          "name": "_newOracle",
          "type": "address"
        }
      ],
      "name": "setOracle",
      "outputs": [],
      "stateMutability": "nonpayable",
      "type": "function"
    },
    {
      "inputs": [
        {
          "internalType": "address",
          "name": "newOwner",
          "type": "address"
        }
      ],
      "name": "transferOwnership",
      "outputs": [],
      "stateMutability": "nonpayable",
      "type": "function"
    },
    {
      "inputs": [
        {
          "internalType": "address",
          "name": "",
          "type": "address"
        },
        {
          "internalType": "uint256",
          "name": "",
          "type": "uint256"
        }
      ],
      "name": "userCollateral",
      "outputs": [
        {
          "internalType": "uint256",
          "name": "",
          "type": "uint256"
        }
      ],
      "stateMutability": "view",
      "type": "function"
    },
    {
      "inputs": [
        {
          "internalType": "address",
          "name": "",
          "type": "address"
        },
        {
          "internalType": "uint256",
          "name": "",
          "type": "uint256"
        }
      ],
      "name": "userDebt",
      "outputs": [
        {
          "internalType": "uint256",
          "name": "",
          "type": "uint256"
        }
      ],
      "stateMutability": "view",
      "type": "function"
    },
    {
      "inputs": [
        {
          "internalType": "uint256",
          "name": "basketId",
          "type": "uint256"
        },
        {
          "internalType": "uint256",
          "name": "amount",
          "type": "uint256"
        }
      ],
      "name": "withdrawCollateral",
      "outputs": [],
      "stateMutability": "nonpayable",
      "type": "function"
    },
    {
      "stateMutability": "payable",
      "type": "receive"
    }
  ],
  "transactionHash": "0x8fff49a01267b5508b51bf0684fbedb87a3e962af37c1c59eb7f55782ecdc54b",
  "args": [
    "0x3C3d0E397065839e9d01a90bE04d01632062356C",
    "0x5Ae0d275185A6388b3485Ba439FC5FD387778dec"
  ],
  "numDeployments": 5,
  "solcInputHash": "87ff0b67ec37ad5a4d01cd6ace11a953",
  "bytecode": "0x60a06040523480156200001157600080fd5b5060405162001dfb38038062001dfb833981016040819052620000349162000151565b33806200005b57604051631e4fbdf760e01b81526000600482015260240160405180910390fd5b6200006681620000e4565b50600180556001600160a01b038216620000935760405163d92e233d60e01b815260040160405180910390fd5b6001600160a01b038116620000bb5760405163d92e233d60e01b815260040160405180910390fd5b6001600160a01b03918216608052600280546001600160a01b0319169190921617905562000189565b600080546001600160a01b038381166001600160a01b0319831681178455604051919092169283917f8be0079c531659141344cd1fd0a4f28419497f9722a3daafe3b4186f6b6457e09190a35050565b80516001600160a01b03811681146200014c57600080fd5b919050565b600080604083850312156200016557600080fd5b620001708362000134565b9150620001806020840162000134565b90509250929050565b608051611c3a620001c16000396000818161048b01528181610637015281816106dd015281816111a501526115fe0152611c3a6000f3fe6080604052600436106101a05760003560e01c80637adbf973116100ec578063bcbaf4871161008a578063d316f0d711610064578063d316f0d714610518578063d9e69a0514610538578063f2fde38b1461054e578063fec893861461056e57600080fd5b8063bcbaf487146104ad578063cc77a477146104c0578063d1b76f12146104f857600080fd5b80639b8621d5116100c65780639b8621d514610434578063aaf5eb681461044a578063bad4a01f14610466578063baf754891461047957600080fd5b80637adbf973146103e15780638da5cb5b1461040157806390a8ae9b1461041f57600080fd5b80632625dbae1161015957806344a7e5c81161013357806344a7e5c81461033e57806362ece16414610374578063715018a6146103ac578063767a7b05146103c157600080fd5b80632625dbae146102ce5780633fdfb2aa146102ee5780634046ebae1461031e57600080fd5b806301c76f81146101ac5780630852f9f3146101ce57806315e6bc991461020b57806316187ccc1461022b5780631c88ef1e1461025957806325d54cc7146102ae57600080fd5b366101a757005b600080fd5b3480156101b857600080fd5b506101cc6101c7366004611aa1565b61058e565b005b3480156101da57600080fd5b506007546101ee906001600160a01b031681565b6040516001600160a01b0390911681526020015b60405180910390f35b34801561021757600080fd5b506101cc610226366004611ac3565b6105f8565b34801561023757600080fd5b5061024b610246366004611ae5565b610974565b604051908152602001610202565b34801561026557600080fd5b50610279610274366004611ae5565b610a82565b604051610202919081518152602080830151908201526040808301519082015260609182015115159181019190915260800190565b3480156102ba57600080fd5b506101cc6102c9366004611ac3565b610b1b565b3480156102da57600080fd5b506101cc6102e9366004611aa1565b610dc9565b3480156102fa57600080fd5b5061030e610309366004611ae5565b610e25565b6040519015158152602001610202565b34801561032a57600080fd5b506006546101ee906001600160a01b031681565b34801561034a57600080fd5b506101ee610359366004611b0f565b6003602052600090815260409020546001600160a01b031681565b34801561038057600080fd5b5061024b61038f366004611ae5565b600560209081526000928352604080842090915290825290205481565b3480156103b857600080fd5b506101cc610e90565b3480156103cd57600080fd5b506101cc6103dc366004611ac3565b610ea4565b3480156103ed57600080fd5b506101cc6103fc366004611aa1565b6110dd565b34801561040d57600080fd5b506000546001600160a01b03166101ee565b34801561042b57600080fd5b5061024b609681565b34801561044057600080fd5b5061024b6103e881565b34801561045657600080fd5b5061024b670de0b6b3a764000081565b6101cc610474366004611b0f565b611166565b34801561048557600080fd5b506101ee7f000000000000000000000000000000000000000000000000000000000000000081565b6101cc6104bb366004611ae5565b6112c3565b3480156104cc57600080fd5b5061024b6104db366004611ae5565b600460209081526000928352604080842090915290825290205481565b34801561050457600080fd5b506101cc610513366004611b28565b61159d565b34801561052457600080fd5b5061024b610533366004611ae5565b61174f565b34801561054457600080fd5b5061024b6101f481565b34801561055a57600080fd5b506101cc610569366004611aa1565b6118fc565b34801561057a57600080fd5b506002546101ee906001600160a01b031681565b610596611937565b600680546001600160a01b038381166001600160a01b031983168117909355604080519190921680825260208201939093527fbeefc50872111fb9c2028f8772e06e99ec622d34506eec7ac0e85afd9de7889d91015b60405180910390a15050565b610600611964565b806000036106215760405163162908e360e11b815260040160405180910390fd5b604051632fed9b2d60e01b8152600481018390527f00000000000000000000000000000000000000000000000000000000000000006001600160a01b031690632fed9b2d90602401602060405180830381865afa158015610686573d6000803e3d6000fd5b505050506040513d601f19601f820116820180604052508101906106aa9190611b54565b6106c75760405163351dc42760e01b815260040160405180910390fd5b6040516379f32da160e01b8152600481018390527f00000000000000000000000000000000000000000000000000000000000000006001600160a01b0316906379f32da190602401602060405180830381865afa15801561072c573d6000803e3d6000fd5b505050506040513d601f19601f820116820180604052508101906107509190611b54565b61076d5760405163466c160760e01b815260040160405180910390fd5b6000828152600360205260409020546001600160a01b03166107a2576040516317bd2ecb60e01b815260040160405180910390fd5b3360009081526005602090815260408083208584529091528120546107c8908390611b8c565b905060006107d6848361198e565b9050600060646107e86101f484611b9f565b6107f29190611bb6565b6002543360009081526004602081815260408084208b855290915280832054905163136e035160e01b815291820152929350916001600160a01b039091169063136e035190602401602060405180830381865afa158015610857573d6000803e3d6000fd5b505050506040513d601f19601f8201168201806040525081019061087b9190611bd8565b90508181101561089e57604051633a23d82560e01b815260040160405180910390fd5b3360008181526005602090815260408083208a845282528083208890556003909152908190205490516340c10f1960e01b81526004810192909252602482018790526001600160a01b0316906340c10f1990604401600060405180830381600087803b15801561090d57600080fd5b505af1158015610921573d6000803e3d6000fd5b505060408051888152602081018890528993503392507ff0ddb93dfd965f3155523eb35b018b546a5b8bd3ce2faad59deb7ee051732b8c91015b60405180910390a35050505061097060018055565b5050565b6001600160a01b03821660009081526005602090815260408083208484529091528120548082036109aa57600019915050610a7c565b6002546001600160a01b03858116600090815260046020818152604080842089855290915280832054905163136e035160e01b8152918201529092919091169063136e035190602401602060405180830381865afa158015610a10573d6000803e3d6000fd5b505050506040513d601f19601f82011682018060405250810190610a349190611bd8565b90506000610a42858461198e565b905080600003610a59576000199350505050610a7c565b80610a6c670de0b6b3a764000084611b9f565b610a769190611bb6565b93505050505b92915050565b610aaf60405180608001604052806000815260200160008152602001600081526020016000151581525090565b604080516080810182526001600160a01b03851660008181526004602090815284822087835281528482205484529181526005825283812086825282528390205490820152908101610b018585610974565b8152602001610b108585610e25565b151590529392505050565b610b23611964565b80600003610b445760405163162908e360e11b815260040160405180910390fd5b336000908152600560209081526040808320858452909152902054811115610b7f5760405163ac4314a960e01b815260040160405180910390fd5b6000828152600360205260409020546001600160a01b0316610bb4576040516317bd2ecb60e01b815260040160405180910390fd5b336000818152600560209081526040808320868452825280832054938352600482528083208684529091528120549082610bee8386611b9f565b610bf89190611bb6565b336000908152600560209081526040808320898452909152812080549293508692909190610c27908490611bf1565b90915550503360009081526005602090815260408083208884529091528120549003610c6f575033600090815260046020908152604080832087845290915281205580610c9f565b33600090815260046020908152604080832088845290915281208054839290610c99908490611bf1565b90915550505b60008581526003602052604090819020549051632770a7eb60e21b8152336004820152602481018690526001600160a01b0390911690639dc29fac90604401600060405180830381600087803b158015610cf857600080fd5b505af1158015610d0c573d6000803e3d6000fd5b50506040516000925033915083908381818185875af1925050503d8060008114610d52576040519150601f19603f3d011682016040523d82523d6000602084013e610d57565b606091505b5050905080610d79576040516312171d8360e31b815260040160405180910390fd5b3360008181526005602090815260408083208a8452825291829020548251898152918201528892917f22e81817e2b796412a3518daf7198f70c44adaac3c97992e199fda115bb834e7910161095b565b610dd1611937565b600780546001600160a01b0319166001600160a01b0383169081179091556040519081527f24cd1310c8883cbeaf5b805ab13586ce018b79c022827158ff3e8df14d3449369060200160405180910390a150565b6001600160a01b0382166000908152600560209081526040808320848452909152812054808203610e5a576000915050610a7c565b6000610e668585610974565b90506064610e7d670de0b6b3a76400006096611b9f565b610e879190611bb6565b11949350505050565b610e98611937565b610ea26000611a35565b565b610eac611964565b80600003610ecd5760405163162908e360e11b815260040160405180910390fd5b336000908152600460209081526040808320858452909152902054811115610f0857604051633a23d82560e01b815260040160405180910390fd5b336000908152600460209081526040808320858452909152812054610f2e908390611bf1565b33600090815260056020908152604080832087845290915290205490915080156110115760025460405163136e035160e01b8152600481018490526000916001600160a01b03169063136e035190602401602060405180830381865afa158015610f9c573d6000803e3d6000fd5b505050506040513d601f19601f82011682018060405250810190610fc09190611bd8565b90506000610fce868461198e565b905060006064610fe06101f484611b9f565b610fea9190611bb6565b90508083101561100d57604051633a23d82560e01b815260040160405180910390fd5b5050505b3360008181526004602090815260408083208884529091528082208590555190919085908381818185875af1925050503d806000811461106d576040519150601f19603f3d011682016040523d82523d6000602084013e611072565b606091505b5050905080611094576040516312171d8360e31b815260040160405180910390fd5b6040805185815260208101859052869133917ffae26280bca25d80f1501a9e363c73d3845e651c9aaae54f1fc09a9dcd5f3303910160405180910390a350505061097060018055565b6110e5611937565b6001600160a01b03811661110c5760405163d92e233d60e01b815260040160405180910390fd5b600280546001600160a01b038381166001600160a01b031983168117909355604080519190921680825260208201939093527f078c3b417dadf69374a59793b829c52001247130433427049317bde56607b1b791016105ec565b61116e611964565b3460000361118f5760405163162908e360e11b815260040160405180910390fd5b604051632fed9b2d60e01b8152600481018290527f00000000000000000000000000000000000000000000000000000000000000006001600160a01b031690632fed9b2d90602401602060405180830381865afa1580156111f4573d6000803e3d6000fd5b505050506040513d601f19601f820116820180604052508101906112189190611b54565b6112355760405163351dc42760e01b815260040160405180910390fd5b3360009081526004602090815260408083208484529091528120805434929061125f908490611b8c565b9091555050336000818152600460209081526040808320858452825291829020548251348152918201528392917f0b1992dffc262be88559dcaf96464e9d661d8bfca7e82f2bb73e31932a82187c910160405180910390a36112c060018055565b50565b6112cb611964565b6112d58282610e25565b6112f257604051636415f95960e01b815260040160405180910390fd5b6001600160a01b03821660009081526005602090815260408083208484529091528120549081900361133757604051634fc2e0e160e01b815260040160405180910390fd5b6000828152600360205260409020546001600160a01b031661136c576040516317bd2ecb60e01b815260040160405180910390fd5b6000611378838361198e565b6001600160a01b03808616600090815260046020818152604080842089855290915280832054600254915163d4edc40360e01b8152959650949293169163d4edc403916113cb9187910190815260200190565b602060405180830381865afa1580156113e8573d6000803e3d6000fd5b505050506040513d601f19601f8201168201806040525081019061140c9190611bd8565b90508034101561142f5760405163162908e360e11b815260040160405180910390fd5b6001600160a01b038616600081815260046020908152604080832089845282528083208390559282526005815282822088835290528181208190559051339084908381818185875af1925050503d80600081146114a8576040519150601f19603f3d011682016040523d82523d6000602084013e6114ad565b606091505b50509050806114cf576040516312171d8360e31b815260040160405180910390fd5b8134111561154757336114e28334611bf1565b604051600081818185875af1925050503d806000811461151e576040519150601f19603f3d011682016040523d82523d6000602084013e611523565b606091505b50508091505080611547576040516312171d8360e31b815260040160405180910390fd5b6040805186815260208101859052339188916001600160a01b038b16917fe086979fec7c5bf71045df524eb3ac4a59b9ed8aec05d1969c844aee1db6fc62910160405180910390a4505050505061097060018055565b6000546001600160a01b031633148015906115c357506007546001600160a01b03163314155b156115e85760405163118cdaa760e01b81523360048201526024015b60405180910390fd5b604051632fed9b2d60e01b8152600481018390527f00000000000000000000000000000000000000000000000000000000000000006001600160a01b031690632fed9b2d90602401602060405180830381865afa15801561164d573d6000803e3d6000fd5b505050506040513d601f19601f820116820180604052508101906116719190611b54565b61168e5760405163351dc42760e01b815260040160405180910390fd5b6000828152600360205260409020546001600160a01b0316156116c45760405163b2de92eb60e01b815260040160405180910390fd5b6001600160a01b0381166116eb5760405163d92e233d60e01b815260040160405180910390fd5b60008281526003602090815260409182902080546001600160a01b0319166001600160a01b038516908117909155915191825283917f0ea005f51e3badce782451426a88ddc59bb53fa1c42fa6dec1f753465111a697910160405180910390a25050565b6002546001600160a01b03838116600090815260046020818152604080842087855290915280832054905163136e035160e01b81529182015290928392169063136e035190602401602060405180830381865afa1580156117b4573d6000803e3d6000fd5b505050506040513d601f19601f820116820180604052508101906117d89190611bd8565b6001600160a01b03851660009081526005602090815260408083208784529091528120549192509061180b90859061198e565b905060006101f461181d846064611b9f565b6118279190611bb6565b905081811161183c5760009350505050610a7c565b60006118488383611bf1565b60025460405163d8435ec360e01b8152600481018990529192506000916001600160a01b039091169063d8435ec390602401602060405180830381865afa158015611897573d6000803e3d6000fd5b505050506040513d601f19601f820116820180604052508101906118bb9190611bd8565b9050806000036118d357600095505050505050610a7c565b806118e6670de0b6b3a764000084611b9f565b6118f09190611bb6565b98975050505050505050565b611904611937565b6001600160a01b03811661192e57604051631e4fbdf760e01b8152600060048201526024016115df565b6112c081611a35565b6000546001600160a01b03163314610ea25760405163118cdaa760e01b81523360048201526024016115df565b60026001540361198757604051633ee5aeb560e01b815260040160405180910390fd5b6002600155565b6000816000036119a057506000610a7c565b60025460405163d8435ec360e01b8152600481018590526000916001600160a01b03169063d8435ec390602401602060405180830381865afa1580156119ea573d6000803e3d6000fd5b505050506040513d601f19601f82011682018060405250810190611a0e9190611bd8565b9050670de0b6b3a7640000611a238285611b9f565b611a2d9190611bb6565b949350505050565b600080546001600160a01b038381166001600160a01b0319831681178455604051919092169283917f8be0079c531659141344cd1fd0a4f28419497f9722a3daafe3b4186f6b6457e09190a35050565b80356001600160a01b0381168114611a9c57600080fd5b919050565b600060208284031215611ab357600080fd5b611abc82611a85565b9392505050565b60008060408385031215611ad657600080fd5b50508035926020909101359150565b60008060408385031215611af857600080fd5b611b0183611a85565b946020939093013593505050565b600060208284031215611b2157600080fd5b5035919050565b60008060408385031215611b3b57600080fd5b82359150611b4b60208401611a85565b90509250929050565b600060208284031215611b6657600080fd5b81518015158114611abc57600080fd5b634e487b7160e01b600052601160045260246000fd5b80820180821115610a7c57610a7c611b76565b8082028115828204841417610a7c57610a7c611b76565b600082611bd357634e487b7160e01b600052601260045260246000fd5b500490565b600060208284031215611bea57600080fd5b5051919050565b81810381811115610a7c57610a7c611b7656fea264697066735822122003926044b08c5e2300ce58dd13b044597dbfe5636c54b63938a917d086a1262364736f6c63430008140033",
  "devdoc": {
    "details": "This version uses native MNT (msg.value) instead of ERC20 MockMNT      On Mantle, MNT is the native gas token similar to ETH on Ethereum.            Key features:      - State is (user  basketId  position) scoped      - A user can have multiple baskets with different risk profiles      - Each (user, basketId) pair is an independent position      - Uses NATIVE MNT (msg.value) as collateral       COLLATERAL FLOW:      1. User deposits native MNT collateral via msg.value      2. User can mint basket tokens if they have sufficient collateral      3. When minting, debt is created and tracked per (user, basketId)      4. When burning, debt is repaid and collateral is freed",
    "errors": {
      "OwnableInvalidOwner(address)": [
        {
          "details": "The owner is not a valid owner account. (eg. `address(0)`)"
        }
      ],
      "OwnableUnauthorizedAccount(address)": [
        {
          "details": "The caller account is not authorized to perform an operation."
        }
      ],
      "ReentrancyGuardReentrantCall()": [
        {
          "details": "Unauthorized reentrant call."
        }
      ]
    },
    "kind": "dev",
    "methods": {
      "constructor": {
        "params": {
          "_basketOracle": "Address of the BasketOracle",
          "_basketRegistry": "Address of the BasketRegistry"
        }
      },
      "depositCollateral(uint256)": {
        "details": "Send MNT via msg.value",
        "params": {
          "basketId": "The basket to deposit collateral for"
        }
      },
      "mintBasket(uint256,uint256)": {
        "details": "Requires sufficient collateral to maintain COLLATERAL_RATIO"
      },
      "owner()": {
        "details": "Returns the address of the current owner."
      },
      "renounceOwnership()": {
        "details": "Leaves the contract without owner. It will not be possible to call `onlyOwner` functions. Can only be called by the current owner. NOTE: Renouncing ownership will leave the contract without an owner, thereby disabling any functionality that is only available to the owner."
      },
      "setAuthorizedFactory(address)": {
        "params": {
          "_factory": "Address of the BasketFactory contract"
        }
      },
      "transferOwnership(address)": {
        "details": "Transfers ownership of the contract to a new account (`newOwner`). Can only be called by the current owner."
      },
      "withdrawCollateral(uint256,uint256)": {
        "details": "Can only withdraw excess collateral that maintains required ratio"
      }
    },
    "title": "BasketVault",
    "version": 1
  },
  "userdoc": {
    "kind": "user",
    "methods": {
      "COLLATERAL_RATIO()": {
        "notice": "Required collateral ratio for minting (500%)"
      },
      "LIQUIDATION_PENALTY()": {
        "notice": "Liquidation penalty in basis points (10% = 1000 bp)"
      },
      "LIQUIDATION_THRESHOLD()": {
        "notice": "Liquidation threshold (150%)"
      },
      "PRECISION()": {
        "notice": "Decimal precision for calculations (1e18)"
      },
      "authorizedFactory()": {
        "notice": "Authorized factory that can register basket tokens"
      },
      "basketOracle()": {
        "notice": "Reference to the basket oracle for pricing"
      },
      "basketRegistry()": {
        "notice": "Reference to the basket registry"
      },
      "basketTokens(uint256)": {
        "notice": "Mapping from basketId to its token contract"
      },
      "burnBasket(uint256,uint256)": {
        "notice": "Burn basket tokens to repay debt and free collateral"
      },
      "constructor": {
        "notice": "Initialize the vault with dependencies"
      },
      "depositCollateral(uint256)": {
        "notice": "Deposit native MNT collateral for a specific basket"
      },
      "liquidator()": {
        "notice": "Authorized liquidator address (Vincent bot)"
      },
      "mintBasket(uint256,uint256)": {
        "notice": "Mint basket tokens by taking on debt"
      },
      "registerBasketToken(uint256,address)": {
        "notice": "Register a basket token for a basket"
      },
      "setAuthorizedFactory(address)": {
        "notice": "Set the authorized factory address"
      },
      "userCollateral(address,uint256)": {
        "notice": "User collateral per basket: user => basketId => collateral amount (in MNT, 18 decimals)"
      },
      "userDebt(address,uint256)": {
        "notice": "User debt per basket: user => basketId => debt amount (in basket tokens, 18 decimals)"
      },
      "withdrawCollateral(uint256,uint256)": {
        "notice": "Withdraw native MNT collateral from a specific basket"
      }
    },
    "notice": "Vault for managing basket-scoped collateral positions using NATIVE MNT",
    "version": 1
  },
  "storageLayout": {
    "storage": [
      {
        "astId": 8,
        "contract": "contracts/BasketVault.sol:BasketVault",
        "label": "_owner",
        "offset": 0,
        "slot": "0",
        "type": "t_address"
      },
      {
        "astId": 1523,
        "contract": "contracts/BasketVault.sol:BasketVault",
        "label": "_status",
        "offset": 0,
        "slot": "1",
        "type": "t_uint256"
      },
      {
        "astId": 4567,
        "contract": "contracts/BasketVault.sol:BasketVault",
        "label": "basketOracle",
        "offset": 0,
        "slot": "2",
        "type": "t_contract(BasketOracle)4006"
      },
      {
        "astId": 4577,
        "contract": "contracts/BasketVault.sol:BasketVault",
        "label": "basketTokens",
        "offset": 0,
        "slot": "3",
        "type": "t_mapping(t_uint256,t_contract(EquiBasketToken)7219)"
      },
      {
        "astId": 4584,
        "contract": "contracts/BasketVault.sol:BasketVault",
        "label": "userCollateral",
        "offset": 0,
        "slot": "4",
        "type": "t_mapping(t_address,t_mapping(t_uint256,t_uint256))"
      },
      {
        "astId": 4591,
        "contract": "contracts/BasketVault.sol:BasketVault",
        "label": "userDebt",
        "offset": 0,
        "slot": "5",
        "type": "t_mapping(t_address,t_mapping(t_uint256,t_uint256))"
      },
      {
        "astId": 4594,
        "contract": "contracts/BasketVault.sol:BasketVault",
        "label": "liquidator",
        "offset": 0,
        "slot": "6",
        "type": "t_address"
      },
      {
        "astId": 4597,
        "contract": "contracts/BasketVault.sol:BasketVault",
        "label": "authorizedFactory",
        "offset": 0,
        "slot": "7",
        "type": "t_address"
      }
    ],
    "types": {
      "t_address": {
        "encoding": "inplace",
        "label": "address",
        "numberOfBytes": "20"
      },
      "t_contract(BasketOracle)4006": {
        "encoding": "inplace",
        "label": "contract BasketOracle",
        "numberOfBytes": "20"
      },
      "t_contract(EquiBasketToken)7219": {
        "encoding": "inplace",
        "label": "contract EquiBasketToken",
        "numberOfBytes": "20"
      },
      "t_mapping(t_address,t_mapping(t_uint256,t_uint256))": {
        "encoding": "mapping",
        "key": "t_address",
        "label": "mapping(address => mapping(uint256 => uint256))",
        "numberOfBytes": "32",
        "value": "t_mapping(t_uint256,t_uint256)"
      },
      "t_mapping(t_uint256,t_contract(EquiBasketToken)7219)": {
        "encoding": "mapping",
        "key": "t_uint256",
        "label": "mapping(uint256 => contract EquiBasketToken)",
        "numberOfBytes": "32",
        "value": "t_contract(EquiBasketToken)7219"
      },
      "t_mapping(t_uint256,t_uint256)": {
        "encoding": "mapping",
        "key": "t_uint256",
        "label": "mapping(uint256 => uint256)",
        "numberOfBytes": "32",
        "value": "t_uint256"
      },
      "t_uint256": {
        "encoding": "inplace",
        "label": "uint256",
        "numberOfBytes": "32"
      }
    }
  }
}