{
  "address": "0x5Ae0d275185A6388b3485Ba439FC5FD387778dec",
  "abi": [
    {
      "inputs": [
        {
          "internalType": "address",
          "name": "_basketRegistry",
          "type": "address"
        }
      ],
      "stateMutability": "nonpayable",
      "type": "constructor"
    },
    {
      "inputs": [
        {
          "internalType": "string",
          "name": "assetId",
          "type": "string"
        }
      ],
      "name": "AssetAlreadyRegistered",
      "type": "error"
    },
    {
      "inputs": [
        {
          "internalType": "string",
          "name": "assetId",
          "type": "string"
        }
      ],
      "name": "AssetPriceNotAvailable",
      "type": "error"
    },
    {
      "inputs": [],
      "name": "BasketDoesNotExist",
      "type": "error"
    },
    {
      "inputs": [
        {
          "internalType": "uint256",
          "name": "requiredFee",
          "type": "uint256"
        },
        {
          "internalType": "uint256",
          "name": "providedFee",
          "type": "uint256"
        }
      ],
      "name": "InsufficientUpdateFee",
      "type": "error"
    },
    {
      "inputs": [
        {
          "internalType": "string",
          "name": "assetId",
          "type": "string"
        }
      ],
      "name": "InvalidPriceFeedId",
      "type": "error"
    },
    {
      "inputs": [],
      "name": "MntPriceNotSet",
      "type": "error"
    },
    {
      "inputs": [
        {
          "internalType": "address",
          "name": "owner",
          "type": "address"
        }
      ],
      "name": "OwnableInvalidOwner",
      "type": "error"
    },
    {
      "inputs": [
        {
          "internalType": "address",
          "name": "account",
          "type": "address"
        }
      ],
      "name": "OwnableUnauthorizedAccount",
      "type": "error"
    },
    {
      "inputs": [],
      "name": "ZeroPrice",
      "type": "error"
    },
    {
      "anonymous": false,
      "inputs": [
        {
          "indexed": true,
          "internalType": "string",
          "name": "assetId",
          "type": "string"
        },
        {
          "indexed": false,
          "internalType": "bytes32",
          "name": "oldPriceFeedId",
          "type": "bytes32"
        },
        {
          "indexed": false,
          "internalType": "bytes32",
          "name": "newPriceFeedId",
          "type": "bytes32"
        }
      ],
      "name": "AssetPriceFeedUpdated",
      "type": "event"
    },
    {
      "anonymous": false,
      "inputs": [
        {
          "indexed": false,
          "internalType": "string",
          "name": "assetId",
          "type": "string"
        },
        {
          "indexed": false,
          "internalType": "bytes32",
          "name": "priceFeedId",
          "type": "bytes32"
        }
      ],
      "name": "AssetRegistered",
      "type": "event"
    },
    {
      "anonymous": false,
      "inputs": [
        {
          "indexed": false,
          "internalType": "uint256",
          "name": "oldPrice",
          "type": "uint256"
        },
        {
          "indexed": false,
          "internalType": "uint256",
          "name": "newPrice",
          "type": "uint256"
        }
      ],
      "name": "MntPriceUpdated",
      "type": "event"
    },
    {
      "anonymous": false,
      "inputs": [
        {
          "indexed": true,
          "internalType": "address",
          "name": "previousOwner",
          "type": "address"
        },
        {
          "indexed": true,
          "internalType": "address",
          "name": "newOwner",
          "type": "address"
        }
      ],
      "name": "OwnershipTransferred",
      "type": "event"
    },
    {
      "inputs": [
        {
          "internalType": "string",
          "name": "",
          "type": "string"
        }
      ],
      "name": "assetPriceFeedIds",
      "outputs": [
        {
          "internalType": "bytes32",
          "name": "",
          "type": "bytes32"
        }
      ],
      "stateMutability": "view",
      "type": "function"
    },
    {
      "inputs": [],
      "name": "basketRegistry",
      "outputs": [
        {
          "internalType": "contract BasketRegistry",
          "name": "",
          "type": "address"
        }
      ],
      "stateMutability": "view",
      "type": "function"
    },
    {
      "inputs": [
        {
          "internalType": "string[]",
          "name": "assetIds",
          "type": "string[]"
        },
        {
          "internalType": "bytes32[]",
          "name": "priceFeedIds",
          "type": "bytes32[]"
        }
      ],
      "name": "batchSetAssetPriceFeeds",
      "outputs": [],
      "stateMutability": "nonpayable",
      "type": "function"
    },
    {
      "inputs": [],
      "name": "getAllRegisteredAssets",
      "outputs": [
        {
          "internalType": "string[]",
          "name": "",
          "type": "string[]"
        }
      ],
      "stateMutability": "view",
      "type": "function"
    },
    {
      "inputs": [
        {
          "internalType": "string",
          "name": "assetId",
          "type": "string"
        }
      ],
      "name": "getAssetPrice",
      "outputs": [
        {
          "internalType": "uint256",
          "name": "price",
          "type": "uint256"
        }
      ],
      "stateMutability": "view",
      "type": "function"
    },
    {
      "inputs": [
        {
          "internalType": "string",
          "name": "assetId",
          "type": "string"
        }
      ],
      "name": "getAssetPriceDebug",
      "outputs": [
        {
          "internalType": "uint256",
          "name": "scaledPrice",
          "type": "uint256"
        },
        {
          "internalType": "int64",
          "name": "rawPrice",
          "type": "int64"
        },
        {
          "internalType": "int32",
          "name": "expo",
          "type": "int32"
        },
        {
          "internalType": "uint64",
          "name": "conf",
          "type": "uint64"
        },
        {
          "internalType": "uint256",
          "name": "publishTime",
          "type": "uint256"
        }
      ],
      "stateMutability": "view",
      "type": "function"
    },
    {
      "inputs": [
        {
          "internalType": "uint256",
          "name": "basketId",
          "type": "uint256"
        }
      ],
      "name": "getBasketPrice",
      "outputs": [
        {
          "internalType": "uint256",
          "name": "price",
          "type": "uint256"
        }
      ],
      "stateMutability": "view",
      "type": "function"
    },
    {
      "inputs": [
        {
          "internalType": "uint256",
          "name": "usdValue",
          "type": "uint256"
        }
      ],
      "name": "getMntFromUsdValue",
      "outputs": [
        {
          "internalType": "uint256",
          "name": "mntAmount",
          "type": "uint256"
        }
      ],
      "stateMutability": "view",
      "type": "function"
    },
    {
      "inputs": [
        {
          "internalType": "uint256",
          "name": "mntAmount",
          "type": "uint256"
        }
      ],
      "name": "getMntValue",
      "outputs": [
        {
          "internalType": "uint256",
          "name": "usdValue",
          "type": "uint256"
        }
      ],
      "stateMutability": "view",
      "type": "function"
    },
    {
      "inputs": [
        {
          "internalType": "bytes[]",
          "name": "priceUpdate",
          "type": "bytes[]"
        }
      ],
      "name": "getPythUpdateFee",
      "outputs": [
        {
          "internalType": "uint256",
          "name": "",
          "type": "uint256"
        }
      ],
      "stateMutability": "view",
      "type": "function"
    },
    {
      "inputs": [],
      "name": "getRegisteredAssetCount",
      "outputs": [
        {
          "internalType": "uint256",
          "name": "",
          "type": "uint256"
        }
      ],
      "stateMutability": "view",
      "type": "function"
    },
    {
      "inputs": [
        {
          "internalType": "string",
          "name": "",
          "type": "string"
        }
      ],
      "name": "isAssetRegistered",
      "outputs": [
        {
          "internalType": "bool",
          "name": "",
          "type": "bool"
        }
      ],
      "stateMutability": "view",
      "type": "function"
    },
    {
      "inputs": [],
      "name": "mntUsdPrice",
      "outputs": [
        {
          "internalType": "uint256",
          "name": "",
          "type": "uint256"
        }
      ],
      "stateMutability": "view",
      "type": "function"
    },
    {
      "inputs": [],
      "name": "owner",
      "outputs": [
        {
          "internalType": "address",
          "name": "",
          "type": "address"
        }
      ],
      "stateMutability": "view",
      "type": "function"
    },
    {
      "inputs": [],
      "name": "pyth",
      "outputs": [
        {
          "internalType": "contract IPyth",
          "name": "",
          "type": "address"
        }
      ],
      "stateMutability": "view",
      "type": "function"
    },
    {
      "inputs": [
        {
          "internalType": "string",
          "name": "assetId",
          "type": "string"
        },
        {
          "internalType": "bytes32",
          "name": "priceFeedId",
          "type": "bytes32"
        }
      ],
      "name": "registerAsset",
      "outputs": [],
      "stateMutability": "nonpayable",
      "type": "function"
    },
    {
      "inputs": [
        {
          "internalType": "uint256",
          "name": "",
          "type": "uint256"
        }
      ],
      "name": "registeredAssets",
      "outputs": [
        {
          "internalType": "string",
          "name": "",
          "type": "string"
        }
      ],
      "stateMutability": "view",
      "type": "function"
    },
    {
      "inputs": [],
      "name": "renounceOwnership",
      "outputs": [],
      "stateMutability": "nonpayable",
      "type": "function"
    },
    {
      "inputs": [
        {
          "internalType": "string",
          "name": "assetId",
          "type": "string"
        },
        {
          "internalType": "bytes32",
          "name": "priceFeedId",
          "type": "bytes32"
        }
      ],
      "name": "setAssetPriceFeed",
      "outputs": [],
      "stateMutability": "nonpayable",
      "type": "function"
    },
    {
      "inputs": [
        {
          "internalType": "uint256",
          "name": "newPrice",
          "type": "uint256"
        }
      ],
      "name": "setMntPrice",
      "outputs": [],
      "stateMutability": "nonpayable",
      "type": "function"
    },
    {
      "inputs": [
        {
          "internalType": "address",
          "name": "newOwner",
          "type": "address"
        }
      ],
      "name": "transferOwnership",
      "outputs": [],
      "stateMutability": "nonpayable",
      "type": "function"
    },
    {
      "inputs": [
        {
          "internalType": "bytes[]",
          "name": "priceUpdate",
          "type": "bytes[]"
        }
      ],
      "name": "updatePriceFeeds",
      "outputs": [
        {
          "internalType": "uint256",
          "name": "feePaid",
          "type": "uint256"
        }
      ],
      "stateMutability": "payable",
      "type": "function"
    },
    {
      "inputs": [
        {
          "internalType": "uint256",
          "name": "basketId",
          "type": "uint256"
        }
      ],
      "name": "validateBasketPrices",
      "outputs": [
        {
          "internalType": "bool",
          "name": "valid",
          "type": "bool"
        },
        {
          "internalType": "string",
          "name": "missingAsset",
          "type": "string"
        }
      ],
      "stateMutability": "view",
      "type": "function"
    }
  ],
  "transactionHash": "0x4d73dea35a54924ae0029b4ebf7008b072bf14bd7a7036d6f4c7094db5eedb99",
  "args": [
    "0x3C3d0E397065839e9d01a90bE04d01632062356C"
  ],
  "numDeployments": 5,
  "solcInputHash": "87ff0b67ec37ad5a4d01cd6ace11a953",
  "bytecode": "0x60a06040523480156200001157600080fd5b5060405162002abb38038062002abb83398101604081905262000034916200042f565b33806200005b57604051631e4fbdf760e01b81526000600482015260240160405180910390fd5b620000668162000345565b506001600160a01b0381166080526040805180820190915260048152631050541360e21b6020820152620000bb907f49f6b65cb1de6b10eaf75e7c03ca029c306d0357e91b5311b175084a5ad5568862000395565b6040805180820190915260048152634e56444160e01b602082015262000102907fb1073854ed24cbc755dc527418f52b7d271f6cc967bbf8d8129112b18860a59362000395565b60408051808201909152600481526311d3d31160e21b6020820152620001389060008051602062002a9b83398151915262000395565b60408051808201909152600681526529a4a62b22a960d11b6020820152620001709060008051602062002a9b83398151915262000395565b6040805180820190915260078152664849544143484960c81b6020820152620001ba907fd0ca23c1cc005e004ccf1db5bf76aeb6a49218f43dac3d4b275e92de12ded4d162000395565b6040805180820190915260048152631354d19560e21b602082015262000201907fd0ca23c1cc005e004ccf1db5bf76aeb6a49218f43dac3d4b275e92de12ded4d162000395565b60408051808201909152600581526411d3d3d1d360da1b602082015262000249907f5a48c03e9b9cb337801073ed9d166817473697efff0d138874e0f6a33d6d5aa662000395565b60408051808201909152600481526320a6ad2760e11b602082015262000290907fb5d0e0fa58a1f8b81498ae670ce93c872d14434b72c364885d4fa1b257cbb07a62000395565b60408051808201909152600481526354534c4160e01b6020820152620002d7907f16dad506d7db8da01c87581c87ca897a012a153557d4d578c3b9c9e1bc0632f162000395565b60408051808201909152600381526242544360e81b60208201526200030c9060008051602062002a9b83398151915262000395565b506706f05b59d3b20000600455600580546001600160a01b0319167398046bd286715d3b0bc227dd7a956b83d897860317905562000603565b600080546001600160a01b038381166001600160a01b0319831681178455604051919092169283917f8be0079c531659141344cd1fd0a4f28419497f9722a3daafe3b4186f6b6457e09190a35050565b80600183604051620003a8919062000461565b90815260405190819003602001902055600280546001810182556000919091527f405787fa12a823e0f2b7631cc41b3ba8828b3321ca811111fa75cd3aa3bb5ace01620003f6838262000537565b5060016003836040516200040b919062000461565b908152604051908190036020019020805491151560ff199092169190911790555050565b6000602082840312156200044257600080fd5b81516001600160a01b03811681146200045a57600080fd5b9392505050565b6000825160005b8181101562000484576020818601810151858301520162000468565b506000920191825250919050565b634e487b7160e01b600052604160045260246000fd5b600181811c90821680620004bd57607f821691505b602082108103620004de57634e487b7160e01b600052602260045260246000fd5b50919050565b601f8211156200053257600081815260208120601f850160051c810160208610156200050d5750805b601f850160051c820191505b818110156200052e5782815560010162000519565b5050505b505050565b81516001600160401b0381111562000553576200055362000492565b6200056b81620005648454620004a8565b84620004e4565b602080601f831160018114620005a357600084156200058a5750858301515b600019600386901b1c1916600185901b1785556200052e565b600085815260208120601f198616915b82811015620005d457888601518255948401946001909101908401620005b3565b5085821015620005f35787850151600019600388901b60f8161c191681555b5050505050600190811b01905550565b6080516124606200063b6000396000818161039f01528181610fe1015281816110940152818161139b015261143c01526124606000f3fe6080604052600436106101405760003560e01c8063a083bd3c116100b6578063d8435ec31161006f578063d8435ec3146103f6578063ef9e5e2814610416578063f2fde38b14610429578063f4697dd714610449578063f98d06f014610477578063fab253c71461049757600080fd5b8063a083bd3c1461032a578063a79ed06514610357578063adcaec7b1461036d578063baf754891461038d578063c04eed01146103c1578063d4edc403146103d657600080fd5b8063715018a611610108578063715018a61461026157806375fb7a3b14610276578063767e4571146102965780637e32fc47146102b65780638da5cb5b146102d657806395bfc49a1461030857600080fd5b8063136e0351146101455780632aedd0eb14610178578063317cbbf91461019857806342d97aec146101ba5780635696b8eb14610205575b600080fd5b34801561015157600080fd5b506101656101603660046117e7565b6104cf565b6040519081526020015b60405180910390f35b34801561018457600080fd5b50610165610193366004611848565b61051b565b3480156101a457600080fd5b506101b86101b3366004611889565b610563565b005b3480156101c657600080fd5b506101f56101d5366004611941565b805160208183018101805160038252928201919093012091525460ff1681565b604051901515815260200161016f565b34801561021157600080fd5b50610225610220366004611848565b61070c565b6040805195865260079490940b602086015260039290920b928401929092526001600160401b039091166060830152608082015260a00161016f565b34801561026d57600080fd5b506101b86108b8565b34801561028257600080fd5b506101b8610291366004611a04565b6108cc565b3480156102a257600080fd5b506101b86102b13660046117e7565b610c35565b3480156102c257600080fd5b506101b86102d1366004611889565b610ca3565b3480156102e257600080fd5b506000546001600160a01b03165b6040516001600160a01b03909116815260200161016f565b34801561031457600080fd5b5061031d610d95565b60405161016f9190611abf565b34801561033657600080fd5b5061034a6103453660046117e7565b610e6e565b60405161016f9190611b21565b34801561036357600080fd5b5061016560045481565b34801561037957600080fd5b50610165610388366004611b34565b610f1a565b34801561039957600080fd5b506102f07f000000000000000000000000000000000000000000000000000000000000000081565b3480156103cd57600080fd5b50600254610165565b3480156103e257600080fd5b506101656103f13660046117e7565b610f8e565b34801561040257600080fd5b506101656104113660046117e7565b610fc8565b610165610424366004611b34565b611195565b34801561043557600080fd5b506101b8610444366004611b69565b611339565b34801561045557600080fd5b506104696104643660046117e7565b611377565b60405161016f929190611b92565b34801561048357600080fd5b506005546102f0906001600160a01b031681565b3480156104a357600080fd5b506101656104b2366004611941565b805160208183018101805160018252928201919093012091525481565b60006004546000036104f457604051633b003e8f60e21b815260040160405180910390fd5b670de0b6b3a76400006004548361050b9190611bcb565b6105159190611bf8565b92915050565b600061055c83838080601f01602080910402602001604051908101604052809392919081815260200183838082843760009201919091525061155992505050565b9392505050565b61056b6116d6565b80610596578282604051633f5942cf60e01b815260040161058d929190611c35565b60405180910390fd5b6000600184846040516105aa929190611c49565b908152602001604051809103902054905081600185856040516105ce929190611c49565b908152602001604051809103902081905550600384846040516105f2929190611c49565b9081526040519081900360200190205460ff166106b657600280546001810182556000919091527f405787fa12a823e0f2b7631cc41b3ba8828b3321ca811111fa75cd3aa3bb5ace01610646848683611ce2565b5060016003858560405161065b929190611c49565b908152604051908190036020018120805492151560ff19909316929092179091557f5f173b536cd4561bb60f721c55c1ab0304765f755af94ce2d59a45ced287dcd5906106ad90869086908690611da1565b60405180910390a15b83836040516106c6929190611c49565b6040805191829003822083835260208301859052917fa6e74c890bb66d00ad000cab95dc422024cbc2fda9eaf6a1e57391c1baa76201910160405180910390a250505050565b60008060008060008060018888604051610727929190611c49565b9081526040519081900360200190205490508061075b578787604051637c18527f60e11b815260040161058d929190611c35565b60055460405163052571af60e51b815260048101839052603c60248201526000916001600160a01b03169063a4ae35e090604401608060405180830381865afa1580156107ac573d6000803e3d6000fd5b505050506040513d601f19601f820116820180604052508101906107d09190611dc5565b90508060000151955080604001519450806020015193508060600151925060008660070b13610816578888604051637c18527f60e11b815260040161058d929190611c35565b6000610823866012611e5b565b90506000808260030b126108575761084263ffffffff8316600a611fb7565b8860070b6108509190611fc3565b9050610882565b61086082611ff3565b6108719063ffffffff16600a611fb7565b8860070b61087f9190612016565b90505b600081136108a7578a8a604051637c18527f60e11b815260040161058d929190611c35565b809850505050509295509295909350565b6108c06116d6565b6108ca6000611703565b565b6108d46116d6565b82811461091b5760405162461bcd60e51b8152602060048201526015602482015274082e4e4c2f240d8cadccee8d040dad2e6dac2e8c6d605b1b604482015260640161058d565b60005b83811015610c2e57600083838381811061093a5761093a612044565b90506020020135036109855784848281811061095857610958612044565b905060200281019061096a919061205a565b604051633f5942cf60e01b815260040161058d929190611c35565b6000600186868481811061099b5761099b612044565b90506020028101906109ad919061205a565b6040516109bb929190611c49565b90815260200160405180910390205490508383838181106109de576109de612044565b9050602002013560018787858181106109f9576109f9612044565b9050602002810190610a0b919061205a565b604051610a19929190611c49565b908152604051908190036020019020556003868684818110610a3d57610a3d612044565b9050602002810190610a4f919061205a565b604051610a5d929190611c49565b9081526040519081900360200190205460ff16610b87576002868684818110610a8857610a88612044565b9050602002810190610a9a919061205a565b82546001810184556000938452602090932090920191610aba9183611ce2565b5060016003878785818110610ad157610ad1612044565b9050602002810190610ae3919061205a565b604051610af1929190611c49565b908152604051908190036020019020805491151560ff199092169190911790557f5f173b536cd4561bb60f721c55c1ab0304765f755af94ce2d59a45ced287dcd5868684818110610b4457610b44612044565b9050602002810190610b56919061205a565b868686818110610b6857610b68612044565b90506020020135604051610b7e93929190611da1565b60405180910390a15b858583818110610b9957610b99612044565b9050602002810190610bab919061205a565b604051610bb9929190611c49565b60405180910390207fa6e74c890bb66d00ad000cab95dc422024cbc2fda9eaf6a1e57391c1baa7620182868686818110610bf557610bf5612044565b90506020020135604051610c13929190918252602082015260400190565b60405180910390a25080610c26816120a0565b91505061091e565b5050505050565b610c3d6116d6565b80600003610c5e57604051634dfba02360e01b815260040160405180910390fd5b600480549082905560408051828152602081018490527f8f01dd7ba3e8a04f54bae3ba0045c524909bd9513ba381b37f583fdb81e41ad3910160405180910390a15050565b610cab6116d6565b60038383604051610cbd929190611c49565b9081526040519081900360200190205460ff1615610cf25782826040516336d535c960e11b815260040161058d929190611c35565b80610d14578282604051633f5942cf60e01b815260040161058d929190611c35565b610d5583838080601f016020809104026020016040519081016040528093929190818152602001838380828437600092019190915250859250611753915050565b7f5f173b536cd4561bb60f721c55c1ab0304765f755af94ce2d59a45ced287dcd5838383604051610d8893929190611da1565b60405180910390a1505050565b60606002805480602002602001604051908101604052809291908181526020016000905b82821015610e65578382906000526020600020018054610dd890611c59565b80601f0160208091040260200160405190810160405280929190818152602001828054610e0490611c59565b8015610e515780601f10610e2657610100808354040283529160200191610e51565b820191906000526020600020905b815481529060010190602001808311610e3457829003601f168201915b505050505081526020019060010190610db9565b50505050905090565b60028181548110610e7e57600080fd5b906000526020600020016000915090508054610e9990611c59565b80601f0160208091040260200160405190810160405280929190818152602001828054610ec590611c59565b8015610f125780601f10610ee757610100808354040283529160200191610f12565b820191906000526020600020905b815481529060010190602001808311610ef557829003601f168201915b505050505081565b60055460405163d47eed4560e01b81526000916001600160a01b03169063d47eed4590610f4d90869086906004016120b9565b602060405180830381865afa158015610f6a573d6000803e3d6000fd5b505050506040513d601f19601f8201168201806040525081019061055c9190612154565b6000600454600003610fb357604051633b003e8f60e21b815260040160405180910390fd5b60045461050b83670de0b6b3a7640000611bcb565b604051632fed9b2d60e01b8152600481018290526000907f00000000000000000000000000000000000000000000000000000000000000006001600160a01b031690632fed9b2d90602401602060405180830381865afa158015611030573d6000803e3d6000fd5b505050506040513d601f19601f82011682018060405250810190611054919061216d565b6110715760405163351dc42760e01b815260040160405180910390fd5b60405163d2f7baf960e01b81526004810183905260009081906001600160a01b037f0000000000000000000000000000000000000000000000000000000000000000169063d2f7baf990602401600060405180830381865afa1580156110db573d6000803e3d6000fd5b505050506040513d6000823e601f3d908101601f191682016040526111039190810190612218565b915091506000805b835181101561117f57600061113885838151811061112b5761112b612044565b6020026020010151611559565b905083828151811061114c5761114c612044565b60200260200101518161115f9190611bcb565b6111699084612329565b9250508080611177906120a0565b91505061110b565b5061118c61271082611bf8565b95945050505050565b60055460405163d47eed4560e01b81526000916001600160a01b03169063d47eed45906111c890869086906004016120b9565b602060405180830381865afa1580156111e5573d6000803e3d6000fd5b505050506040513d601f19601f820116820180604052508101906112099190612154565b9050803410156112355760405163dd519f0360e01b81526004810182905234602482015260440161058d565b600554604051631df3cbc560e31b81526001600160a01b039091169063ef9e5e2890839061126990879087906004016120b9565b6000604051808303818588803b15801561128257600080fd5b505af1158015611296573d6000803e3d6000fd5b505050505080341115610515576000336112b0833461233c565b604051600081818185875af1925050503d80600081146112ec576040519150601f19603f3d011682016040523d82523d6000602084013e6112f1565b606091505b50509050806113325760405162461bcd60e51b815260206004820152600d60248201526c1499599d5b990819985a5b1959609a1b604482015260640161058d565b5092915050565b6113416116d6565b6001600160a01b03811661136b57604051631e4fbdf760e01b81526000600482015260240161058d565b61137481611703565b50565b604051632fed9b2d60e01b8152600481018290526000906060906001600160a01b037f00000000000000000000000000000000000000000000000000000000000000001690632fed9b2d90602401602060405180830381865afa1580156113e2573d6000803e3d6000fd5b505050506040513d601f19601f82011682018060405250810190611406919061216d565b6114235760405163351dc42760e01b815260040160405180910390fd5b60405163d2f7baf960e01b8152600481018490526000907f00000000000000000000000000000000000000000000000000000000000000006001600160a01b03169063d2f7baf990602401600060405180830381865afa15801561148b573d6000803e3d6000fd5b505050506040513d6000823e601f3d908101601f191682016040526114b39190810190612218565b50905060005b815181101561153c576000801b60018383815181106114da576114da612044565b60200260200101516040516114ef919061234f565b9081526020016040518091039020540361152a57600082828151811061151757611517612044565b6020026020010151935093505050915091565b80611534816120a0565b9150506114b9565b506001604051806020016040528060008152509250925050915091565b60008060018360405161156c919061234f565b9081526040519081900360200190205490508061159e5782604051637c18527f60e11b815260040161058d9190611b21565b60055460405163052571af60e51b815260048101839052603c60248201526000916001600160a01b03169063a4ae35e090604401608060405180830381865afa1580156115ef573d6000803e3d6000fd5b505050506040513d601f19601f820116820180604052508101906116139190611dc5565b8051604082015191925060070b90600082136116445785604051637c18527f60e11b815260040161058d9190611b21565b6000611651826012611e5b565b90506000808260030b126116815761167063ffffffff8316600a611fb7565b61167a9085611fc3565b90506116a8565b61168a82611ff3565b61169b9063ffffffff16600a611fb7565b6116a59085612016565b90505b600081136116cb5787604051637c18527f60e11b815260040161058d9190611b21565b979650505050505050565b6000546001600160a01b031633146108ca5760405163118cdaa760e01b815233600482015260240161058d565b600080546001600160a01b038381166001600160a01b0319831681178455604051919092169283917f8be0079c531659141344cd1fd0a4f28419497f9722a3daafe3b4186f6b6457e09190a35050565b80600183604051611764919061234f565b90815260405190819003602001902055600280546001810182556000919091527f405787fa12a823e0f2b7631cc41b3ba8828b3321ca811111fa75cd3aa3bb5ace016117b0838261236b565b5060016003836040516117c3919061234f565b908152604051908190036020019020805491151560ff199092169190911790555050565b6000602082840312156117f957600080fd5b5035919050565b60008083601f84011261181257600080fd5b5081356001600160401b0381111561182957600080fd5b60208301915083602082850101111561184157600080fd5b9250929050565b6000806020838503121561185b57600080fd5b82356001600160401b0381111561187157600080fd5b61187d85828601611800565b90969095509350505050565b60008060006040848603121561189e57600080fd5b83356001600160401b038111156118b457600080fd5b6118c086828701611800565b909790965060209590950135949350505050565b634e487b7160e01b600052604160045260246000fd5b604051601f8201601f191681016001600160401b0381118282101715611912576119126118d4565b604052919050565b60006001600160401b03821115611933576119336118d4565b50601f01601f191660200190565b60006020828403121561195357600080fd5b81356001600160401b0381111561196957600080fd5b8201601f8101841361197a57600080fd5b803561198d6119888261191a565b6118ea565b8181528560208385010111156119a257600080fd5b81602084016020830137600091810160200191909152949350505050565b60008083601f8401126119d257600080fd5b5081356001600160401b038111156119e957600080fd5b6020830191508360208260051b850101111561184157600080fd5b60008060008060408587031215611a1a57600080fd5b84356001600160401b0380821115611a3157600080fd5b611a3d888389016119c0565b90965094506020870135915080821115611a5657600080fd5b50611a63878288016119c0565b95989497509550505050565b60005b83811015611a8a578181015183820152602001611a72565b50506000910152565b60008151808452611aab816020860160208601611a6f565b601f01601f19169290920160200192915050565b6000602080830181845280855180835260408601915060408160051b870101925083870160005b82811015611b1457603f19888603018452611b02858351611a93565b94509285019290850190600101611ae6565b5092979650505050505050565b60208152600061055c6020830184611a93565b60008060208385031215611b4757600080fd5b82356001600160401b03811115611b5d57600080fd5b61187d858286016119c0565b600060208284031215611b7b57600080fd5b81356001600160a01b038116811461055c57600080fd5b8215158152604060208201526000611bad6040830184611a93565b949350505050565b634e487b7160e01b600052601160045260246000fd5b808202811582820484141761051557610515611bb5565b634e487b7160e01b600052601260045260246000fd5b600082611c0757611c07611be2565b500490565b81835281816020850137506000828201602090810191909152601f909101601f19169091010190565b602081526000611bad602083018486611c0c565b8183823760009101908152919050565b600181811c90821680611c6d57607f821691505b602082108103611c8d57634e487b7160e01b600052602260045260246000fd5b50919050565b601f821115611cdd57600081815260208120601f850160051c81016020861015611cba5750805b601f850160051c820191505b81811015611cd957828155600101611cc6565b5050505b505050565b6001600160401b03831115611cf957611cf96118d4565b611d0d83611d078354611c59565b83611c93565b6000601f841160018114611d415760008515611d295750838201355b600019600387901b1c1916600186901b178355610c2e565b600083815260209020601f19861690835b82811015611d725786850135825560209485019460019092019101611d52565b5086821015611d8f5760001960f88860031b161c19848701351681555b505060018560011b0183555050505050565b604081526000611db5604083018587611c0c565b9050826020830152949350505050565b600060808284031215611dd757600080fd5b604051608081016001600160401b038282108183111715611dfa57611dfa6118d4565b81604052845191508160070b8214611e1157600080fd5b9082526020840151908082168214611e2857600080fd5b5060208201526040830151600381900b8114611e4357600080fd5b60408201526060928301519281019290925250919050565b600381810b9083900b01637fffffff8113637fffffff198212171561051557610515611bb5565b80825b6001808611611e945750611ec7565b6001600160ff1b03829004821115611eae57611eae611bb5565b80861615611ebb57918102915b9490941c938002611e85565b935093915050565b6000828015611ee55760018114611eef57611ef8565b6001915050610515565b82915050610515565b5081611f0657506000610515565b50600160008213808214611f1f578015611f3e57611f58565b6001600160ff1b03839004831115611f3957611f39611bb5565b611f58565b6001600160ff1b03839005831215611f5857611f58611bb5565b5080831615611f645750805b611f748360011c83840283611e82565b600082136001600160ff1b0382900483111615611f9357611f93611bb5565b60008212600160ff1b82900583121615611faf57611faf611bb5565b029392505050565b600061055c8383611ecf565b80820260008212600160ff1b84141615611fdf57611fdf611bb5565b818105831482151761051557610515611bb5565b60008160030b637fffffff19810361200d5761200d611bb5565b60000392915050565b60008261202557612025611be2565b600160ff1b82146000198414161561203f5761203f611bb5565b500590565b634e487b7160e01b600052603260045260246000fd5b6000808335601e1984360301811261207157600080fd5b8301803591506001600160401b0382111561208b57600080fd5b60200191503681900382131561184157600080fd5b6000600182016120b2576120b2611bb5565b5060010190565b60208082528181018390526000906040600585901b8401810190840186845b8781101561214757868403603f190183528135368a9003601e190181126120fe57600080fd5b890185810190356001600160401b0381111561211957600080fd5b80360382131561212857600080fd5b612133868284611c0c565b9550505091840191908401906001016120d8565b5091979650505050505050565b60006020828403121561216657600080fd5b5051919050565b60006020828403121561217f57600080fd5b8151801515811461055c57600080fd5b60006001600160401b038211156121a8576121a86118d4565b5060051b60200190565b600082601f8301126121c357600080fd5b815160206121d36119888361218f565b82815260059290921b840181019181810190868411156121f257600080fd5b8286015b8481101561220d57805183529183019183016121f6565b509695505050505050565b600080604080848603121561222c57600080fd5b83516001600160401b038082111561224357600080fd5b818601915086601f83011261225757600080fd5b815160206122676119888361218f565b82815260059290921b8401810191818101908a84111561228657600080fd5b8286015b848110156122f7578051868111156122a25760008081fd5b8701603f81018d136122b45760008081fd5b848101516122c46119888261191a565b8181528e8b8385010111156122d95760008081fd5b6122e8828883018d8601611a6f565b8552505091830191830161228a565b509189015191975090945050508083111561231157600080fd5b505061231f858286016121b2565b9150509250929050565b8082018082111561051557610515611bb5565b8181038181111561051557610515611bb5565b60008251612361818460208701611a6f565b9190910192915050565b81516001600160401b03811115612384576123846118d4565b612398816123928454611c59565b84611c93565b602080601f8311600181146123cd57600084156123b55750858301515b600019600386901b1c1916600185901b178555611cd9565b600085815260208120601f198616915b828110156123fc578886015182559484019460019091019084016123dd565b508582101561241a5787850151600019600388901b60f8161c191681555b5050505050600190811b0190555056fea2646970667358221220df277855e43534600b5f67f334a6330e95941cf4d1c912fb7c5f1fba1d0718d764736f6c63430008140033e62df6c8b4a85fe1a67db44dc12de5db330f7ac66b72dc658afedf0f4a415b43",
  "devdoc": {
    "details": "This is the CORE INNOVATION of EquiBaskets.      Unlike single-asset oracles that just return a price, this oracle      COMPUTES FINANCIAL MEANING by:      1. Reading basket composition from BasketRegistry      2. Fetching price for each underlying asset      3. Computing weighted average basket price      Asset prices are pulled from Pyth price feeds (configured per asset).       All prices are stored and returned in 1e18 format.      For example, $100 = 100 * 1e18 = 100000000000000000000       The MNT/USD price is also stored here for collateral valuation.",
    "errors": {
      "OwnableInvalidOwner(address)": [
        {
          "details": "The owner is not a valid owner account. (eg. `address(0)`)"
        }
      ],
      "OwnableUnauthorizedAccount(address)": [
        {
          "details": "The caller account is not authorized to perform an operation."
        }
      ]
    },
    "kind": "dev",
    "methods": {
      "batchSetAssetPriceFeeds(string[],bytes32[])": {
        "params": {
          "assetIds": "Array of asset identifiers",
          "priceFeedIds": "Array of Pyth price feed identifiers"
        }
      },
      "constructor": {
        "params": {
          "_basketRegistry": "Address of the BasketRegistry contract"
        }
      },
      "getAllRegisteredAssets()": {
        "returns": {
          "_0": "Array of asset identifier strings"
        }
      },
      "getAssetPrice(string)": {
        "params": {
          "assetId": "Asset identifier"
        },
        "returns": {
          "price": "Asset price in 1e18 USD format"
        }
      },
      "getAssetPriceDebug(string)": {
        "params": {
          "assetId": "Asset identifier"
        },
        "returns": {
          "conf": "Confidence interval",
          "expo": "Pyth exponent",
          "publishTime": "Oracle publish time",
          "rawPrice": "Raw Pyth price",
          "scaledPrice": "Price scaled to 1e18"
        }
      },
      "getBasketPrice(uint256)": {
        "details": "This is the CORE function of EquiBaskets oracle.      It computes the basket price by:      1. Reading composition from BasketRegistry      2. Fetching price for each asset      3. Computing weighted average: sum(price[i] * weight[i]) / 10000",
        "params": {
          "basketId": "The basket ID to get price for"
        },
        "returns": {
          "price": "Basket price in 1e18 USD format"
        }
      },
      "getMntFromUsdValue(uint256)": {
        "params": {
          "usdValue": "USD value in 1e18 format"
        },
        "returns": {
          "mntAmount": "MNT amount in 1e18 format"
        }
      },
      "getMntValue(uint256)": {
        "params": {
          "mntAmount": "Amount of MNT tokens (in 1e18)"
        },
        "returns": {
          "usdValue": "USD value in 1e18 format"
        }
      },
      "getPythUpdateFee(bytes[])": {
        "params": {
          "priceUpdate": "Pyth price update data blob(s) fetched off-chain"
        }
      },
      "getRegisteredAssetCount()": {
        "returns": {
          "_0": "Count of registered assets"
        }
      },
      "owner()": {
        "details": "Returns the address of the current owner."
      },
      "registerAsset(string,bytes32)": {
        "params": {
          "assetId": "Asset identifier (e.g., \"AAPL\", \"GOLD\")",
          "priceFeedId": "Pyth price feed identifier"
        }
      },
      "renounceOwnership()": {
        "details": "Leaves the contract without owner. It will not be possible to call `onlyOwner` functions. Can only be called by the current owner. NOTE: Renouncing ownership will leave the contract without an owner, thereby disabling any functionality that is only available to the owner."
      },
      "setAssetPriceFeed(string,bytes32)": {
        "params": {
          "assetId": "Asset identifier",
          "priceFeedId": "New Pyth price feed identifier"
        }
      },
      "setMntPrice(uint256)": {
        "params": {
          "newPrice": "New MNT/USD price in 1e18 format"
        }
      },
      "transferOwnership(address)": {
        "details": "Transfers ownership of the contract to a new account (`newOwner`). Can only be called by the current owner."
      },
      "updatePriceFeeds(bytes[])": {
        "details": "Callers must provide at least the required fee; any excess is refunded.",
        "params": {
          "priceUpdate": "Encoded price update payload(s) from Pyth Hermes"
        },
        "returns": {
          "feePaid": "The fee forwarded to Pyth"
        }
      },
      "validateBasketPrices(uint256)": {
        "params": {
          "basketId": "The basket ID to check"
        },
        "returns": {
          "missingAsset": "The first missing asset (if any)",
          "valid": "True if all asset prices are available"
        }
      }
    },
    "stateVariables": {
      "mntUsdPrice": {
        "details": "Used for calculating collateral value in the vault"
      }
    },
    "title": "BasketOracle",
    "version": 1
  },
  "userdoc": {
    "errors": {
      "AssetAlreadyRegistered(string)": [
        {
          "notice": "Thrown when asset is already registered"
        }
      ],
      "AssetPriceNotAvailable(string)": [
        {
          "notice": "Thrown when asset price is not available"
        }
      ],
      "BasketDoesNotExist()": [
        {
          "notice": "Thrown when basket doesn't exist"
        }
      ],
      "InsufficientUpdateFee(uint256,uint256)": [
        {
          "notice": "Thrown when insufficient fee is provided to update Pyth price feeds"
        }
      ],
      "InvalidPriceFeedId(string)": [
        {
          "notice": "Thrown when a price feed id is missing or invalid"
        }
      ],
      "MntPriceNotSet()": [
        {
          "notice": "Thrown when MNT price is not set"
        }
      ],
      "ZeroPrice()": [
        {
          "notice": "Thrown when price is zero"
        }
      ]
    },
    "events": {
      "AssetPriceFeedUpdated(string,bytes32,bytes32)": {
        "notice": "Emitted when an asset price feed is updated"
      },
      "AssetRegistered(string,bytes32)": {
        "notice": "Emitted when a new asset is registered"
      },
      "MntPriceUpdated(uint256,uint256)": {
        "notice": "Emitted when MNT/USD price is updated"
      }
    },
    "kind": "user",
    "methods": {
      "assetPriceFeedIds(string)": {
        "notice": "Mapping from asset identifier to Pyth price feed id"
      },
      "basketRegistry()": {
        "notice": "Reference to the BasketRegistry for reading composition"
      },
      "batchSetAssetPriceFeeds(string[],bytes32[])": {
        "notice": "Batch update multiple asset price feeds"
      },
      "constructor": {
        "notice": "Initialize the BasketOracle with a registry reference"
      },
      "getAllRegisteredAssets()": {
        "notice": "Get all registered asset identifiers"
      },
      "getAssetPrice(string)": {
        "notice": "Get individual asset price"
      },
      "getAssetPriceDebug(string)": {
        "notice": "Debug helper to inspect raw Pyth data and scaled price"
      },
      "getBasketPrice(uint256)": {
        "notice": "Get the weighted price of a basket"
      },
      "getMntFromUsdValue(uint256)": {
        "notice": "Get the MNT amount equivalent to a USD value"
      },
      "getMntValue(uint256)": {
        "notice": "Get MNT to USD value"
      },
      "getPythUpdateFee(bytes[])": {
        "notice": "Calculate the fee required to update Pyth price feeds for given updates"
      },
      "getRegisteredAssetCount()": {
        "notice": "Get the number of registered assets"
      },
      "isAssetRegistered(string)": {
        "notice": "Mapping to check if an asset is registered"
      },
      "mntUsdPrice()": {
        "notice": "MNT/USD price in 1e18 format"
      },
      "registerAsset(string,bytes32)": {
        "notice": "Register a new asset with its price feed"
      },
      "registeredAssets(uint256)": {
        "notice": "List of all registered asset identifiers"
      },
      "setAssetPriceFeed(string,bytes32)": {
        "notice": "/**Update the price feed of an asset"
      },
      "setMntPrice(uint256)": {
        "notice": "Update MNT/USD price"
      },
      "updatePriceFeeds(bytes[])": {
        "notice": "Push fresh Pyth price updates on-chain so subsequent reads succeed"
      },
      "validateBasketPrices(uint256)": {
        "notice": "Check if a basket has all required asset prices"
      }
    },
    "notice": "Oracle for computing basket prices from individual asset prices",
    "version": 1
  },
  "storageLayout": {
    "storage": [
      {
        "astId": 8,
        "contract": "contracts/BasketOracle.sol:BasketOracle",
        "label": "_owner",
        "offset": 0,
        "slot": "0",
        "type": "t_address"
      },
      {
        "astId": 3018,
        "contract": "contracts/BasketOracle.sol:BasketOracle",
        "label": "assetPriceFeedIds",
        "offset": 0,
        "slot": "1",
        "type": "t_mapping(t_string_memory_ptr,t_bytes32)"
      },
      {
        "astId": 3022,
        "contract": "contracts/BasketOracle.sol:BasketOracle",
        "label": "registeredAssets",
        "offset": 0,
        "slot": "2",
        "type": "t_array(t_string_storage)dyn_storage"
      },
      {
        "astId": 3027,
        "contract": "contracts/BasketOracle.sol:BasketOracle",
        "label": "isAssetRegistered",
        "offset": 0,
        "slot": "3",
        "type": "t_mapping(t_string_memory_ptr,t_bool)"
      },
      {
        "astId": 3030,
        "contract": "contracts/BasketOracle.sol:BasketOracle",
        "label": "mntUsdPrice",
        "offset": 0,
        "slot": "4",
        "type": "t_uint256"
      },
      {
        "astId": 3033,
        "contract": "contracts/BasketOracle.sol:BasketOracle",
        "label": "pyth",
        "offset": 0,
        "slot": "5",
        "type": "t_contract(IPyth)1744"
      }
    ],
    "types": {
      "t_address": {
        "encoding": "inplace",
        "label": "address",
        "numberOfBytes": "20"
      },
      "t_array(t_string_storage)dyn_storage": {
        "base": "t_string_storage",
        "encoding": "dynamic_array",
        "label": "string[]",
        "numberOfBytes": "32"
      },
      "t_bool": {
        "encoding": "inplace",
        "label": "bool",
        "numberOfBytes": "1"
      },
      "t_bytes32": {
        "encoding": "inplace",
        "label": "bytes32",
        "numberOfBytes": "32"
      },
      "t_contract(IPyth)1744": {
        "encoding": "inplace",
        "label": "contract IPyth",
        "numberOfBytes": "20"
      },
      "t_mapping(t_string_memory_ptr,t_bool)": {
        "encoding": "mapping",
        "key": "t_string_memory_ptr",
        "label": "mapping(string => bool)",
        "numberOfBytes": "32",
        "value": "t_bool"
      },
      "t_mapping(t_string_memory_ptr,t_bytes32)": {
        "encoding": "mapping",
        "key": "t_string_memory_ptr",
        "label": "mapping(string => bytes32)",
        "numberOfBytes": "32",
        "value": "t_bytes32"
      },
      "t_string_memory_ptr": {
        "encoding": "bytes",
        "label": "string",
        "numberOfBytes": "32"
      },
      "t_string_storage": {
        "encoding": "bytes",
        "label": "string",
        "numberOfBytes": "32"
      },
      "t_uint256": {
        "encoding": "inplace",
        "label": "uint256",
        "numberOfBytes": "32"
      }
    }
  }
}