{
  "address": "0x3C3d0E397065839e9d01a90bE04d01632062356C",
  "abi": [
    {
      "inputs": [],
      "stateMutability": "nonpayable",
      "type": "constructor"
    },
    {
      "inputs": [],
      "name": "ArrayLengthMismatch",
      "type": "error"
    },
    {
      "inputs": [],
      "name": "BasketDoesNotExist",
      "type": "error"
    },
    {
      "inputs": [],
      "name": "EmptyAssetsArray",
      "type": "error"
    },
    {
      "inputs": [],
      "name": "InvalidWeightsSum",
      "type": "error"
    },
    {
      "inputs": [],
      "name": "NotBasketCreator",
      "type": "error"
    },
    {
      "inputs": [
        {
          "internalType": "address",
          "name": "owner",
          "type": "address"
        }
      ],
      "name": "OwnableInvalidOwner",
      "type": "error"
    },
    {
      "inputs": [
        {
          "internalType": "address",
          "name": "account",
          "type": "address"
        }
      ],
      "name": "OwnableUnauthorizedAccount",
      "type": "error"
    },
    {
      "inputs": [],
      "name": "ZeroWeight",
      "type": "error"
    },
    {
      "anonymous": false,
      "inputs": [
        {
          "indexed": true,
          "internalType": "uint256",
          "name": "basketId",
          "type": "uint256"
        },
        {
          "indexed": false,
          "internalType": "bool",
          "name": "active",
          "type": "bool"
        }
      ],
      "name": "BasketActiveStateChanged",
      "type": "event"
    },
    {
      "anonymous": false,
      "inputs": [
        {
          "indexed": true,
          "internalType": "uint256",
          "name": "basketId",
          "type": "uint256"
        },
        {
          "indexed": true,
          "internalType": "address",
          "name": "creator",
          "type": "address"
        },
        {
          "indexed": false,
          "internalType": "uint256",
          "name": "assetCount",
          "type": "uint256"
        }
      ],
      "name": "BasketCreated",
      "type": "event"
    },
    {
      "anonymous": false,
      "inputs": [
        {
          "indexed": true,
          "internalType": "address",
          "name": "previousOwner",
          "type": "address"
        },
        {
          "indexed": true,
          "internalType": "address",
          "name": "newOwner",
          "type": "address"
        }
      ],
      "name": "OwnershipTransferred",
      "type": "event"
    },
    {
      "inputs": [],
      "name": "basketCount",
      "outputs": [
        {
          "internalType": "uint256",
          "name": "",
          "type": "uint256"
        }
      ],
      "stateMutability": "view",
      "type": "function"
    },
    {
      "inputs": [
        {
          "internalType": "uint256",
          "name": "basketId",
          "type": "uint256"
        }
      ],
      "name": "basketExists",
      "outputs": [
        {
          "internalType": "bool",
          "name": "",
          "type": "bool"
        }
      ],
      "stateMutability": "view",
      "type": "function"
    },
    {
      "inputs": [
        {
          "internalType": "string[]",
          "name": "assets",
          "type": "string[]"
        },
        {
          "internalType": "uint256[]",
          "name": "weights",
          "type": "uint256[]"
        },
        {
          "internalType": "string",
          "name": "name",
          "type": "string"
        },
        {
          "internalType": "string",
          "name": "symbol",
          "type": "string"
        }
      ],
      "name": "createBasket",
      "outputs": [
        {
          "internalType": "uint256",
          "name": "basketId",
          "type": "uint256"
        }
      ],
      "stateMutability": "nonpayable",
      "type": "function"
    },
    {
      "inputs": [
        {
          "internalType": "address",
          "name": "",
          "type": "address"
        },
        {
          "internalType": "uint256",
          "name": "",
          "type": "uint256"
        }
      ],
      "name": "creatorBaskets",
      "outputs": [
        {
          "internalType": "uint256",
          "name": "",
          "type": "uint256"
        }
      ],
      "stateMutability": "view",
      "type": "function"
    },
    {
      "inputs": [
        {
          "internalType": "uint256",
          "name": "basketId",
          "type": "uint256"
        }
      ],
      "name": "deactivateBasket",
      "outputs": [],
      "stateMutability": "nonpayable",
      "type": "function"
    },
    {
      "inputs": [
        {
          "internalType": "uint256",
          "name": "basketId",
          "type": "uint256"
        }
      ],
      "name": "getBasket",
      "outputs": [
        {
          "internalType": "address",
          "name": "creator",
          "type": "address"
        },
        {
          "internalType": "string[]",
          "name": "assets",
          "type": "string[]"
        },
        {
          "internalType": "uint256[]",
          "name": "weights",
          "type": "uint256[]"
        },
        {
          "internalType": "bool",
          "name": "active",
          "type": "bool"
        },
        {
          "internalType": "string",
          "name": "name",
          "type": "string"
        },
        {
          "internalType": "string",
          "name": "symbol",
          "type": "string"
        }
      ],
      "stateMutability": "view",
      "type": "function"
    },
    {
      "inputs": [
        {
          "internalType": "uint256",
          "name": "basketId",
          "type": "uint256"
        }
      ],
      "name": "getBasketAssetCount",
      "outputs": [
        {
          "internalType": "uint256",
          "name": "",
          "type": "uint256"
        }
      ],
      "stateMutability": "view",
      "type": "function"
    },
    {
      "inputs": [
        {
          "internalType": "uint256",
          "name": "basketId",
          "type": "uint256"
        }
      ],
      "name": "getBasketComposition",
      "outputs": [
        {
          "internalType": "string[]",
          "name": "assets",
          "type": "string[]"
        },
        {
          "internalType": "uint256[]",
          "name": "weights",
          "type": "uint256[]"
        }
      ],
      "stateMutability": "view",
      "type": "function"
    },
    {
      "inputs": [
        {
          "internalType": "address",
          "name": "creator",
          "type": "address"
        }
      ],
      "name": "getBasketsByCreator",
      "outputs": [
        {
          "internalType": "uint256[]",
          "name": "",
          "type": "uint256[]"
        }
      ],
      "stateMutability": "view",
      "type": "function"
    },
    {
      "inputs": [
        {
          "internalType": "uint256",
          "name": "basketId",
          "type": "uint256"
        }
      ],
      "name": "isBasketActive",
      "outputs": [
        {
          "internalType": "bool",
          "name": "",
          "type": "bool"
        }
      ],
      "stateMutability": "view",
      "type": "function"
    },
    {
      "inputs": [],
      "name": "owner",
      "outputs": [
        {
          "internalType": "address",
          "name": "",
          "type": "address"
        }
      ],
      "stateMutability": "view",
      "type": "function"
    },
    {
      "inputs": [
        {
          "internalType": "uint256",
          "name": "basketId",
          "type": "uint256"
        }
      ],
      "name": "reactivateBasket",
      "outputs": [],
      "stateMutability": "nonpayable",
      "type": "function"
    },
    {
      "inputs": [],
      "name": "renounceOwnership",
      "outputs": [],
      "stateMutability": "nonpayable",
      "type": "function"
    },
    {
      "inputs": [
        {
          "internalType": "address",
          "name": "newOwner",
          "type": "address"
        }
      ],
      "name": "transferOwnership",
      "outputs": [],
      "stateMutability": "nonpayable",
      "type": "function"
    }
  ],
  "transactionHash": "0xcc39cb13b25807ceea8b37002be6e46f40b3b2eb78090a2da1d644526a3d81c4",
  "args": [],
  "numDeployments": 2,
  "solcInputHash": "db0c4e836244ee273d63f7a61091a44e",
  "bytecode": "0x608060405234801561001057600080fd5b50338061003757604051631e4fbdf760e01b81526000600482015260240160405180910390fd5b61004081610046565b50610096565b600080546001600160a01b038381166001600160a01b0319831681178455604051919092169283917f8be0079c531659141344cd1fd0a4f28419497f9722a3daafe3b4186f6b6457e09190a35050565b6111d3806100a56000396000f3fe608060405234801561001057600080fd5b50600436106100ea5760003560e01c8063715018a61161008c5780638da5cb5b116100665780638da5cb5b146101f4578063c63407c01461020f578063d2f7baf914610222578063f2fde38b1461024357600080fd5b8063715018a6146101b457806377977d50146101bc57806379f32da1146101e157600080fd5b80634ecd7912116100c85780634ecd7912146101595780634f1f075e1461016e5780635062544c1461018e578063520acd99146101a157600080fd5b80632fed9b2d146100ef57806336d664ba1461012f5780634dab057614610150575b600080fd5b61011a6100fd366004610c38565b6000908152600260205260409020546001600160a01b0316151590565b60405190151581526020015b60405180910390f35b61014261013d366004610c6d565b610256565b604051908152602001610126565b61014260015481565b61016c610167366004610c38565b610287565b005b61018161017c366004610c97565b61034c565b6040516101269190610cf4565b61014261019c366004610c38565b6103b8565b6101426101af366004610d95565b6103f8565b61016c610637565b6101cf6101ca366004610c38565b61064b565b60405161012696959493929190610ef7565b61011a6101ef366004610c38565b61090b565b6000546040516001600160a01b039091168152602001610126565b61016c61021d366004610c38565b61094e565b610235610230366004610c38565b610a06565b604051610126929190610f6a565b61016c610251366004610c97565b610b78565b6003602052816000526040600020818154811061027257600080fd5b90600052602060002001600091509150505481565b600081815260026020526040902080546001600160a01b03166102bd5760405163351dc42760e01b815260040160405180910390fd5b80546001600160a01b031633148015906102e257506000546001600160a01b03163314155b1561030057604051637e95094360e11b815260040160405180910390fd5b60038101805460ff1916600190811790915560405190815282907f8004e92dc2b624e2c15f0b8daecdc917608f58f1a8191747082bf4bc2f866422906020015b60405180910390a25050565b6001600160a01b0381166000908152600360209081526040918290208054835181840281018401909452808452606093928301828280156103ac57602002820191906000526020600020905b815481526020019060010190808311610398575b50505050509050919050565b600081815260026020526040812080546001600160a01b03166103ee5760405163351dc42760e01b815260040160405180910390fd5b6001015492915050565b60008780820361041b576040516352d4ba3360e01b815260040160405180910390fd5b80871461043b5760405163512509d360e11b815260040160405180910390fd5b6000805b828110156104ae5789898281811061045957610459610f98565b90506020020135600003610480576040516319a2a9bd60e01b815260040160405180910390fd5b89898281811061049257610492610f98565b90506020020135826104a49190610fc4565b915060010161043f565b5080612710146104d05760405162e9840b60e01b815260040160405180910390fd5b6001600081546104df90610fdd565b9182905550600081815260026020526040902080546001600160a01b0319163317815560038101805460ff1916600117905590935060048101610523888a83611095565b5060058101610533868883611095565b5060005b838110156105c857816001018d8d8381811061055557610555610f98565b90506020028101906105679190611156565b825460018101845560009384526020909320909201916105879183611095565b50816002018b8b8381811061059e5761059e610f98565b83546001808201865560009586526020958690209290950293909301359201919091555001610537565b50336000818152600360209081526040808320805460018101825590845291909220018690555185907f0678d059cfecb364f84531ae6b6f35791159361f0182e49942a3aa0c6c47c677906106209087815260200190565b60405180910390a350505098975050505050505050565b61063f610bbb565b6106496000610be8565b565b600081815260026020526040812080546060918291849183918291906001600160a01b031661068d5760405163351dc42760e01b815260040160405180910390fd5b80546003820154600183018054604080516020808402820181019092528281526001600160a01b03909516949293600287019360ff909116926004880192600589019291879160009084015b828210156107855783829060005260206000200180546106f89061100c565b80601f01602080910402602001604051908101604052809291908181526020018280546107249061100c565b80156107715780601f1061074657610100808354040283529160200191610771565b820191906000526020600020905b81548152906001019060200180831161075457829003601f168201915b5050505050815260200190600101906106d9565b505050509450838054806020026020016040519081016040528092919081815260200182805480156107d657602002820191906000526020600020905b8154815260200190600101908083116107c2575b505050505093508180546107e99061100c565b80601f01602080910402602001604051908101604052809291908181526020018280546108159061100c565b80156108625780601f1061083757610100808354040283529160200191610862565b820191906000526020600020905b81548152906001019060200180831161084557829003601f168201915b505050505091508080546108759061100c565b80601f01602080910402602001604051908101604052809291908181526020018280546108a19061100c565b80156108ee5780601f106108c3576101008083540402835291602001916108ee565b820191906000526020600020905b8154815290600101906020018083116108d157829003601f168201915b505050505090509650965096509650965096505091939550919395565b600081815260026020526040812080546001600160a01b03166109415760405163351dc42760e01b815260040160405180910390fd5b6003015460ff1692915050565b600081815260026020526040902080546001600160a01b03166109845760405163351dc42760e01b815260040160405180910390fd5b80546001600160a01b031633148015906109a957506000546001600160a01b03163314155b156109c757604051637e95094360e11b815260040160405180910390fd5b60038101805460ff191690556040516000815282907f8004e92dc2b624e2c15f0b8daecdc917608f58f1a8191747082bf4bc2f86642290602001610340565b6000818152600260205260409020805460609182916001600160a01b0316610a415760405163351dc42760e01b815260040160405180910390fd5b806001018160020181805480602002602001604051908101604052809291908181526020016000905b82821015610b16578382906000526020600020018054610a899061100c565b80601f0160208091040260200160405190810160405280929190818152602001828054610ab59061100c565b8015610b025780601f10610ad757610100808354040283529160200191610b02565b820191906000526020600020905b815481529060010190602001808311610ae557829003601f168201915b505050505081526020019060010190610a6a565b50505050915080805480602002602001604051908101604052809291908181526020018280548015610b6757602002820191906000526020600020905b815481526020019060010190808311610b53575b505050505090509250925050915091565b610b80610bbb565b6001600160a01b038116610baf57604051631e4fbdf760e01b8152600060048201526024015b60405180910390fd5b610bb881610be8565b50565b6000546001600160a01b031633146106495760405163118cdaa760e01b8152336004820152602401610ba6565b600080546001600160a01b038381166001600160a01b0319831681178455604051919092169283917f8be0079c531659141344cd1fd0a4f28419497f9722a3daafe3b4186f6b6457e09190a35050565b600060208284031215610c4a57600080fd5b5035919050565b80356001600160a01b0381168114610c6857600080fd5b919050565b60008060408385031215610c8057600080fd5b610c8983610c51565b946020939093013593505050565b600060208284031215610ca957600080fd5b610cb282610c51565b9392505050565b600081518084526020808501945080840160005b83811015610ce957815187529582019590820190600101610ccd565b509495945050505050565b602081526000610cb26020830184610cb9565b60008083601f840112610d1957600080fd5b50813567ffffffffffffffff811115610d3157600080fd5b6020830191508360208260051b8501011115610d4c57600080fd5b9250929050565b60008083601f840112610d6557600080fd5b50813567ffffffffffffffff811115610d7d57600080fd5b602083019150836020828501011115610d4c57600080fd5b6000806000806000806000806080898b031215610db157600080fd5b883567ffffffffffffffff80821115610dc957600080fd5b610dd58c838d01610d07565b909a50985060208b0135915080821115610dee57600080fd5b610dfa8c838d01610d07565b909850965060408b0135915080821115610e1357600080fd5b610e1f8c838d01610d53565b909650945060608b0135915080821115610e3857600080fd5b50610e458b828c01610d53565b999c989b5096995094979396929594505050565b6000815180845260005b81811015610e7f57602081850181015186830182015201610e63565b506000602082860101526020601f19601f83011685010191505092915050565b600082825180855260208086019550808260051b84010181860160005b84811015610eea57601f19868403018952610ed8838351610e59565b98840198925090830190600101610ebc565b5090979650505050505050565b6001600160a01b038716815260c060208201819052600090610f1b90830188610e9f565b8281036040840152610f2d8188610cb9565b905085151560608401528281036080840152610f498186610e59565b905082810360a0840152610f5d8185610e59565b9998505050505050505050565b604081526000610f7d6040830185610e9f565b8281036020840152610f8f8185610cb9565b95945050505050565b634e487b7160e01b600052603260045260246000fd5b634e487b7160e01b600052601160045260246000fd5b80820180821115610fd757610fd7610fae565b92915050565b600060018201610fef57610fef610fae565b5060010190565b634e487b7160e01b600052604160045260246000fd5b600181811c9082168061102057607f821691505b60208210810361104057634e487b7160e01b600052602260045260246000fd5b50919050565b601f82111561109057600081815260208120601f850160051c8101602086101561106d5750805b601f850160051c820191505b8181101561108c57828155600101611079565b5050505b505050565b67ffffffffffffffff8311156110ad576110ad610ff6565b6110c1836110bb835461100c565b83611046565b6000601f8411600181146110f557600085156110dd5750838201355b600019600387901b1c1916600186901b17835561114f565b600083815260209020601f19861690835b828110156111265786850135825560209485019460019092019101611106565b50868210156111435760001960f88860031b161c19848701351681555b505060018560011b0183555b5050505050565b6000808335601e1984360301811261116d57600080fd5b83018035915067ffffffffffffffff82111561118857600080fd5b602001915036819003821315610d4c57600080fdfea26469706673582212209f5439f7f273066d2774dfe6c6e2d2f25f0b0d2925ae04a30abda3c71f6f8dc864736f6c63430008140033",
  "devdoc": {
    "details": "This contract is the canonical on-chain source of truth for basket composition.      It stores basket metadata including:      - Asset composition (list of asset identifiers)      - Weights (in basis points, must sum to 10000)      - Creator address (fund creator role)      - Activation state       IMPORTANT: This contract is pure metadata storage.      No pricing logic should exist here - that belongs in BasketOracle.       The basketId is a unique identifier assigned sequentially to each basket.      Asset identifiers are strings (e.g., \"AAPL\", \"GOLD\", \"NVDA\") that are used      by the BasketOracle to look up prices.",
    "errors": {
      "OwnableInvalidOwner(address)": [
        {
          "details": "The owner is not a valid owner account. (eg. `address(0)`)"
        }
      ],
      "OwnableUnauthorizedAccount(address)": [
        {
          "details": "The caller account is not authorized to perform an operation."
        }
      ]
    },
    "events": {
      "BasketCreated(uint256,address,uint256)": {
        "details": "Full basket details can be queried via getBasket(basketId)"
      }
    },
    "kind": "dev",
    "methods": {
      "basketExists(uint256)": {
        "params": {
          "basketId": "The basket ID to check"
        },
        "returns": {
          "_0": "True if exists, false otherwise"
        }
      },
      "createBasket(string[],uint256[],string,string)": {
        "details": "Only callable by anyone (fund creator role).      Weights must sum to 10000 basis points (100%).      Each weight must be non-zero.",
        "params": {
          "assets": "Array of asset identifiers",
          "name": "Human-readable name for the basket",
          "symbol": "Token symbol for the basket",
          "weights": "Array of weights in basis points"
        },
        "returns": {
          "basketId": "The unique ID assigned to the new basket"
        }
      },
      "deactivateBasket(uint256)": {
        "params": {
          "basketId": "The basket to deactivate"
        }
      },
      "getBasket(uint256)": {
        "params": {
          "basketId": "The basket ID to query"
        },
        "returns": {
          "active": "Whether the basket is active",
          "assets": "Array of asset identifiers",
          "creator": "The creator address",
          "name": "Basket name",
          "symbol": "Basket symbol",
          "weights": "Array of weights in basis points"
        }
      },
      "getBasketAssetCount(uint256)": {
        "params": {
          "basketId": "The basket ID to query"
        },
        "returns": {
          "_0": "Number of assets"
        }
      },
      "getBasketComposition(uint256)": {
        "params": {
          "basketId": "The basket ID to query"
        },
        "returns": {
          "assets": "Array of asset identifiers",
          "weights": "Array of weights in basis points"
        }
      },
      "getBasketsByCreator(address)": {
        "params": {
          "creator": "The creator address to query"
        },
        "returns": {
          "_0": "Array of basket IDs"
        }
      },
      "isBasketActive(uint256)": {
        "params": {
          "basketId": "The basket ID to check"
        },
        "returns": {
          "_0": "True if active, false otherwise"
        }
      },
      "owner()": {
        "details": "Returns the address of the current owner."
      },
      "reactivateBasket(uint256)": {
        "params": {
          "basketId": "The basket to reactivate"
        }
      },
      "renounceOwnership()": {
        "details": "Leaves the contract without owner. It will not be possible to call `onlyOwner` functions. Can only be called by the current owner. NOTE: Renouncing ownership will leave the contract without an owner, thereby disabling any functionality that is only available to the owner."
      },
      "transferOwnership(address)": {
        "details": "Transfers ownership of the contract to a new account (`newOwner`). Can only be called by the current owner."
      }
    },
    "title": "BasketRegistry",
    "version": 1
  },
  "userdoc": {
    "errors": {
      "ArrayLengthMismatch()": [
        {
          "notice": "Thrown when assets and weights arrays have different lengths"
        }
      ],
      "BasketDoesNotExist()": [
        {
          "notice": "Thrown when basket doesn't exist"
        }
      ],
      "EmptyAssetsArray()": [
        {
          "notice": "Thrown when assets array is empty"
        }
      ],
      "InvalidWeightsSum()": [
        {
          "notice": "Thrown when weights don't sum to 10000 basis points"
        }
      ],
      "NotBasketCreator()": [
        {
          "notice": "Thrown when caller is not the basket creator"
        }
      ],
      "ZeroWeight()": [
        {
          "notice": "Thrown when a weight is zero"
        }
      ]
    },
    "events": {
      "BasketActiveStateChanged(uint256,bool)": {
        "notice": "Emitted when a basket's active state changes"
      },
      "BasketCreated(uint256,address,uint256)": {
        "notice": "Emitted when a new basket is created"
      }
    },
    "kind": "user",
    "methods": {
      "basketCount()": {
        "notice": "Counter for generating unique basket IDs"
      },
      "basketExists(uint256)": {
        "notice": "Check if a basket exists"
      },
      "createBasket(string[],uint256[],string,string)": {
        "notice": "Create a new basket with specified assets and weights"
      },
      "creatorBaskets(address,uint256)": {
        "notice": "Mapping from basket creator to list of their basket IDs"
      },
      "deactivateBasket(uint256)": {
        "notice": "Deactivate a basket (only creator or owner)"
      },
      "getBasket(uint256)": {
        "notice": "Get complete basket data by ID"
      },
      "getBasketAssetCount(uint256)": {
        "notice": "Get the number of assets in a basket"
      },
      "getBasketComposition(uint256)": {
        "notice": "Get basket composition (assets and weights only)"
      },
      "getBasketsByCreator(address)": {
        "notice": "Get all basket IDs created by a specific address"
      },
      "isBasketActive(uint256)": {
        "notice": "Check if a basket is active"
      },
      "reactivateBasket(uint256)": {
        "notice": "Reactivate a basket (only creator or owner)"
      }
    },
    "notice": "Registry for basket-based synthetic assets",
    "version": 1
  },
  "storageLayout": {
    "storage": [
      {
        "astId": 8,
        "contract": "contracts/BasketRegistry.sol:BasketRegistry",
        "label": "_owner",
        "offset": 0,
        "slot": "0",
        "type": "t_address"
      },
      {
        "astId": 3680,
        "contract": "contracts/BasketRegistry.sol:BasketRegistry",
        "label": "basketCount",
        "offset": 0,
        "slot": "1",
        "type": "t_uint256"
      },
      {
        "astId": 3686,
        "contract": "contracts/BasketRegistry.sol:BasketRegistry",
        "label": "baskets",
        "offset": 0,
        "slot": "2",
        "type": "t_mapping(t_uint256,t_struct(Basket)3677_storage)"
      },
      {
        "astId": 3692,
        "contract": "contracts/BasketRegistry.sol:BasketRegistry",
        "label": "creatorBaskets",
        "offset": 0,
        "slot": "3",
        "type": "t_mapping(t_address,t_array(t_uint256)dyn_storage)"
      }
    ],
    "types": {
      "t_address": {
        "encoding": "inplace",
        "label": "address",
        "numberOfBytes": "20"
      },
      "t_array(t_string_storage)dyn_storage": {
        "base": "t_string_storage",
        "encoding": "dynamic_array",
        "label": "string[]",
        "numberOfBytes": "32"
      },
      "t_array(t_uint256)dyn_storage": {
        "base": "t_uint256",
        "encoding": "dynamic_array",
        "label": "uint256[]",
        "numberOfBytes": "32"
      },
      "t_bool": {
        "encoding": "inplace",
        "label": "bool",
        "numberOfBytes": "1"
      },
      "t_mapping(t_address,t_array(t_uint256)dyn_storage)": {
        "encoding": "mapping",
        "key": "t_address",
        "label": "mapping(address => uint256[])",
        "numberOfBytes": "32",
        "value": "t_array(t_uint256)dyn_storage"
      },
      "t_mapping(t_uint256,t_struct(Basket)3677_storage)": {
        "encoding": "mapping",
        "key": "t_uint256",
        "label": "mapping(uint256 => struct BasketRegistry.Basket)",
        "numberOfBytes": "32",
        "value": "t_struct(Basket)3677_storage"
      },
      "t_string_storage": {
        "encoding": "bytes",
        "label": "string",
        "numberOfBytes": "32"
      },
      "t_struct(Basket)3677_storage": {
        "encoding": "inplace",
        "label": "struct BasketRegistry.Basket",
        "members": [
          {
            "astId": 3664,
            "contract": "contracts/BasketRegistry.sol:BasketRegistry",
            "label": "creator",
            "offset": 0,
            "slot": "0",
            "type": "t_address"
          },
          {
            "astId": 3667,
            "contract": "contracts/BasketRegistry.sol:BasketRegistry",
            "label": "assets",
            "offset": 0,
            "slot": "1",
            "type": "t_array(t_string_storage)dyn_storage"
          },
          {
            "astId": 3670,
            "contract": "contracts/BasketRegistry.sol:BasketRegistry",
            "label": "weights",
            "offset": 0,
            "slot": "2",
            "type": "t_array(t_uint256)dyn_storage"
          },
          {
            "astId": 3672,
            "contract": "contracts/BasketRegistry.sol:BasketRegistry",
            "label": "active",
            "offset": 0,
            "slot": "3",
            "type": "t_bool"
          },
          {
            "astId": 3674,
            "contract": "contracts/BasketRegistry.sol:BasketRegistry",
            "label": "name",
            "offset": 0,
            "slot": "4",
            "type": "t_string_storage"
          },
          {
            "astId": 3676,
            "contract": "contracts/BasketRegistry.sol:BasketRegistry",
            "label": "symbol",
            "offset": 0,
            "slot": "5",
            "type": "t_string_storage"
          }
        ],
        "numberOfBytes": "192"
      },
      "t_uint256": {
        "encoding": "inplace",
        "label": "uint256",
        "numberOfBytes": "32"
      }
    }
  }
}