{
  "address": "0x8a3E21b968118E5B8cF80D36A3F91DDf068a3d34",
  "abi": [
    {
      "inputs": [
        {
          "internalType": "address",
          "name": "_basketRegistry",
          "type": "address"
        },
        {
          "internalType": "address",
          "name": "_basketVault",
          "type": "address"
        }
      ],
      "stateMutability": "nonpayable",
      "type": "constructor"
    },
    {
      "inputs": [
        {
          "internalType": "address",
          "name": "owner",
          "type": "address"
        }
      ],
      "name": "OwnableInvalidOwner",
      "type": "error"
    },
    {
      "inputs": [
        {
          "internalType": "address",
          "name": "account",
          "type": "address"
        }
      ],
      "name": "OwnableUnauthorizedAccount",
      "type": "error"
    },
    {
      "inputs": [],
      "name": "VaultNotSet",
      "type": "error"
    },
    {
      "inputs": [],
      "name": "ZeroAddress",
      "type": "error"
    },
    {
      "anonymous": false,
      "inputs": [
        {
          "indexed": true,
          "internalType": "uint256",
          "name": "basketId",
          "type": "uint256"
        },
        {
          "indexed": true,
          "internalType": "address",
          "name": "creator",
          "type": "address"
        },
        {
          "indexed": false,
          "internalType": "address",
          "name": "tokenAddress",
          "type": "address"
        },
        {
          "indexed": false,
          "internalType": "string",
          "name": "name",
          "type": "string"
        },
        {
          "indexed": false,
          "internalType": "string",
          "name": "symbol",
          "type": "string"
        }
      ],
      "name": "BasketCreatedWithToken",
      "type": "event"
    },
    {
      "anonymous": false,
      "inputs": [
        {
          "indexed": true,
          "internalType": "address",
          "name": "previousOwner",
          "type": "address"
        },
        {
          "indexed": true,
          "internalType": "address",
          "name": "newOwner",
          "type": "address"
        }
      ],
      "name": "OwnershipTransferred",
      "type": "event"
    },
    {
      "anonymous": false,
      "inputs": [
        {
          "indexed": true,
          "internalType": "address",
          "name": "oldVault",
          "type": "address"
        },
        {
          "indexed": true,
          "internalType": "address",
          "name": "newVault",
          "type": "address"
        }
      ],
      "name": "VaultUpdated",
      "type": "event"
    },
    {
      "inputs": [],
      "name": "basketRegistry",
      "outputs": [
        {
          "internalType": "contract BasketRegistry",
          "name": "",
          "type": "address"
        }
      ],
      "stateMutability": "view",
      "type": "function"
    },
    {
      "inputs": [
        {
          "internalType": "uint256",
          "name": "",
          "type": "uint256"
        }
      ],
      "name": "basketTokens",
      "outputs": [
        {
          "internalType": "address",
          "name": "",
          "type": "address"
        }
      ],
      "stateMutability": "view",
      "type": "function"
    },
    {
      "inputs": [],
      "name": "basketVault",
      "outputs": [
        {
          "internalType": "contract BasketVault",
          "name": "",
          "type": "address"
        }
      ],
      "stateMutability": "view",
      "type": "function"
    },
    {
      "inputs": [
        {
          "internalType": "string[]",
          "name": "assets",
          "type": "string[]"
        },
        {
          "internalType": "uint256[]",
          "name": "weights",
          "type": "uint256[]"
        },
        {
          "internalType": "string",
          "name": "name",
          "type": "string"
        },
        {
          "internalType": "string",
          "name": "symbol",
          "type": "string"
        }
      ],
      "name": "createBasketWithToken",
      "outputs": [
        {
          "internalType": "uint256",
          "name": "basketId",
          "type": "uint256"
        },
        {
          "internalType": "address",
          "name": "tokenAddress",
          "type": "address"
        }
      ],
      "stateMutability": "nonpayable",
      "type": "function"
    },
    {
      "inputs": [
        {
          "internalType": "uint256",
          "name": "basketId",
          "type": "uint256"
        }
      ],
      "name": "getBasketToken",
      "outputs": [
        {
          "internalType": "address",
          "name": "",
          "type": "address"
        }
      ],
      "stateMutability": "view",
      "type": "function"
    },
    {
      "inputs": [],
      "name": "owner",
      "outputs": [
        {
          "internalType": "address",
          "name": "",
          "type": "address"
        }
      ],
      "stateMutability": "view",
      "type": "function"
    },
    {
      "inputs": [],
      "name": "renounceOwnership",
      "outputs": [],
      "stateMutability": "nonpayable",
      "type": "function"
    },
    {
      "inputs": [
        {
          "internalType": "address",
          "name": "_vault",
          "type": "address"
        }
      ],
      "name": "setVault",
      "outputs": [],
      "stateMutability": "nonpayable",
      "type": "function"
    },
    {
      "inputs": [
        {
          "internalType": "address",
          "name": "newOwner",
          "type": "address"
        }
      ],
      "name": "transferOwnership",
      "outputs": [],
      "stateMutability": "nonpayable",
      "type": "function"
    }
  ],
  "transactionHash": "0x80022d52dc13549837c44c52b89e7fd890b8cc5c8a333c2326cbdbc57fd60948",
  "args": [
    "0x4D03bfC19572c19E57B90Ca2Bb585abb2F005068",
    "0xb62C526E8bE91923C8fFBa208908125e59712D73"
  ],
  "numDeployments": 1,
  "solcInputHash": "37763e3990532bd3f9244f26b3e3871c",
  "bytecode": "0x60a060405234801561001057600080fd5b506040516119a03803806119a083398101604081905261002f9161012a565b338061005557604051631e4fbdf760e01b81526000600482015260240160405180910390fd5b61005e816100be565b506001600160a01b0382166100865760405163d92e233d60e01b815260040160405180910390fd5b6001600160a01b038083166080528116156100b757600180546001600160a01b0319166001600160a01b0383161790555b505061015d565b600080546001600160a01b038381166001600160a01b0319831681178455604051919092169283917f8be0079c531659141344cd1fd0a4f28419497f9722a3daafe3b4186f6b6457e09190a35050565b80516001600160a01b038116811461012557600080fd5b919050565b6000806040838503121561013d57600080fd5b6101468361010e565b91506101546020840161010e565b90509250929050565b60805161182161017f6000396000818161019d01526102b801526118216000f3fe60806040523480156200001157600080fd5b50600436106200009f5760003560e01c80638da5cb5b116200006e5780638da5cb5b146200012457806398d34ab214620001365780639aa949b5146200016b578063baf754891462000197578063f2fde38b14620001bf57600080fd5b806322105d7214620000a457806344a7e5c814620000d55780636817031b1462000101578063715018a6146200011a575b600080fd5b600154620000b8906001600160a01b031681565b6040516001600160a01b0390911681526020015b60405180910390f35b620000b8620000e636600462000604565b6002602052600090815260409020546001600160a01b031681565b62000118620001123660046200061e565b620001d6565b005b620001186200025a565b6000546001600160a01b0316620000b8565b6200014d62000147366004620006e4565b62000272565b604080519283526001600160a01b03909116602083015201620000cc565b620000b86200017c36600462000604565b6000908152600260205260409020546001600160a01b031690565b620000b87f000000000000000000000000000000000000000000000000000000000000000081565b62000118620001d03660046200061e565b6200052f565b620001e062000577565b6001600160a01b038116620002085760405163d92e233d60e01b815260040160405180910390fd5b600180546001600160a01b038381166001600160a01b0319831681179093556040519116919082907f483bdedaaf23706a9800ac1af0d852b34927780d79f9d6ba60a80c7cad75ea3990600090a35050565b6200026462000577565b620002706000620005a6565b565b60015460009081906001600160a01b0316620002a157604051630647140b60e51b815260040160405180910390fd5b60405163520acd9960e01b81526001600160a01b037f0000000000000000000000000000000000000000000000000000000000000000169063520acd9990620002fd908d908d908d908d908d908d908d908d9060040162000811565b6020604051808303816000875af11580156200031d573d6000803e3d6000fd5b505050506040513d601f19601f82011682018060405250810190620003439190620008fe565b915060008287878787306040516200035b90620005f6565b6200036c9695949392919062000918565b604051809103906000f08015801562000389573d6000803e3d6000fd5b506000848152600260205260409081902080546001600160a01b0319166001600160a01b038481169182179092556001549251636817031b60e01b8152929091166004830152919350839250636817031b90602401600060405180830381600087803b158015620003f957600080fd5b505af11580156200040e573d6000803e3d6000fd5b50506001546040516368dbb78960e11b8152600481018790526001600160a01b038681166024830152909116925063d1b76f129150604401600060405180830381600087803b1580156200046157600080fd5b505af115801562000476573d6000803e3d6000fd5b505060405163f2fde38b60e01b81523360048201526001600160a01b038416925063f2fde38b9150602401600060405180830381600087803b158015620004bc57600080fd5b505af1158015620004d1573d6000803e3d6000fd5b50505050336001600160a01b0316837f440cf05d34384b0ba75bcf3707f7098799280901355906b6f00d2d33a8be7feb848a8a8a8a6040516200051995949392919062000965565b60405180910390a3509850989650505050505050565b6200053962000577565b6001600160a01b0381166200056957604051631e4fbdf760e01b8152600060048201526024015b60405180910390fd5b6200057481620005a6565b50565b6000546001600160a01b03163314620002705760405163118cdaa760e01b815233600482015260240162000560565b600080546001600160a01b038381166001600160a01b0319831681178455604051919092169283917f8be0079c531659141344cd1fd0a4f28419497f9722a3daafe3b4186f6b6457e09190a35050565b610e3e80620009ae83390190565b6000602082840312156200061757600080fd5b5035919050565b6000602082840312156200063157600080fd5b81356001600160a01b03811681146200064957600080fd5b9392505050565b60008083601f8401126200066357600080fd5b50813567ffffffffffffffff8111156200067c57600080fd5b6020830191508360208260051b85010111156200069857600080fd5b9250929050565b60008083601f840112620006b257600080fd5b50813567ffffffffffffffff811115620006cb57600080fd5b6020830191508360208285010111156200069857600080fd5b6000806000806000806000806080898b0312156200070157600080fd5b883567ffffffffffffffff808211156200071a57600080fd5b620007288c838d0162000650565b909a50985060208b01359150808211156200074257600080fd5b620007508c838d0162000650565b909850965060408b01359150808211156200076a57600080fd5b620007788c838d016200069f565b909650945060608b01359150808211156200079257600080fd5b50620007a18b828c016200069f565b999c989b5096995094979396929594505050565b81835281816020850137506000828201602090810191909152601f909101601f19169091010190565b81835260006001600160fb1b03831115620007f857600080fd5b8260051b80836020870137939093016020019392505050565b60808082528101889052600060a060058a901b830181019083018b835b8c811015620008a957858403609f190183528135368f9003601e190181126200085657600080fd5b8e01602081810191359067ffffffffffffffff8211156200087657600080fd5b8136038313156200088657600080fd5b62000893878385620007b5565b965094850194939093019250506001016200082e565b5050508281036020840152620008c181898b620007de565b90508281036040840152620008d8818789620007b5565b90508281036060840152620008ef818587620007b5565b9b9a5050505050505050505050565b6000602082840312156200091157600080fd5b5051919050565b86815260806020820152600062000934608083018789620007b5565b828103604084015262000949818688620007b5565b91505060018060a01b0383166060830152979650505050505050565b6001600160a01b03861681526060602082018190526000906200098c9083018688620007b5565b8281036040840152620009a1818587620007b5565b9897505050505050505056fe60a06040523480156200001157600080fd5b5060405162000e3e38038062000e3e8339810160408190526200003491620001b8565b8083836003620000458382620002dd565b506004620000548282620002dd565b5050506001600160a01b0381166200008657604051631e4fbdf760e01b81526000600482015260240160405180910390fd5b6200009181620000a1565b50505060809190915250620003a9565b600580546001600160a01b038381166001600160a01b0319831681179093556040519116919082907f8be0079c531659141344cd1fd0a4f28419497f9722a3daafe3b4186f6b6457e090600090a35050565b634e487b7160e01b600052604160045260246000fd5b600082601f8301126200011b57600080fd5b81516001600160401b0380821115620001385762000138620000f3565b604051601f8301601f19908116603f01168101908282118183101715620001635762000163620000f3565b816040528381526020925086838588010111156200018057600080fd5b600091505b83821015620001a4578582018301518183018401529082019062000185565b600093810190920192909252949350505050565b60008060008060808587031215620001cf57600080fd5b845160208601519094506001600160401b0380821115620001ef57600080fd5b620001fd8883890162000109565b945060408701519150808211156200021457600080fd5b50620002238782880162000109565b606087015190935090506001600160a01b03811681146200024357600080fd5b939692955090935050565b600181811c908216806200026357607f821691505b6020821081036200028457634e487b7160e01b600052602260045260246000fd5b50919050565b601f821115620002d857600081815260208120601f850160051c81016020861015620002b35750805b601f850160051c820191505b81811015620002d457828155600101620002bf565b5050505b505050565b81516001600160401b03811115620002f957620002f9620000f3565b62000311816200030a84546200024e565b846200028a565b602080601f831160018114620003495760008415620003305750858301515b600019600386901b1c1916600185901b178555620002d4565b600085815260208120601f198616915b828110156200037a5788860151825594840194600190910190840162000359565b5085821015620003995787850151600019600388901b60f8161c191681555b5050505050600190811b01905550565b608051610a79620003c5600039600061019f0152610a796000f3fe608060405234801561001057600080fd5b506004361061010b5760003560e01c806370a08231116100a25780639dc29fac116100715780639dc29fac14610232578063a9059cbb14610245578063dd62ed3e14610258578063f2fde38b14610291578063fbfa77cf146102a457600080fd5b806370a08231146101d4578063715018a6146101fd5780638da5cb5b1461020557806395d89b411461022a57600080fd5b8063313ce567116100de578063313ce5671461017657806340c10f191461018557806362afa7721461019a5780636817031b146101c157600080fd5b806306fdde0314610110578063095ea7b31461012e57806318160ddd1461015157806323b872dd14610163575b600080fd5b6101186102b7565b60405161012591906108c3565b60405180910390f35b61014161013c36600461092d565b610349565b6040519015158152602001610125565b6002545b604051908152602001610125565b610141610171366004610957565b610363565b60405160128152602001610125565b61019861019336600461092d565b610387565b005b6101557f000000000000000000000000000000000000000000000000000000000000000081565b6101986101cf366004610993565b6103c0565b6101556101e2366004610993565b6001600160a01b031660009081526020819052604090205490565b610198610441565b6005546001600160a01b03165b6040516001600160a01b039091168152602001610125565b610118610455565b61019861024036600461092d565b610464565b61014161025336600461092d565b610499565b6101556102663660046109b5565b6001600160a01b03918216600090815260016020908152604080832093909416825291909152205490565b61019861029f366004610993565b6104a7565b600654610212906001600160a01b031681565b6060600380546102c6906109e8565b80601f01602080910402602001604051908101604052809291908181526020018280546102f2906109e8565b801561033f5780601f106103145761010080835404028352916020019161033f565b820191906000526020600020905b81548152906001019060200180831161032257829003601f168201915b5050505050905090565b6000336103578185856104ea565b60019150505b92915050565b6000336103718582856104fc565b61037c85858561057a565b506001949350505050565b6006546001600160a01b031633146103b257604051638d1af8bd60e01b815260040160405180910390fd5b6103bc82826105d9565b5050565b6103c861060f565b6001600160a01b0381166103ef5760405163d580689d60e01b815260040160405180910390fd5b600680546001600160a01b038381166001600160a01b0319831681179093556040519116919082907f483bdedaaf23706a9800ac1af0d852b34927780d79f9d6ba60a80c7cad75ea3990600090a35050565b61044961060f565b610453600061063c565b565b6060600480546102c6906109e8565b6006546001600160a01b0316331461048f57604051638d1af8bd60e01b815260040160405180910390fd5b6103bc828261068e565b60003361035781858561057a565b6104af61060f565b6001600160a01b0381166104de57604051631e4fbdf760e01b8152600060048201526024015b60405180910390fd5b6104e78161063c565b50565b6104f783838360016106c4565b505050565b6001600160a01b038381166000908152600160209081526040808320938616835292905220546000198114610574578181101561056557604051637dc7a0d960e11b81526001600160a01b038416600482015260248101829052604481018390526064016104d5565b610574848484840360006106c4565b50505050565b6001600160a01b0383166105a457604051634b637e8f60e11b8152600060048201526024016104d5565b6001600160a01b0382166105ce5760405163ec442f0560e01b8152600060048201526024016104d5565b6104f7838383610799565b6001600160a01b0382166106035760405163ec442f0560e01b8152600060048201526024016104d5565b6103bc60008383610799565b6005546001600160a01b031633146104535760405163118cdaa760e01b81523360048201526024016104d5565b600580546001600160a01b038381166001600160a01b0319831681179093556040519116919082907f8be0079c531659141344cd1fd0a4f28419497f9722a3daafe3b4186f6b6457e090600090a35050565b6001600160a01b0382166106b857604051634b637e8f60e11b8152600060048201526024016104d5565b6103bc82600083610799565b6001600160a01b0384166106ee5760405163e602df0560e01b8152600060048201526024016104d5565b6001600160a01b03831661071857604051634a1406b160e11b8152600060048201526024016104d5565b6001600160a01b038085166000908152600160209081526040808320938716835292905220829055801561057457826001600160a01b0316846001600160a01b03167f8c5be1e5ebec7d5bd14f71427d1e84f3dd0314c0f7b2291e5b200ac8c7c3b9258460405161078b91815260200190565b60405180910390a350505050565b6001600160a01b0383166107c45780600260008282546107b99190610a22565b909155506108369050565b6001600160a01b038316600090815260208190526040902054818110156108175760405163391434e360e21b81526001600160a01b038516600482015260248101829052604481018390526064016104d5565b6001600160a01b03841660009081526020819052604090209082900390555b6001600160a01b03821661085257600280548290039055610871565b6001600160a01b03821660009081526020819052604090208054820190555b816001600160a01b0316836001600160a01b03167fddf252ad1be2c89b69c2b068fc378daa952ba7f163c4a11628f55a4df523b3ef836040516108b691815260200190565b60405180910390a3505050565b600060208083528351808285015260005b818110156108f0578581018301518582016040015282016108d4565b506000604082860101526040601f19601f8301168501019250505092915050565b80356001600160a01b038116811461092857600080fd5b919050565b6000806040838503121561094057600080fd5b61094983610911565b946020939093013593505050565b60008060006060848603121561096c57600080fd5b61097584610911565b925061098360208501610911565b9150604084013590509250925092565b6000602082840312156109a557600080fd5b6109ae82610911565b9392505050565b600080604083850312156109c857600080fd5b6109d183610911565b91506109df60208401610911565b90509250929050565b600181811c908216806109fc57607f821691505b602082108103610a1c57634e487b7160e01b600052602260045260246000fd5b50919050565b8082018082111561035d57634e487b7160e01b600052601160045260246000fdfea2646970667358221220c5911d0a8b701085773365f1a6576d2388a4a37619552f8f17ff0c119a26d23064736f6c63430008140033a2646970667358221220f4283666fc7b5fa9bbd394709c828c86729759acc91a35712ed316287a433e5c64736f6c63430008140033",
  "devdoc": {
    "details": "This factory handles the complete lifecycle of basket creation:      1. Creates the basket in BasketRegistry      2. Deploys an EquiBasketToken for the basket      3. Sets the vault as the token minter      4. Registers the token in the BasketVault       This ensures users never encounter \"BasketTokenNotRegistered\" errors      because the token is always created and registered atomically.",
    "errors": {
      "OwnableInvalidOwner(address)": [
        {
          "details": "The owner is not a valid owner account. (eg. `address(0)`)"
        }
      ],
      "OwnableUnauthorizedAccount(address)": [
        {
          "details": "The caller account is not authorized to perform an operation."
        }
      ]
    },
    "kind": "dev",
    "methods": {
      "constructor": {
        "params": {
          "_basketRegistry": "Address of the BasketRegistry",
          "_basketVault": "Address of the BasketVault (can be set later)"
        }
      },
      "createBasketWithToken(string[],uint256[],string,string)": {
        "details": "This function:      1. Creates the basket in registry      2. Deploys a new EquiBasketToken      3. Sets vault as the token minter      4. Registers token in vault ",
        "params": {
          "assets": "Array of asset identifiers (e.g., [\"AAPL\", \"NVDA\"])",
          "name": "Human-readable name for the basket",
          "symbol": "Token symbol for the basket",
          "weights": "Array of weights in basis points (must sum to 10000)"
        },
        "returns": {
          "basketId": "The unique ID assigned to the new basket",
          "tokenAddress": "The address of the deployed EquiBasketToken"
        }
      },
      "getBasketToken(uint256)": {
        "params": {
          "basketId": "The basket ID"
        },
        "returns": {
          "_0": "The token address (zero if not created via factory)"
        }
      },
      "owner()": {
        "details": "Returns the address of the current owner."
      },
      "renounceOwnership()": {
        "details": "Leaves the contract without owner. It will not be possible to call `onlyOwner` functions. Can only be called by the current owner. NOTE: Renouncing ownership will leave the contract without an owner, thereby disabling any functionality that is only available to the owner."
      },
      "setVault(address)": {
        "params": {
          "_vault": "Address of the BasketVault"
        }
      },
      "transferOwnership(address)": {
        "details": "Transfers ownership of the contract to a new account (`newOwner`). Can only be called by the current owner."
      }
    },
    "title": "BasketFactory",
    "version": 1
  },
  "userdoc": {
    "kind": "user",
    "methods": {
      "basketRegistry()": {
        "notice": "Reference to the BasketRegistry"
      },
      "basketTokens(uint256)": {
        "notice": "Mapping from basketId to its token address"
      },
      "basketVault()": {
        "notice": "Reference to the BasketVault"
      },
      "constructor": {
        "notice": "Deploy the factory with required dependencies"
      },
      "createBasketWithToken(string[],uint256[],string,string)": {
        "notice": "Create a complete basket with token in a single transaction"
      },
      "getBasketToken(uint256)": {
        "notice": "Get the token address for a basket"
      },
      "setVault(address)": {
        "notice": "Set or update the vault address"
      }
    },
    "notice": "Factory for creating complete basket setups in a single transaction",
    "version": 1
  },
  "storageLayout": {
    "storage": [
      {
        "astId": 8,
        "contract": "contracts/BasketFactory.sol:BasketFactory",
        "label": "_owner",
        "offset": 0,
        "slot": "0",
        "type": "t_address"
      },
      {
        "astId": 1019,
        "contract": "contracts/BasketFactory.sol:BasketFactory",
        "label": "basketVault",
        "offset": 0,
        "slot": "1",
        "type": "t_contract(BasketVault)3639"
      },
      {
        "astId": 1024,
        "contract": "contracts/BasketFactory.sol:BasketFactory",
        "label": "basketTokens",
        "offset": 0,
        "slot": "2",
        "type": "t_mapping(t_uint256,t_address)"
      }
    ],
    "types": {
      "t_address": {
        "encoding": "inplace",
        "label": "address",
        "numberOfBytes": "20"
      },
      "t_contract(BasketVault)3639": {
        "encoding": "inplace",
        "label": "contract BasketVault",
        "numberOfBytes": "20"
      },
      "t_mapping(t_uint256,t_address)": {
        "encoding": "mapping",
        "key": "t_uint256",
        "label": "mapping(uint256 => address)",
        "numberOfBytes": "32",
        "value": "t_address"
      },
      "t_uint256": {
        "encoding": "inplace",
        "label": "uint256",
        "numberOfBytes": "32"
      }
    }
  }
}