{
  "address": "0x98D18E6712d7aa15E726bB41A1A2F5B2A70FdcCd",
  "abi": [
    {
      "inputs": [
        {
          "internalType": "address",
          "name": "_basketRegistry",
          "type": "address"
        },
        {
          "internalType": "address",
          "name": "_basketOracle",
          "type": "address"
        },
        {
          "internalType": "address",
          "name": "_basketVault",
          "type": "address"
        },
        {
          "internalType": "uint256",
          "name": "_defaultSwapFeeBps",
          "type": "uint256"
        }
      ],
      "stateMutability": "nonpayable",
      "type": "constructor"
    },
    {
      "inputs": [],
      "name": "FeeTooHigh",
      "type": "error"
    },
    {
      "inputs": [
        {
          "internalType": "address",
          "name": "owner",
          "type": "address"
        }
      ],
      "name": "OwnableInvalidOwner",
      "type": "error"
    },
    {
      "inputs": [
        {
          "internalType": "address",
          "name": "account",
          "type": "address"
        }
      ],
      "name": "OwnableUnauthorizedAccount",
      "type": "error"
    },
    {
      "inputs": [],
      "name": "VaultNotSet",
      "type": "error"
    },
    {
      "inputs": [],
      "name": "ZeroAddress",
      "type": "error"
    },
    {
      "anonymous": false,
      "inputs": [
        {
          "indexed": true,
          "internalType": "uint256",
          "name": "basketId",
          "type": "uint256"
        },
        {
          "indexed": true,
          "internalType": "address",
          "name": "creator",
          "type": "address"
        },
        {
          "indexed": false,
          "internalType": "address",
          "name": "tokenAddress",
          "type": "address"
        },
        {
          "indexed": false,
          "internalType": "address",
          "name": "poolAddress",
          "type": "address"
        },
        {
          "indexed": false,
          "internalType": "string",
          "name": "name",
          "type": "string"
        },
        {
          "indexed": false,
          "internalType": "string",
          "name": "symbol",
          "type": "string"
        }
      ],
      "name": "BasketCreatedWithToken",
      "type": "event"
    },
    {
      "anonymous": false,
      "inputs": [
        {
          "indexed": false,
          "internalType": "uint256",
          "name": "oldFee",
          "type": "uint256"
        },
        {
          "indexed": false,
          "internalType": "uint256",
          "name": "newFee",
          "type": "uint256"
        }
      ],
      "name": "DefaultSwapFeeUpdated",
      "type": "event"
    },
    {
      "anonymous": false,
      "inputs": [
        {
          "indexed": true,
          "internalType": "address",
          "name": "previousOwner",
          "type": "address"
        },
        {
          "indexed": true,
          "internalType": "address",
          "name": "newOwner",
          "type": "address"
        }
      ],
      "name": "OwnershipTransferred",
      "type": "event"
    },
    {
      "anonymous": false,
      "inputs": [
        {
          "indexed": true,
          "internalType": "address",
          "name": "oldVault",
          "type": "address"
        },
        {
          "indexed": true,
          "internalType": "address",
          "name": "newVault",
          "type": "address"
        }
      ],
      "name": "VaultUpdated",
      "type": "event"
    },
    {
      "inputs": [],
      "name": "basketOracle",
      "outputs": [
        {
          "internalType": "contract BasketOracle",
          "name": "",
          "type": "address"
        }
      ],
      "stateMutability": "view",
      "type": "function"
    },
    {
      "inputs": [
        {
          "internalType": "uint256",
          "name": "",
          "type": "uint256"
        }
      ],
      "name": "basketPools",
      "outputs": [
        {
          "internalType": "address",
          "name": "",
          "type": "address"
        }
      ],
      "stateMutability": "view",
      "type": "function"
    },
    {
      "inputs": [],
      "name": "basketRegistry",
      "outputs": [
        {
          "internalType": "contract BasketRegistry",
          "name": "",
          "type": "address"
        }
      ],
      "stateMutability": "view",
      "type": "function"
    },
    {
      "inputs": [
        {
          "internalType": "uint256",
          "name": "",
          "type": "uint256"
        }
      ],
      "name": "basketTokens",
      "outputs": [
        {
          "internalType": "address",
          "name": "",
          "type": "address"
        }
      ],
      "stateMutability": "view",
      "type": "function"
    },
    {
      "inputs": [],
      "name": "basketVault",
      "outputs": [
        {
          "internalType": "contract BasketVault",
          "name": "",
          "type": "address"
        }
      ],
      "stateMutability": "view",
      "type": "function"
    },
    {
      "inputs": [
        {
          "internalType": "string[]",
          "name": "assets",
          "type": "string[]"
        },
        {
          "internalType": "uint256[]",
          "name": "weights",
          "type": "uint256[]"
        },
        {
          "internalType": "string",
          "name": "name",
          "type": "string"
        },
        {
          "internalType": "string",
          "name": "symbol",
          "type": "string"
        }
      ],
      "name": "createBasketWithToken",
      "outputs": [
        {
          "internalType": "uint256",
          "name": "basketId",
          "type": "uint256"
        },
        {
          "internalType": "address",
          "name": "tokenAddress",
          "type": "address"
        },
        {
          "internalType": "address",
          "name": "poolAddress",
          "type": "address"
        }
      ],
      "stateMutability": "nonpayable",
      "type": "function"
    },
    {
      "inputs": [],
      "name": "defaultSwapFeeBps",
      "outputs": [
        {
          "internalType": "uint256",
          "name": "",
          "type": "uint256"
        }
      ],
      "stateMutability": "view",
      "type": "function"
    },
    {
      "inputs": [
        {
          "internalType": "uint256",
          "name": "basketId",
          "type": "uint256"
        }
      ],
      "name": "getBasketPool",
      "outputs": [
        {
          "internalType": "address",
          "name": "",
          "type": "address"
        }
      ],
      "stateMutability": "view",
      "type": "function"
    },
    {
      "inputs": [
        {
          "internalType": "uint256",
          "name": "basketId",
          "type": "uint256"
        }
      ],
      "name": "getBasketToken",
      "outputs": [
        {
          "internalType": "address",
          "name": "",
          "type": "address"
        }
      ],
      "stateMutability": "view",
      "type": "function"
    },
    {
      "inputs": [],
      "name": "owner",
      "outputs": [
        {
          "internalType": "address",
          "name": "",
          "type": "address"
        }
      ],
      "stateMutability": "view",
      "type": "function"
    },
    {
      "inputs": [],
      "name": "renounceOwnership",
      "outputs": [],
      "stateMutability": "nonpayable",
      "type": "function"
    },
    {
      "inputs": [
        {
          "internalType": "uint256",
          "name": "_newFeeBps",
          "type": "uint256"
        }
      ],
      "name": "setDefaultSwapFee",
      "outputs": [],
      "stateMutability": "nonpayable",
      "type": "function"
    },
    {
      "inputs": [
        {
          "internalType": "address",
          "name": "_vault",
          "type": "address"
        }
      ],
      "name": "setVault",
      "outputs": [],
      "stateMutability": "nonpayable",
      "type": "function"
    },
    {
      "inputs": [
        {
          "internalType": "address",
          "name": "newOwner",
          "type": "address"
        }
      ],
      "name": "transferOwnership",
      "outputs": [],
      "stateMutability": "nonpayable",
      "type": "function"
    }
  ],
  "transactionHash": "0x223c2ce4ed8ece0955544e66ce9533c3e1da2402008d23cbd0124dd812f981f1",
  "args": [
    "0x20BB2aBA613Fe2081b8AA6adBc9b96273f5447E7",
    "0x1fC45b7FFd83612e2dC4B0a43069a472ea4D6228",
    "0xFbA98a9990122936ADAc80E248f0e302e118F8E8",
    30
  ],
  "numDeployments": 1,
  "solcInputHash": "333fa06d8f62f0dc2f0b9fa5241e7c04",
  "bytecode": "0x60c060405234801561001057600080fd5b50604051620039d3380380620039d383398101604081905261003191610183565b338061005757604051631e4fbdf760e01b81526000600482015260240160405180910390fd5b61006081610117565b506001600160a01b0384166100885760405163d92e233d60e01b815260040160405180910390fd5b6001600160a01b0383166100af5760405163d92e233d60e01b815260040160405180910390fd5b6103e88111156100d25760405163cd4e616760e01b815260040160405180910390fd5b6001600160a01b0380851660805283811660a052600282905582161561010e57600180546001600160a01b0319166001600160a01b0384161790555b505050506101ce565b600080546001600160a01b038381166001600160a01b0319831681178455604051919092169283917f8be0079c531659141344cd1fd0a4f28419497f9722a3daafe3b4186f6b6457e09190a35050565b80516001600160a01b038116811461017e57600080fd5b919050565b6000806000806080858703121561019957600080fd5b6101a285610167565b93506101b060208601610167565b92506101be60408601610167565b6060959095015193969295505050565b60805160a0516137d162000202600039600081816102ca015261060a01526000818161025f015261044301526137d16000f3fe60806040523480156200001157600080fd5b5060043610620000fd5760003560e01c80638da5cb5b1162000097578063baf75489116200006e578063baf754891462000259578063f2fde38b1462000281578063f838a7e71462000298578063fec8938614620002c457600080fd5b80638da5cb5b14620001de57806398d34ab214620001f05780639aa949b5146200022d57600080fd5b80633d708e1011620000d85780633d708e10146200016557806344a7e5c814620001915780636817031b14620001bd578063715018a614620001d457600080fd5b806312fb31c4146200010257806322105d72146200011f578063334dc4f3146200014c575b600080fd5b6200010c60025481565b6040519081526020015b60405180910390f35b60015462000133906001600160a01b031681565b6040516001600160a01b03909116815260200162000116565b620001636200015d366004620008a2565b620002ec565b005b6200013362000176366004620008a2565b6000908152600460205260409020546001600160a01b031690565b62000133620001a2366004620008a2565b6003602052600090815260409020546001600160a01b031681565b62000163620001ce366004620008bc565b6200035f565b62000163620003e3565b6000546001600160a01b031662000133565b620002076200020136600462000982565b620003fb565b604080519384526001600160a01b03928316602085015291169082015260600162000116565b620001336200023e366004620008a2565b6000908152600360205260409020546001600160a01b031690565b620001337f000000000000000000000000000000000000000000000000000000000000000081565b6200016362000292366004620008bc565b620007bf565b62000133620002a9366004620008a2565b6004602052600090815260409020546001600160a01b031681565b620001337f000000000000000000000000000000000000000000000000000000000000000081565b620002f662000807565b6103e88111156200031a5760405163cd4e616760e01b815260040160405180910390fd5b600280549082905560408051828152602081018490527fd2207385b064623bd4444991a13de3fb27461fcb17c4984a763da297acf62aa7910160405180910390a15050565b6200036962000807565b6001600160a01b038116620003915760405163d92e233d60e01b815260040160405180910390fd5b600180546001600160a01b038381166001600160a01b0319831681179093556040519116919082907f483bdedaaf23706a9800ac1af0d852b34927780d79f9d6ba60a80c7cad75ea3990600090a35050565b620003ed62000807565b620003f9600062000836565b565b600154600090819081906001600160a01b03166200042c57604051630647140b60e51b815260040160405180910390fd5b60405163520acd9960e01b81526001600160a01b037f0000000000000000000000000000000000000000000000000000000000000000169063520acd999062000488908e908e908e908e908e908e908e908e9060040162000aaf565b6020604051808303816000875af1158015620004a8573d6000803e3d6000fd5b505050506040513d601f19601f82011682018060405250810190620004ce919062000b9c565b92506000838888888830604051620004e69062000886565b620004f79695949392919062000bb6565b604051809103906000f08015801562000514573d6000803e3d6000fd5b506000858152600360205260409081902080546001600160a01b0319166001600160a01b038481169182179092556001549251636817031b60e01b8152929091166004830152919450849250636817031b90602401600060405180830381600087803b1580156200058457600080fd5b505af115801562000599573d6000803e3d6000fd5b50506001546040516368dbb78960e11b8152600481018890526001600160a01b038781166024830152909116925063d1b76f129150604401600060405180830381600087803b158015620005ec57600080fd5b505af115801562000601573d6000803e3d6000fd5b505050506000837f0000000000000000000000000000000000000000000000000000000000000000866002546040516200063b9062000894565b6001600160a01b03948516815293909216602084015260408301526060820152608001604051809103906000f0801580156200067b573d6000803e3d6000fd5b5060008681526004602081905260409182902080546001600160a01b0319166001600160a01b0385811691909117909155915163f2fde38b60e01b8152339181019190915291945084925083169063f2fde38b90602401600060405180830381600087803b158015620006ed57600080fd5b505af115801562000702573d6000803e3d6000fd5b505060405163f2fde38b60e01b81523360048201526001600160a01b038416925063f2fde38b9150602401600060405180830381600087803b1580156200074857600080fd5b505af11580156200075d573d6000803e3d6000fd5b50505050336001600160a01b0316857f6a31c1ab4042ef56b6229437a02c5a4b0d847d0b27d3848d60f252bbf2dd887886868d8d8d8d604051620007a79695949392919062000c03565b60405180910390a35050985098509895505050505050565b620007c962000807565b6001600160a01b038116620007f957604051631e4fbdf760e01b8152600060048201526024015b60405180910390fd5b620008048162000836565b50565b6000546001600160a01b03163314620003f95760405163118cdaa760e01b8152336004820152602401620007f0565b600080546001600160a01b038381166001600160a01b0319831681178455604051919092169283917f8be0079c531659141344cd1fd0a4f28419497f9722a3daafe3b4186f6b6457e09190a35050565b610e3e8062000c5583390190565b611d098062001a9383390190565b600060208284031215620008b557600080fd5b5035919050565b600060208284031215620008cf57600080fd5b81356001600160a01b0381168114620008e757600080fd5b9392505050565b60008083601f8401126200090157600080fd5b50813567ffffffffffffffff8111156200091a57600080fd5b6020830191508360208260051b85010111156200093657600080fd5b9250929050565b60008083601f8401126200095057600080fd5b50813567ffffffffffffffff8111156200096957600080fd5b6020830191508360208285010111156200093657600080fd5b6000806000806000806000806080898b0312156200099f57600080fd5b883567ffffffffffffffff80821115620009b857600080fd5b620009c68c838d01620008ee565b909a50985060208b0135915080821115620009e057600080fd5b620009ee8c838d01620008ee565b909850965060408b013591508082111562000a0857600080fd5b62000a168c838d016200093d565b909650945060608b013591508082111562000a3057600080fd5b5062000a3f8b828c016200093d565b999c989b5096995094979396929594505050565b81835281816020850137506000828201602090810191909152601f909101601f19169091010190565b81835260006001600160fb1b0383111562000a9657600080fd5b8260051b80836020870137939093016020019392505050565b60808082528101889052600060a060058a901b830181019083018b835b8c81101562000b4757858403609f190183528135368f9003601e1901811262000af457600080fd5b8e01602081810191359067ffffffffffffffff82111562000b1457600080fd5b81360383131562000b2457600080fd5b62000b3187838562000a53565b9650948501949390930192505060010162000acc565b505050828103602084015262000b5f81898b62000a7c565b9050828103604084015262000b7681878962000a53565b9050828103606084015262000b8d81858762000a53565b9b9a5050505050505050505050565b60006020828403121562000baf57600080fd5b5051919050565b86815260806020820152600062000bd260808301878962000a53565b828103604084015262000be781868862000a53565b91505060018060a01b0383166060830152979650505050505050565b6001600160a01b0387811682528616602082015260806040820181905260009062000c32908301868862000a53565b828103606084015262000c4781858762000a53565b999850505050505050505056fe60a06040523480156200001157600080fd5b5060405162000e3e38038062000e3e8339810160408190526200003491620001b8565b8083836003620000458382620002dd565b506004620000548282620002dd565b5050506001600160a01b0381166200008657604051631e4fbdf760e01b81526000600482015260240160405180910390fd5b6200009181620000a1565b50505060809190915250620003a9565b600580546001600160a01b038381166001600160a01b0319831681179093556040519116919082907f8be0079c531659141344cd1fd0a4f28419497f9722a3daafe3b4186f6b6457e090600090a35050565b634e487b7160e01b600052604160045260246000fd5b600082601f8301126200011b57600080fd5b81516001600160401b0380821115620001385762000138620000f3565b604051601f8301601f19908116603f01168101908282118183101715620001635762000163620000f3565b816040528381526020925086838588010111156200018057600080fd5b600091505b83821015620001a4578582018301518183018401529082019062000185565b600093810190920192909252949350505050565b60008060008060808587031215620001cf57600080fd5b845160208601519094506001600160401b0380821115620001ef57600080fd5b620001fd8883890162000109565b945060408701519150808211156200021457600080fd5b50620002238782880162000109565b606087015190935090506001600160a01b03811681146200024357600080fd5b939692955090935050565b600181811c908216806200026357607f821691505b6020821081036200028457634e487b7160e01b600052602260045260246000fd5b50919050565b601f821115620002d857600081815260208120601f850160051c81016020861015620002b35750805b601f850160051c820191505b81811015620002d457828155600101620002bf565b5050505b505050565b81516001600160401b03811115620002f957620002f9620000f3565b62000311816200030a84546200024e565b846200028a565b602080601f831160018114620003495760008415620003305750858301515b600019600386901b1c1916600185901b178555620002d4565b600085815260208120601f198616915b828110156200037a5788860151825594840194600190910190840162000359565b5085821015620003995787850151600019600388901b60f8161c191681555b5050505050600190811b01905550565b608051610a79620003c5600039600061019f0152610a796000f3fe608060405234801561001057600080fd5b506004361061010b5760003560e01c806370a08231116100a25780639dc29fac116100715780639dc29fac14610232578063a9059cbb14610245578063dd62ed3e14610258578063f2fde38b14610291578063fbfa77cf146102a457600080fd5b806370a08231146101d4578063715018a6146101fd5780638da5cb5b1461020557806395d89b411461022a57600080fd5b8063313ce567116100de578063313ce5671461017657806340c10f191461018557806362afa7721461019a5780636817031b146101c157600080fd5b806306fdde0314610110578063095ea7b31461012e57806318160ddd1461015157806323b872dd14610163575b600080fd5b6101186102b7565b60405161012591906108c3565b60405180910390f35b61014161013c36600461092d565b610349565b6040519015158152602001610125565b6002545b604051908152602001610125565b610141610171366004610957565b610363565b60405160128152602001610125565b61019861019336600461092d565b610387565b005b6101557f000000000000000000000000000000000000000000000000000000000000000081565b6101986101cf366004610993565b6103c0565b6101556101e2366004610993565b6001600160a01b031660009081526020819052604090205490565b610198610441565b6005546001600160a01b03165b6040516001600160a01b039091168152602001610125565b610118610455565b61019861024036600461092d565b610464565b61014161025336600461092d565b610499565b6101556102663660046109b5565b6001600160a01b03918216600090815260016020908152604080832093909416825291909152205490565b61019861029f366004610993565b6104a7565b600654610212906001600160a01b031681565b6060600380546102c6906109e8565b80601f01602080910402602001604051908101604052809291908181526020018280546102f2906109e8565b801561033f5780601f106103145761010080835404028352916020019161033f565b820191906000526020600020905b81548152906001019060200180831161032257829003601f168201915b5050505050905090565b6000336103578185856104ea565b60019150505b92915050565b6000336103718582856104fc565b61037c85858561057a565b506001949350505050565b6006546001600160a01b031633146103b257604051638d1af8bd60e01b815260040160405180910390fd5b6103bc82826105d9565b5050565b6103c861060f565b6001600160a01b0381166103ef5760405163d580689d60e01b815260040160405180910390fd5b600680546001600160a01b038381166001600160a01b0319831681179093556040519116919082907f483bdedaaf23706a9800ac1af0d852b34927780d79f9d6ba60a80c7cad75ea3990600090a35050565b61044961060f565b610453600061063c565b565b6060600480546102c6906109e8565b6006546001600160a01b0316331461048f57604051638d1af8bd60e01b815260040160405180910390fd5b6103bc828261068e565b60003361035781858561057a565b6104af61060f565b6001600160a01b0381166104de57604051631e4fbdf760e01b8152600060048201526024015b60405180910390fd5b6104e78161063c565b50565b6104f783838360016106c4565b505050565b6001600160a01b038381166000908152600160209081526040808320938616835292905220546000198114610574578181101561056557604051637dc7a0d960e11b81526001600160a01b038416600482015260248101829052604481018390526064016104d5565b610574848484840360006106c4565b50505050565b6001600160a01b0383166105a457604051634b637e8f60e11b8152600060048201526024016104d5565b6001600160a01b0382166105ce5760405163ec442f0560e01b8152600060048201526024016104d5565b6104f7838383610799565b6001600160a01b0382166106035760405163ec442f0560e01b8152600060048201526024016104d5565b6103bc60008383610799565b6005546001600160a01b031633146104535760405163118cdaa760e01b81523360048201526024016104d5565b600580546001600160a01b038381166001600160a01b0319831681179093556040519116919082907f8be0079c531659141344cd1fd0a4f28419497f9722a3daafe3b4186f6b6457e090600090a35050565b6001600160a01b0382166106b857604051634b637e8f60e11b8152600060048201526024016104d5565b6103bc82600083610799565b6001600160a01b0384166106ee5760405163e602df0560e01b8152600060048201526024016104d5565b6001600160a01b03831661071857604051634a1406b160e11b8152600060048201526024016104d5565b6001600160a01b038085166000908152600160209081526040808320938716835292905220829055801561057457826001600160a01b0316846001600160a01b03167f8c5be1e5ebec7d5bd14f71427d1e84f3dd0314c0f7b2291e5b200ac8c7c3b9258460405161078b91815260200190565b60405180910390a350505050565b6001600160a01b0383166107c45780600260008282546107b99190610a22565b909155506108369050565b6001600160a01b038316600090815260208190526040902054818110156108175760405163391434e360e21b81526001600160a01b038516600482015260248101829052604481018390526064016104d5565b6001600160a01b03841660009081526020819052604090209082900390555b6001600160a01b03821661085257600280548290039055610871565b6001600160a01b03821660009081526020819052604090208054820190555b816001600160a01b0316836001600160a01b03167fddf252ad1be2c89b69c2b068fc378daa952ba7f163c4a11628f55a4df523b3ef836040516108b691815260200190565b60405180910390a3505050565b600060208083528351808285015260005b818110156108f0578581018301518582016040015282016108d4565b506000604082860101526040601f19601f8301168501019250505092915050565b80356001600160a01b038116811461092857600080fd5b919050565b6000806040838503121561094057600080fd5b61094983610911565b946020939093013593505050565b60008060006060848603121561096c57600080fd5b61097584610911565b925061098360208501610911565b9150604084013590509250925092565b6000602082840312156109a557600080fd5b6109ae82610911565b9392505050565b600080604083850312156109c857600080fd5b6109d183610911565b91506109df60208401610911565b90509250929050565b600181811c908216806109fc57607f821691505b602082108103610a1c57634e487b7160e01b600052602260045260246000fd5b50919050565b8082018082111561035d57634e487b7160e01b600052601160045260246000fdfea2646970667358221220c5911d0a8b701085773365f1a6576d2388a4a37619552f8f17ff0c119a26d23064736f6c6343000814003360e06040523480156200001157600080fd5b5060405162001d0938038062001d09833981016040819052620000349162000170565b33806200005b57604051631e4fbdf760e01b81526000600482015260240160405180910390fd5b620000668162000103565b50600180556001600160a01b038416620000935760405163d92e233d60e01b815260040160405180910390fd5b6001600160a01b038316620000bb5760405163d92e233d60e01b815260040160405180910390fd5b6103e8811115620000df5760405163cd4e616760e01b815260040160405180910390fd5b6001600160a01b039384166080529190921660a05260c091909152600455620001b8565b600080546001600160a01b038381166001600160a01b0319831681178455604051919092169283917f8be0079c531659141344cd1fd0a4f28419497f9722a3daafe3b4186f6b6457e09190a35050565b80516001600160a01b03811681146200016b57600080fd5b919050565b600080600080608085870312156200018757600080fd5b620001928562000153565b9350620001a26020860162000153565b6040860151606090960151949790965092505050565b60805160a05160c051611a796200029060003960008181610242015281816104ab015281816105b80152818161098801528181610c7a0152818161103a015261145b0152600081816102c0015281816104d4015281816105e10152818161067801528181610906015281816109bc01528181610a5c01528181610c0f01528181610caf01528181610d3e01528181611063015281816110dc015281816114900152611501015260008181610464015281816107920152818161087401528181610f88015281816111fb01526113e80152611a796000f3fe60806040526004361061016a5760003560e01c80638da5cb5b116100d1578063c87965721161008a578063f04da65b11610064578063f04da65b146103fc578063f2fde38b14610432578063f51ebfe214610452578063f9b722501461048657600080fd5b8063c8796572146103b1578063cd2228e0146103c6578063d4ce1c6a146103e657600080fd5b80638da5cb5b146102fa5780639c8f9f23146103185780639df742f914610338578063c109a6dc1461034e578063c2ee66d91461037b578063c672e4251461039157600080fd5b806351c6590a1161012357806351c6590a1461021d57806362afa77214610230578063715018a614610264578063787190201461027957806379f3057d1461028e5780637dc0d1d0146102ae57600080fd5b80630902f1ac1461017657806313fb7471146101a45780632ffdaf89146101c757806334e19907146101dd5780633a98ef39146101ff578063413ad7521461021557600080fd5b3661017157005b600080fd5b34801561018257600080fd5b506002546003545b604080519283526020830191909152015b60405180910390f35b3480156101b057600080fd5b506101b961049c565b60405190815260200161019b565b3480156101d357600080fd5b506101b960045481565b3480156101e957600080fd5b506101fd6101f8366004611922565b61054c565b005b34801561020b57600080fd5b506101b960085481565b6101b961057c565b6101b961022b366004611922565b61082c565b34801561023c57600080fd5b506101b97f000000000000000000000000000000000000000000000000000000000000000081565b34801561027057600080fd5b506101fd610bf7565b34801561028557600080fd5b506101b9610c0b565b34801561029a57600080fd5b5061018a6102a9366004611922565b610c6b565b3480156102ba57600080fd5b506102e27f000000000000000000000000000000000000000000000000000000000000000081565b6040516001600160a01b03909116815260200161019b565b34801561030657600080fd5b506000546001600160a01b03166102e2565b34801561032457600080fd5b5061018a610333366004611922565b610dfd565b34801561034457600080fd5b506101b960065481565b34801561035a57600080fd5b506101b961036936600461193b565b60076020526000908152604090205481565b34801561038757600080fd5b506101b960035481565b34801561039d57600080fd5b506101b96103ac366004611922565b611000565b3480156103bd57600080fd5b506101fd61132d565b3480156103d257600080fd5b5061018a6103e1366004611922565b61144c565b3480156103f257600080fd5b506101b960025481565b34801561040857600080fd5b506101b961041736600461193b565b6001600160a01b031660009081526007602052604090205490565b34801561043e57600080fd5b506101fd61044d36600461193b565b6115f7565b34801561045e57600080fd5b506102e27f000000000000000000000000000000000000000000000000000000000000000081565b34801561049257600080fd5b506101b960055481565b60405163d8435ec360e01b81527f000000000000000000000000000000000000000000000000000000000000000060048201526000907f00000000000000000000000000000000000000000000000000000000000000006001600160a01b03169063d8435ec390602401602060405180830381865afa158015610523573d6000803e3d6000fd5b505050506040513d601f19601f820116820180604052508101906105479190611964565b905090565b61055461163a565b6103e88111156105775760405163cd4e616760e01b815260040160405180910390fd5b600455565b6000610586611667565b3460008190036105a95760405163162908e360e11b815260040160405180910390fd5b60405163d8435ec360e01b81527f000000000000000000000000000000000000000000000000000000000000000060048201526000907f00000000000000000000000000000000000000000000000000000000000000006001600160a01b03169063d8435ec390602401602060405180830381865afa158015610630573d6000803e3d6000fd5b505050506040513d601f19601f820116820180604052508101906106549190611964565b60405163136e035160e01b8152600481018490529091506000906001600160a01b037f0000000000000000000000000000000000000000000000000000000000000000169063136e035190602401602060405180830381865afa1580156106bf573d6000803e3d6000fd5b505050506040513d601f19601f820116820180604052508101906106e39190611964565b90506000826106fa83670de0b6b3a7640000611993565b61070491906119aa565b90506000612710600454836107199190611993565b61072391906119aa565b905061072f81836119cc565b95506003548611156107545760405163103d09cb60e01b815260040160405180910390fd5b846002600082825461076691906119df565b92505081905550856003600082825461077f91906119cc565b909155506107b990506001600160a01b037f0000000000000000000000000000000000000000000000000000000000000000163388611691565b80600660008282546107cb91906119df565b90915550506040805160018152602081018790529081018790526060810182905233907f176648f1f11cda284c124490086be42a926ddf0ae887ebe7b1d6b337d89427569060800160405180910390a2505050505061082960018055565b90565b6000610836611667565b3480158015610843575082155b156108615760405163162908e360e11b815260040160405180910390fd5b82156108b45761089c6001600160a01b037f0000000000000000000000000000000000000000000000000000000000000000163330866116f5565b82600360008282546108ae91906119df565b90915550505b80156108d25780600260008282546108cc91906119df565b90915550505b6008546000036108ed576108e683826119df565b9150610b68565b60405163136e035160e01b8152600481018290526000907f00000000000000000000000000000000000000000000000000000000000000006001600160a01b03169063136e035190602401602060405180830381865afa158015610955573d6000803e3d6000fd5b505050506040513d601f19601f820116820180604052508101906109799190611964565b60405163d8435ec360e01b81527f000000000000000000000000000000000000000000000000000000000000000060048201529091506000906001600160a01b037f0000000000000000000000000000000000000000000000000000000000000000169063d8435ec390602401602060405180830381865afa158015610a03573d6000803e3d6000fd5b505050506040513d601f19601f82011682018060405250810190610a279190611964565b90506000670de0b6b3a7640000610a3e8388611993565b610a4891906119aa565b90506000610a5682856119df565b905060007f00000000000000000000000000000000000000000000000000000000000000006001600160a01b031663136e035187600254610a9791906119cc565b6040518263ffffffff1660e01b8152600401610ab591815260200190565b602060405180830381865afa158015610ad2573d6000803e3d6000fd5b505050506040513d601f19601f82011682018060405250810190610af69190611964565b90506000670de0b6b3a7640000858a600354610b1291906119cc565b610b1c9190611993565b610b2691906119aa565b90506000610b3482846119df565b90508015610b5c578060085485610b4b9190611993565b610b5591906119aa565b9850610b60565b8398505b505050505050505b3360009081526007602052604081208054849290610b879084906119df565b925050819055508160086000828254610ba091906119df565b9091555050604080518281526020810185905290810183905233907f64b83944e79c3ce8d4c297411de637c3e102d064677aac0c163976ebdcd6f50e9060600160405180910390a250610bf260018055565b919050565b610bff61163a565b610c096000611734565b565b60007f00000000000000000000000000000000000000000000000000000000000000006001600160a01b031663a79ed0656040518163ffffffff1660e01b8152600401602060405180830381865afa158015610523573d6000803e3d6000fd5b60405163d8435ec360e01b81527f00000000000000000000000000000000000000000000000000000000000000006004820152600090819081906001600160a01b037f0000000000000000000000000000000000000000000000000000000000000000169063d8435ec390602401602060405180830381865afa158015610cf6573d6000803e3d6000fd5b505050506040513d601f19601f82011682018060405250810190610d1a9190611964565b60405163136e035160e01b8152600481018690529091506000906001600160a01b037f0000000000000000000000000000000000000000000000000000000000000000169063136e035190602401602060405180830381865afa158015610d85573d6000803e3d6000fd5b505050506040513d601f19601f82011682018060405250810190610da99190611964565b9050600082610dc083670de0b6b3a7640000611993565b610dca91906119aa565b905061271060045482610ddd9190611993565b610de791906119aa565b9350610df384826119cc565b9450505050915091565b600080610e08611667565b82600003610e295760405163162908e360e11b815260040160405180910390fd5b33600090815260076020526040902054831115610e5957604051636edcc52360e01b815260040160405180910390fd5b600854600254610e699085611993565b610e7391906119aa565b915060085460035484610e869190611993565b610e9091906119aa565b33600090815260076020526040812080549293508592909190610eb49084906119cc565b925050819055508260086000828254610ecd91906119cc565b925050819055508160026000828254610ee691906119cc565b925050819055508060036000828254610eff91906119cc565b90915550508115610f7557604051600090339084908381818185875af1925050503d8060008114610f4c576040519150601f19603f3d011682016040523d82523d6000602084013e610f51565b606091505b5050905080610f73576040516312171d8360e31b815260040160405180910390fd5b505b8015610faf57610faf6001600160a01b037f0000000000000000000000000000000000000000000000000000000000000000163383611691565b604080518381526020810183905290810184905233907f1dc8bb69df2b8e91fbdcbfcf93d951b3f0000f085a95fe3f7946d6161439245d9060600160405180910390a2610ffb60018055565b915091565b600061100a611667565b8160000361102b5760405163162908e360e11b815260040160405180910390fd5b60405163d8435ec360e01b81527f000000000000000000000000000000000000000000000000000000000000000060048201526000907f00000000000000000000000000000000000000000000000000000000000000006001600160a01b03169063d8435ec390602401602060405180830381865afa1580156110b2573d6000803e3d6000fd5b505050506040513d601f19601f820116820180604052508101906110d69190611964565b905060007f00000000000000000000000000000000000000000000000000000000000000006001600160a01b031663a79ed0656040518163ffffffff1660e01b8152600401602060405180830381865afa158015611138573d6000803e3d6000fd5b505050506040513d601f19601f8201168201806040525081019061115c9190611964565b90506000670de0b6b3a76400006111738487611993565b61117d91906119aa565b905060008261119483670de0b6b3a7640000611993565b61119e91906119aa565b90506000612710600454836111b39190611993565b6111bd91906119aa565b90506111c981836119cc565b95506002548611156111ee57604051634a807f4360e01b815260040160405180910390fd5b6112236001600160a01b037f00000000000000000000000000000000000000000000000000000000000000001633308a6116f5565b866003600082825461123591906119df565b92505081905550856002600082825461124e91906119cc565b9091555050604051600090339088908381818185875af1925050503d8060008114611295576040519150601f19603f3d011682016040523d82523d6000602084013e61129a565b606091505b50509050806112bc576040516312171d8360e31b815260040160405180910390fd5b81600560008282546112ce91906119df565b90915550506040805160008152602081018a90529081018890526060810183905233907f176648f1f11cda284c124490086be42a926ddf0ae887ebe7b1d6b337d89427569060800160405180910390a2505050505050610bf260018055565b61133561163a565b60058054600680546000938490559290559081156113c357600080546040516001600160a01b039091169084908381818185875af1925050503d806000811461139a576040519150601f19603f3d011682016040523d82523d6000602084013e61139f565b606091505b50509050806113c1576040516312171d8360e31b815260040160405180910390fd5b505b801561140f5761140f6113de6000546001600160a01b031690565b6001600160a01b037f0000000000000000000000000000000000000000000000000000000000000000169083611691565b60408051838152602081018390527f49d512bf9cb224241c05691e73eb9fab078cf350c7dbcbcf66788f1fc0cc8b0b910160405180910390a15050565b60405163d8435ec360e01b81527f00000000000000000000000000000000000000000000000000000000000000006004820152600090819081906001600160a01b037f0000000000000000000000000000000000000000000000000000000000000000169063d8435ec390602401602060405180830381865afa1580156114d7573d6000803e3d6000fd5b505050506040513d601f19601f820116820180604052508101906114fb9190611964565b905060007f00000000000000000000000000000000000000000000000000000000000000006001600160a01b031663a79ed0656040518163ffffffff1660e01b8152600401602060405180830381865afa15801561155d573d6000803e3d6000fd5b505050506040513d601f19601f820116820180604052508101906115819190611964565b90506000670de0b6b3a76400006115988488611993565b6115a291906119aa565b90506000826115b983670de0b6b3a7640000611993565b6115c391906119aa565b9050612710600454826115d69190611993565b6115e091906119aa565b94506115ec85826119cc565b955050505050915091565b6115ff61163a565b6001600160a01b03811661162e57604051631e4fbdf760e01b8152600060048201526024015b60405180910390fd5b61163781611734565b50565b6000546001600160a01b03163314610c095760405163118cdaa760e01b8152336004820152602401611625565b60026001540361168a57604051633ee5aeb560e01b815260040160405180910390fd5b6002600155565b6040516001600160a01b038381166024830152604482018390526116f091859182169063a9059cbb906064015b604051602081830303815290604052915060e01b6020820180516001600160e01b038381831617835250505050611784565b505050565b6040516001600160a01b03848116602483015283811660448301526064820183905261172e9186918216906323b872dd906084016116be565b50505050565b600080546001600160a01b038381166001600160a01b0319831681178455604051919092169283917f8be0079c531659141344cd1fd0a4f28419497f9722a3daafe3b4186f6b6457e09190a35050565b60006117996001600160a01b038416836117e7565b905080516000141580156117be5750808060200190518101906117bc91906119f2565b155b156116f057604051635274afe760e01b81526001600160a01b0384166004820152602401611625565b60606117f5838360006117fe565b90505b92915050565b6060814710156118235760405163cd78605960e01b8152306004820152602401611625565b600080856001600160a01b0316848660405161183f9190611a14565b60006040518083038185875af1925050503d806000811461187c576040519150601f19603f3d011682016040523d82523d6000602084013e611881565b606091505b509150915061189186838361189d565b925050505b9392505050565b6060826118b2576118ad826118f9565b611896565b81511580156118c957506001600160a01b0384163b155b156118f257604051639996b31560e01b81526001600160a01b0385166004820152602401611625565b5080611896565b8051156119095780518082602001fd5b604051630a12f52160e11b815260040160405180910390fd5b60006020828403121561193457600080fd5b5035919050565b60006020828403121561194d57600080fd5b81356001600160a01b038116811461189657600080fd5b60006020828403121561197657600080fd5b5051919050565b634e487b7160e01b600052601160045260246000fd5b80820281158282048414176117f8576117f861197d565b6000826119c757634e487b7160e01b600052601260045260246000fd5b500490565b818103818111156117f8576117f861197d565b808201808211156117f8576117f861197d565b600060208284031215611a0457600080fd5b8151801515811461189657600080fd5b6000825160005b81811015611a355760208186018101518583015201611a1b565b50600092019182525091905056fea2646970667358221220183f7eac1ded51b3b87b6c8ce21ddd9f70cd262a0b82aaeecc4f8a67f0fd929964736f6c63430008140033a26469706673582212209c2f9c31235cb2484ef9fcf09c73710b8cde45e843c21564fd50ef5c75cffbf364736f6c63430008140033",
  "devdoc": {
    "details": "This factory handles the complete lifecycle of basket creation:      1. Creates the basket in BasketRegistry      2. Deploys an EquiBasketToken for the basket      3. Sets the vault as the token minter      4. Registers the token in the BasketVault       This ensures users never encounter \"BasketTokenNotRegistered\" errors      because the token is always created and registered atomically.",
    "errors": {
      "OwnableInvalidOwner(address)": [
        {
          "details": "The owner is not a valid owner account. (eg. `address(0)`)"
        }
      ],
      "OwnableUnauthorizedAccount(address)": [
        {
          "details": "The caller account is not authorized to perform an operation."
        }
      ]
    },
    "kind": "dev",
    "methods": {
      "constructor": {
        "params": {
          "_basketOracle": "Address of the BasketOracle",
          "_basketRegistry": "Address of the BasketRegistry",
          "_basketVault": "Address of the BasketVault (can be set later)",
          "_defaultSwapFeeBps": "Default swap fee for pools in basis points (max 1000 = 10%)"
        }
      },
      "createBasketWithToken(string[],uint256[],string,string)": {
        "details": "This function:      1. Creates the basket in registry      2. Deploys a new EquiBasketToken      3. Sets vault as the token minter      4. Registers token in vault      5. Deploys a BasketLiquidityPool for the token      6. Transfers ownership of token and pool to creator ",
        "params": {
          "assets": "Array of asset identifiers (e.g., [\"AAPL\", \"NVDA\"])",
          "name": "Human-readable name for the basket",
          "symbol": "Token symbol for the basket",
          "weights": "Array of weights in basis points (must sum to 10000)"
        },
        "returns": {
          "basketId": "The unique ID assigned to the new basket",
          "poolAddress": "The address of the deployed BasketLiquidityPool",
          "tokenAddress": "The address of the deployed EquiBasketToken"
        }
      },
      "getBasketPool(uint256)": {
        "params": {
          "basketId": "The basket ID"
        },
        "returns": {
          "_0": "The pool address (zero if not created via factory)"
        }
      },
      "getBasketToken(uint256)": {
        "params": {
          "basketId": "The basket ID"
        },
        "returns": {
          "_0": "The token address (zero if not created via factory)"
        }
      },
      "owner()": {
        "details": "Returns the address of the current owner."
      },
      "renounceOwnership()": {
        "details": "Leaves the contract without owner. It will not be possible to call `onlyOwner` functions. Can only be called by the current owner. NOTE: Renouncing ownership will leave the contract without an owner, thereby disabling any functionality that is only available to the owner."
      },
      "setDefaultSwapFee(uint256)": {
        "params": {
          "_newFeeBps": "New fee in basis points (max 1000 = 10%)"
        }
      },
      "setVault(address)": {
        "params": {
          "_vault": "Address of the BasketVault"
        }
      },
      "transferOwnership(address)": {
        "details": "Transfers ownership of the contract to a new account (`newOwner`). Can only be called by the current owner."
      }
    },
    "title": "BasketFactory",
    "version": 1
  },
  "userdoc": {
    "kind": "user",
    "methods": {
      "basketOracle()": {
        "notice": "Reference to the BasketOracle"
      },
      "basketPools(uint256)": {
        "notice": "Mapping from basketId to its liquidity pool address"
      },
      "basketRegistry()": {
        "notice": "Reference to the BasketRegistry"
      },
      "basketTokens(uint256)": {
        "notice": "Mapping from basketId to its token address"
      },
      "basketVault()": {
        "notice": "Reference to the BasketVault"
      },
      "constructor": {
        "notice": "Deploy the factory with required dependencies"
      },
      "createBasketWithToken(string[],uint256[],string,string)": {
        "notice": "Create a complete basket with token and liquidity pool in a single transaction"
      },
      "defaultSwapFeeBps()": {
        "notice": "Default swap fee for new pools in basis points (e.g., 30 = 0.30%)"
      },
      "getBasketPool(uint256)": {
        "notice": "Get the liquidity pool address for a basket"
      },
      "getBasketToken(uint256)": {
        "notice": "Get the token address for a basket"
      },
      "setDefaultSwapFee(uint256)": {
        "notice": "Set the default swap fee for new pools"
      },
      "setVault(address)": {
        "notice": "Set or update the vault address"
      }
    },
    "notice": "Factory for creating complete basket setups in a single transaction",
    "version": 1
  },
  "storageLayout": {
    "storage": [
      {
        "astId": 8,
        "contract": "contracts/BasketFactory.sol:BasketFactory",
        "label": "_owner",
        "offset": 0,
        "slot": "0",
        "type": "t_address"
      },
      {
        "astId": 1845,
        "contract": "contracts/BasketFactory.sol:BasketFactory",
        "label": "basketVault",
        "offset": 0,
        "slot": "1",
        "type": "t_contract(BasketVault)5876"
      },
      {
        "astId": 1848,
        "contract": "contracts/BasketFactory.sol:BasketFactory",
        "label": "defaultSwapFeeBps",
        "offset": 0,
        "slot": "2",
        "type": "t_uint256"
      },
      {
        "astId": 1853,
        "contract": "contracts/BasketFactory.sol:BasketFactory",
        "label": "basketTokens",
        "offset": 0,
        "slot": "3",
        "type": "t_mapping(t_uint256,t_address)"
      },
      {
        "astId": 1858,
        "contract": "contracts/BasketFactory.sol:BasketFactory",
        "label": "basketPools",
        "offset": 0,
        "slot": "4",
        "type": "t_mapping(t_uint256,t_address)"
      }
    ],
    "types": {
      "t_address": {
        "encoding": "inplace",
        "label": "address",
        "numberOfBytes": "20"
      },
      "t_contract(BasketVault)5876": {
        "encoding": "inplace",
        "label": "contract BasketVault",
        "numberOfBytes": "20"
      },
      "t_mapping(t_uint256,t_address)": {
        "encoding": "mapping",
        "key": "t_uint256",
        "label": "mapping(uint256 => address)",
        "numberOfBytes": "32",
        "value": "t_address"
      },
      "t_uint256": {
        "encoding": "inplace",
        "label": "uint256",
        "numberOfBytes": "32"
      }
    }
  }
}